{
	"contracts/BusinessVault.sol": {
		"BusinessVault": {
			"abi": [
				{
					"inputs": [
						{
							"internalType": "address",
							"name": "initialOwner",
							"type": "address"
						}
					],
					"stateMutability": "nonpayable",
					"type": "constructor"
				},
				{
					"inputs": [
						{
							"internalType": "address",
							"name": "owner",
							"type": "address"
						}
					],
					"name": "OwnableInvalidOwner",
					"type": "error"
				},
				{
					"inputs": [
						{
							"internalType": "address",
							"name": "account",
							"type": "address"
						}
					],
					"name": "OwnableUnauthorizedAccount",
					"type": "error"
				},
				{
					"inputs": [],
					"name": "ReentrancyGuardReentrantCall",
					"type": "error"
				},
				{
					"anonymous": false,
					"inputs": [
						{
							"indexed": true,
							"internalType": "address",
							"name": "previousOwner",
							"type": "address"
						},
						{
							"indexed": true,
							"internalType": "address",
							"name": "newOwner",
							"type": "address"
						}
					],
					"name": "OwnershipTransferred",
					"type": "event"
				},
				{
					"anonymous": false,
					"inputs": [
						{
							"indexed": true,
							"internalType": "uint256",
							"name": "id",
							"type": "uint256"
						},
						{
							"indexed": false,
							"internalType": "uint256",
							"name": "timestamp",
							"type": "uint256"
						},
						{
							"indexed": false,
							"internalType": "bool",
							"name": "isIncome",
							"type": "bool"
						},
						{
							"indexed": false,
							"internalType": "string",
							"name": "category",
							"type": "string"
						},
						{
							"indexed": true,
							"internalType": "address",
							"name": "tokenAddress",
							"type": "address"
						},
						{
							"indexed": false,
							"internalType": "uint256",
							"name": "amount",
							"type": "uint256"
						},
						{
							"indexed": true,
							"internalType": "address",
							"name": "actor",
							"type": "address"
						}
					],
					"name": "TransactionRecorded",
					"type": "event"
				},
				{
					"inputs": [
						{
							"internalType": "string",
							"name": "_category",
							"type": "string"
						}
					],
					"name": "depositNative",
					"outputs": [],
					"stateMutability": "payable",
					"type": "function"
				},
				{
					"inputs": [
						{
							"internalType": "address",
							"name": "_tokenAddress",
							"type": "address"
						},
						{
							"internalType": "uint256",
							"name": "_amount",
							"type": "uint256"
						},
						{
							"internalType": "string",
							"name": "_category",
							"type": "string"
						}
					],
					"name": "depositToken",
					"outputs": [],
					"stateMutability": "nonpayable",
					"type": "function"
				},
				{
					"inputs": [],
					"name": "getTransactionLogCount",
					"outputs": [
						{
							"internalType": "uint256",
							"name": "",
							"type": "uint256"
						}
					],
					"stateMutability": "view",
					"type": "function"
				},
				{
					"inputs": [],
					"name": "owner",
					"outputs": [
						{
							"internalType": "address",
							"name": "",
							"type": "address"
						}
					],
					"stateMutability": "view",
					"type": "function"
				},
				{
					"inputs": [],
					"name": "renounceOwnership",
					"outputs": [],
					"stateMutability": "nonpayable",
					"type": "function"
				},
				{
					"inputs": [],
					"name": "totalNativeExpense",
					"outputs": [
						{
							"internalType": "uint256",
							"name": "",
							"type": "uint256"
						}
					],
					"stateMutability": "view",
					"type": "function"
				},
				{
					"inputs": [],
					"name": "totalNativeIncome",
					"outputs": [
						{
							"internalType": "uint256",
							"name": "",
							"type": "uint256"
						}
					],
					"stateMutability": "view",
					"type": "function"
				},
				{
					"inputs": [
						{
							"internalType": "address",
							"name": "",
							"type": "address"
						}
					],
					"name": "totalTokenExpense",
					"outputs": [
						{
							"internalType": "uint256",
							"name": "",
							"type": "uint256"
						}
					],
					"stateMutability": "view",
					"type": "function"
				},
				{
					"inputs": [
						{
							"internalType": "address",
							"name": "",
							"type": "address"
						}
					],
					"name": "totalTokenIncome",
					"outputs": [
						{
							"internalType": "uint256",
							"name": "",
							"type": "uint256"
						}
					],
					"stateMutability": "view",
					"type": "function"
				},
				{
					"inputs": [
						{
							"internalType": "uint256",
							"name": "",
							"type": "uint256"
						}
					],
					"name": "transactionLog",
					"outputs": [
						{
							"internalType": "uint256",
							"name": "id",
							"type": "uint256"
						},
						{
							"internalType": "uint256",
							"name": "timestamp",
							"type": "uint256"
						},
						{
							"internalType": "bool",
							"name": "isIncome",
							"type": "bool"
						},
						{
							"internalType": "string",
							"name": "category",
							"type": "string"
						},
						{
							"internalType": "address",
							"name": "tokenAddress",
							"type": "address"
						},
						{
							"internalType": "uint256",
							"name": "amount",
							"type": "uint256"
						},
						{
							"internalType": "address",
							"name": "actor",
							"type": "address"
						}
					],
					"stateMutability": "view",
					"type": "function"
				},
				{
					"inputs": [
						{
							"internalType": "address",
							"name": "newOwner",
							"type": "address"
						}
					],
					"name": "transferOwnership",
					"outputs": [],
					"stateMutability": "nonpayable",
					"type": "function"
				},
				{
					"inputs": [
						{
							"internalType": "uint256",
							"name": "_amount",
							"type": "uint256"
						},
						{
							"internalType": "string",
							"name": "_category",
							"type": "string"
						}
					],
					"name": "withdrawNative",
					"outputs": [],
					"stateMutability": "nonpayable",
					"type": "function"
				},
				{
					"inputs": [
						{
							"internalType": "address",
							"name": "_tokenAddress",
							"type": "address"
						},
						{
							"internalType": "uint256",
							"name": "_amount",
							"type": "uint256"
						},
						{
							"internalType": "string",
							"name": "_category",
							"type": "string"
						}
					],
					"name": "withdrawToken",
					"outputs": [],
					"stateMutability": "nonpayable",
					"type": "function"
				}
			],
			"devdoc": {
				"errors": {
					"OwnableInvalidOwner(address)": [
						{
							"details": "The owner is not a valid owner account. (eg. `address(0)`)"
						}
					],
					"OwnableUnauthorizedAccount(address)": [
						{
							"details": "The caller account is not authorized to perform an operation."
						}
					],
					"ReentrancyGuardReentrantCall()": [
						{
							"details": "Unauthorized reentrant call."
						}
					]
				},
				"kind": "dev",
				"methods": {
					"owner()": {
						"details": "Returns the address of the current owner."
					},
					"renounceOwnership()": {
						"details": "Leaves the contract without owner. It will not be possible to call `onlyOwner` functions. Can only be called by the current owner. NOTE: Renouncing ownership will leave the contract without an owner, thereby disabling any functionality that is only available to the owner."
					},
					"transferOwnership(address)": {
						"details": "Transfers ownership of the contract to a new account (`newOwner`). Can only be called by the current owner."
					}
				},
				"version": 1
			},
			"evm": {
				"assembly": "    /* \"contracts/BusinessVault.sol\":283:3812  contract BusinessVault is Ownable, ReentrancyGuard {... */\n  mstore(0x40, 0x80)\n    /* \"contracts/BusinessVault.sol\":1148:1206  constructor(address initialOwner) Ownable(initialOwner) {} */\n  callvalue\n  dup1\n  iszero\n  tag_1\n  jumpi\n  0x00\n  dup1\n  revert\ntag_1:\n  pop\n  mload(0x40)\n  sub(codesize, bytecodeSize)\n  dup1\n  bytecodeSize\n  dup4\n  codecopy\n  dup2\n  dup2\n  add\n  0x40\n  mstore\n  dup2\n  add\n  swap1\n  tag_2\n  swap2\n  swap1\n  tag_3\n  jump\t// in\ntag_2:\n    /* \"contracts/BusinessVault.sol\":1190:1202  initialOwner */\n  dup1\n    /* \"@openzeppelin/contracts/access/Ownable.sol\":1297:1298  0 */\n  0x00\n    /* \"@openzeppelin/contracts/access/Ownable.sol\":1273:1299  initialOwner == address(0) */\n  0xffffffffffffffffffffffffffffffffffffffff\n  and\n    /* \"@openzeppelin/contracts/access/Ownable.sol\":1273:1285  initialOwner */\n  dup2\n    /* \"@openzeppelin/contracts/access/Ownable.sol\":1273:1299  initialOwner == address(0) */\n  0xffffffffffffffffffffffffffffffffffffffff\n  and\n  sub\n    /* \"@openzeppelin/contracts/access/Ownable.sol\":1269:1364  if (initialOwner == address(0)) {... */\n  tag_8\n  jumpi\n    /* \"@openzeppelin/contracts/access/Ownable.sol\":1350:1351  0 */\n  0x00\n    /* \"@openzeppelin/contracts/access/Ownable.sol\":1322:1353  OwnableInvalidOwner(address(0)) */\n  mload(0x40)\n  0x1e4fbdf700000000000000000000000000000000000000000000000000000000\n  dup2\n  mstore\n  0x04\n  add\n  tag_9\n  swap2\n  swap1\n  tag_10\n  jump\t// in\ntag_9:\n  mload(0x40)\n  dup1\n  swap2\n  sub\n  swap1\n  revert\n    /* \"@openzeppelin/contracts/access/Ownable.sol\":1269:1364  if (initialOwner == address(0)) {... */\ntag_8:\n    /* \"@openzeppelin/contracts/access/Ownable.sol\":1373:1405  _transferOwnership(initialOwner) */\n  tag_11\n    /* \"@openzeppelin/contracts/access/Ownable.sol\":1392:1404  initialOwner */\n  dup2\n    /* \"@openzeppelin/contracts/access/Ownable.sol\":1373:1391  _transferOwnership */\n  shl(0x20, tag_12)\n    /* \"@openzeppelin/contracts/access/Ownable.sol\":1373:1405  _transferOwnership(initialOwner) */\n  0x20\n  shr\n  jump\t// in\ntag_11:\n    /* \"@openzeppelin/contracts/access/Ownable.sol\":1225:1412  constructor(address initialOwner) {... */\n  pop\n    /* \"@openzeppelin/contracts/utils/ReentrancyGuard.sol\":1857:1858  1 */\n  0x01\n    /* \"@openzeppelin/contracts/utils/ReentrancyGuard.sol\":2061:2068  _status */\n  dup1\n    /* \"@openzeppelin/contracts/utils/ReentrancyGuard.sol\":2061:2082  _status = NOT_ENTERED */\n  dup2\n  swap1\n  sstore\n  pop\n    /* \"contracts/BusinessVault.sol\":1148:1206  constructor(address initialOwner) Ownable(initialOwner) {} */\n  pop\n    /* \"contracts/BusinessVault.sol\":283:3812  contract BusinessVault is Ownable, ReentrancyGuard {... */\n  jump(tag_15)\n    /* \"@openzeppelin/contracts/access/Ownable.sol\":2912:3099  function _transferOwnership(address newOwner) internal virtual {... */\ntag_12:\n    /* \"@openzeppelin/contracts/access/Ownable.sol\":2985:3001  address oldOwner */\n  0x00\n    /* \"@openzeppelin/contracts/access/Ownable.sol\":3004:3010  _owner */\n  dup1\n  0x00\n  swap1\n  sload\n  swap1\n  0x0100\n  exp\n  swap1\n  div\n  0xffffffffffffffffffffffffffffffffffffffff\n  and\n    /* \"@openzeppelin/contracts/access/Ownable.sol\":2985:3010  address oldOwner = _owner */\n  swap1\n  pop\n    /* \"@openzeppelin/contracts/access/Ownable.sol\":3029:3037  newOwner */\n  dup2\n    /* \"@openzeppelin/contracts/access/Ownable.sol\":3020:3026  _owner */\n  0x00\n  dup1\n    /* \"@openzeppelin/contracts/access/Ownable.sol\":3020:3037  _owner = newOwner */\n  0x0100\n  exp\n  dup2\n  sload\n  dup2\n  0xffffffffffffffffffffffffffffffffffffffff\n  mul\n  not\n  and\n  swap1\n  dup4\n  0xffffffffffffffffffffffffffffffffffffffff\n  and\n  mul\n  or\n  swap1\n  sstore\n  pop\n    /* \"@openzeppelin/contracts/access/Ownable.sol\":3083:3091  newOwner */\n  dup2\n    /* \"@openzeppelin/contracts/access/Ownable.sol\":3052:3092  OwnershipTransferred(oldOwner, newOwner) */\n  0xffffffffffffffffffffffffffffffffffffffff\n  and\n    /* \"@openzeppelin/contracts/access/Ownable.sol\":3073:3081  oldOwner */\n  dup2\n    /* \"@openzeppelin/contracts/access/Ownable.sol\":3052:3092  OwnershipTransferred(oldOwner, newOwner) */\n  0xffffffffffffffffffffffffffffffffffffffff\n  and\n  0x8be0079c531659141344cd1fd0a4f28419497f9722a3daafe3b4186f6b6457e0\n  mload(0x40)\n  mload(0x40)\n  dup1\n  swap2\n  sub\n  swap1\n  log3\n    /* \"@openzeppelin/contracts/access/Ownable.sol\":2975:3099  {... */\n  pop\n    /* \"@openzeppelin/contracts/access/Ownable.sol\":2912:3099  function _transferOwnership(address newOwner) internal virtual {... */\n  pop\n  jump\t// out\n    /* \"#utility.yul\":88:205   */\ntag_18:\n    /* \"#utility.yul\":197:198   */\n  0x00\n    /* \"#utility.yul\":194:195   */\n  dup1\n    /* \"#utility.yul\":187:199   */\n  revert\n    /* \"#utility.yul\":334:460   */\ntag_20:\n    /* \"#utility.yul\":371:378   */\n  0x00\n    /* \"#utility.yul\":411:453   */\n  0xffffffffffffffffffffffffffffffffffffffff\n    /* \"#utility.yul\":404:409   */\n  dup3\n    /* \"#utility.yul\":400:454   */\n  and\n    /* \"#utility.yul\":389:454   */\n  swap1\n  pop\n    /* \"#utility.yul\":334:460   */\n  swap2\n  swap1\n  pop\n  jump\t// out\n    /* \"#utility.yul\":466:562   */\ntag_21:\n    /* \"#utility.yul\":503:510   */\n  0x00\n    /* \"#utility.yul\":532:556   */\n  tag_31\n    /* \"#utility.yul\":550:555   */\n  dup3\n    /* \"#utility.yul\":532:556   */\n  tag_20\n  jump\t// in\ntag_31:\n    /* \"#utility.yul\":521:556   */\n  swap1\n  pop\n    /* \"#utility.yul\":466:562   */\n  swap2\n  swap1\n  pop\n  jump\t// out\n    /* \"#utility.yul\":568:690   */\ntag_22:\n    /* \"#utility.yul\":641:665   */\n  tag_33\n    /* \"#utility.yul\":659:664   */\n  dup2\n    /* \"#utility.yul\":641:665   */\n  tag_21\n  jump\t// in\ntag_33:\n    /* \"#utility.yul\":634:639   */\n  dup2\n    /* \"#utility.yul\":631:666   */\n  eq\n    /* \"#utility.yul\":621:684   */\n  tag_34\n  jumpi\n    /* \"#utility.yul\":680:681   */\n  0x00\n    /* \"#utility.yul\":677:678   */\n  dup1\n    /* \"#utility.yul\":670:682   */\n  revert\n    /* \"#utility.yul\":621:684   */\ntag_34:\n    /* \"#utility.yul\":568:690   */\n  pop\n  jump\t// out\n    /* \"#utility.yul\":696:839   */\ntag_23:\n    /* \"#utility.yul\":753:758   */\n  0x00\n    /* \"#utility.yul\":784:790   */\n  dup2\n    /* \"#utility.yul\":778:791   */\n  mload\n    /* \"#utility.yul\":769:791   */\n  swap1\n  pop\n    /* \"#utility.yul\":800:833   */\n  tag_36\n    /* \"#utility.yul\":827:832   */\n  dup2\n    /* \"#utility.yul\":800:833   */\n  tag_22\n  jump\t// in\ntag_36:\n    /* \"#utility.yul\":696:839   */\n  swap3\n  swap2\n  pop\n  pop\n  jump\t// out\n    /* \"#utility.yul\":845:1196   */\ntag_3:\n    /* \"#utility.yul\":915:921   */\n  0x00\n    /* \"#utility.yul\":964:966   */\n  0x20\n    /* \"#utility.yul\":952:961   */\n  dup3\n    /* \"#utility.yul\":943:950   */\n  dup5\n    /* \"#utility.yul\":939:962   */\n  sub\n    /* \"#utility.yul\":935:967   */\n  slt\n    /* \"#utility.yul\":932:1051   */\n  iszero\n  tag_38\n  jumpi\n    /* \"#utility.yul\":970:1049   */\n  tag_39\n  tag_18\n  jump\t// in\ntag_39:\n    /* \"#utility.yul\":932:1051   */\ntag_38:\n    /* \"#utility.yul\":1090:1091   */\n  0x00\n    /* \"#utility.yul\":1115:1179   */\n  tag_40\n    /* \"#utility.yul\":1171:1178   */\n  dup5\n    /* \"#utility.yul\":1162:1168   */\n  dup3\n    /* \"#utility.yul\":1151:1160   */\n  dup6\n    /* \"#utility.yul\":1147:1169   */\n  add\n    /* \"#utility.yul\":1115:1179   */\n  tag_23\n  jump\t// in\ntag_40:\n    /* \"#utility.yul\":1105:1179   */\n  swap2\n  pop\n    /* \"#utility.yul\":1061:1189   */\n  pop\n    /* \"#utility.yul\":845:1196   */\n  swap3\n  swap2\n  pop\n  pop\n  jump\t// out\n    /* \"#utility.yul\":1202:1320   */\ntag_24:\n    /* \"#utility.yul\":1289:1313   */\n  tag_42\n    /* \"#utility.yul\":1307:1312   */\n  dup2\n    /* \"#utility.yul\":1289:1313   */\n  tag_21\n  jump\t// in\ntag_42:\n    /* \"#utility.yul\":1284:1287   */\n  dup3\n    /* \"#utility.yul\":1277:1314   */\n  mstore\n    /* \"#utility.yul\":1202:1320   */\n  pop\n  pop\n  jump\t// out\n    /* \"#utility.yul\":1326:1548   */\ntag_10:\n    /* \"#utility.yul\":1419:1423   */\n  0x00\n    /* \"#utility.yul\":1457:1459   */\n  0x20\n    /* \"#utility.yul\":1446:1455   */\n  dup3\n    /* \"#utility.yul\":1442:1460   */\n  add\n    /* \"#utility.yul\":1434:1460   */\n  swap1\n  pop\n    /* \"#utility.yul\":1470:1541   */\n  tag_44\n    /* \"#utility.yul\":1538:1539   */\n  0x00\n    /* \"#utility.yul\":1527:1536   */\n  dup4\n    /* \"#utility.yul\":1523:1540   */\n  add\n    /* \"#utility.yul\":1514:1520   */\n  dup5\n    /* \"#utility.yul\":1470:1541   */\n  tag_24\n  jump\t// in\ntag_44:\n    /* \"#utility.yul\":1326:1548   */\n  swap3\n  swap2\n  pop\n  pop\n  jump\t// out\n    /* \"contracts/BusinessVault.sol\":283:3812  contract BusinessVault is Ownable, ReentrancyGuard {... */\ntag_15:\n  dataSize(sub_0)\n  dup1\n  dataOffset(sub_0)\n  0x00\n  codecopy\n  0x00\n  return\nstop\n\nsub_0: assembly {\n        /* \"contracts/BusinessVault.sol\":283:3812  contract BusinessVault is Ownable, ReentrancyGuard {... */\n      mstore(0x40, 0x80)\n      jumpi(tag_1, lt(calldatasize, 0x04))\n      shr(0xe0, calldataload(0x00))\n      dup1\n      0xa10d0960\n      gt\n      tag_15\n      jumpi\n      dup1\n      0xe4e544cf\n      gt\n      tag_16\n      jumpi\n      dup1\n      0xe4e544cf\n      eq\n      tag_11\n      jumpi\n      dup1\n      0xe798af88\n      eq\n      tag_12\n      jumpi\n      dup1\n      0xf18d0142\n      eq\n      tag_13\n      jumpi\n      dup1\n      0xf2fde38b\n      eq\n      tag_14\n      jumpi\n      jump(tag_1)\n    tag_16:\n      dup1\n      0xa10d0960\n      eq\n      tag_8\n      jumpi\n      dup1\n      0xc536e768\n      eq\n      tag_9\n      jumpi\n      dup1\n      0xd51ba8f6\n      eq\n      tag_10\n      jumpi\n      jump(tag_1)\n    tag_15:\n      dup1\n      0x14eaa43b\n      eq\n      tag_2\n      jumpi\n      dup1\n      0x5adcb1c4\n      eq\n      tag_3\n      jumpi\n      dup1\n      0x69594cfa\n      eq\n      tag_4\n      jumpi\n      dup1\n      0x715018a6\n      eq\n      tag_5\n      jumpi\n      dup1\n      0x79da58fc\n      eq\n      tag_6\n      jumpi\n      dup1\n      0x8da5cb5b\n      eq\n      tag_7\n      jumpi\n    tag_1:\n      0x00\n      dup1\n      revert\n        /* \"contracts/BusinessVault.sol\":2451:2972  function withdrawToken(address _tokenAddress, uint256 _amount, string calldata _category) external onlyOwner nonReentrant {... */\n    tag_2:\n      callvalue\n      dup1\n      iszero\n      tag_17\n      jumpi\n      0x00\n      dup1\n      revert\n    tag_17:\n      pop\n      tag_18\n      0x04\n      dup1\n      calldatasize\n      sub\n      dup2\n      add\n      swap1\n      tag_19\n      swap2\n      swap1\n      tag_20\n      jump\t// in\n    tag_19:\n      tag_21\n      jump\t// in\n    tag_18:\n      stop\n        /* \"contracts/BusinessVault.sol\":3699:3810  function getTransactionLogCount() external view returns (uint256) {... */\n    tag_3:\n      callvalue\n      dup1\n      iszero\n      tag_22\n      jumpi\n      0x00\n      dup1\n      revert\n    tag_22:\n      pop\n      tag_23\n      tag_24\n      jump\t// in\n    tag_23:\n      mload(0x40)\n      tag_25\n      swap2\n      swap1\n      tag_26\n      jump\t// in\n    tag_25:\n      mload(0x40)\n      dup1\n      swap2\n      sub\n      swap1\n      return\n        /* \"contracts/BusinessVault.sol\":769:804  Transaction[] public transactionLog */\n    tag_4:\n      callvalue\n      dup1\n      iszero\n      tag_27\n      jumpi\n      0x00\n      dup1\n      revert\n    tag_27:\n      pop\n      tag_28\n      0x04\n      dup1\n      calldatasize\n      sub\n      dup2\n      add\n      swap1\n      tag_29\n      swap2\n      swap1\n      tag_30\n      jump\t// in\n    tag_29:\n      tag_31\n      jump\t// in\n    tag_28:\n      mload(0x40)\n      tag_32\n      swap8\n      swap7\n      swap6\n      swap5\n      swap4\n      swap3\n      swap2\n      swap1\n      tag_33\n      jump\t// in\n    tag_32:\n      mload(0x40)\n      dup1\n      swap2\n      sub\n      swap1\n      return\n        /* \"@openzeppelin/contracts/access/Ownable.sol\":2293:2394  function renounceOwnership() public virtual onlyOwner {... */\n    tag_5:\n      callvalue\n      dup1\n      iszero\n      tag_34\n      jumpi\n      0x00\n      dup1\n      revert\n    tag_34:\n      pop\n      tag_35\n      tag_36\n      jump\t// in\n    tag_35:\n      stop\n        /* \"contracts/BusinessVault.sol\":2002:2441  function withdrawNative(uint256 _amount, string calldata _category) external onlyOwner nonReentrant {... */\n    tag_6:\n      callvalue\n      dup1\n      iszero\n      tag_37\n      jumpi\n      0x00\n      dup1\n      revert\n    tag_37:\n      pop\n      tag_38\n      0x04\n      dup1\n      calldatasize\n      sub\n      dup2\n      add\n      swap1\n      tag_39\n      swap2\n      swap1\n      tag_40\n      jump\t// in\n    tag_39:\n      tag_41\n      jump\t// in\n    tag_38:\n      stop\n        /* \"@openzeppelin/contracts/access/Ownable.sol\":1638:1723  function owner() public view virtual returns (address) {... */\n    tag_7:\n      callvalue\n      dup1\n      iszero\n      tag_42\n      jumpi\n      0x00\n      dup1\n      revert\n    tag_42:\n      pop\n      tag_43\n      tag_44\n      jump\t// in\n    tag_43:\n      mload(0x40)\n      tag_45\n      swap2\n      swap1\n      tag_46\n      jump\t// in\n    tag_45:\n      mload(0x40)\n      dup1\n      swap2\n      sub\n      swap1\n      return\n        /* \"contracts/BusinessVault.sol\":1538:1961  function depositToken(address _tokenAddress, uint256 _amount, string calldata _category) external {... */\n    tag_8:\n      callvalue\n      dup1\n      iszero\n      tag_47\n      jumpi\n      0x00\n      dup1\n      revert\n    tag_47:\n      pop\n      tag_48\n      0x04\n      dup1\n      calldatasize\n      sub\n      dup2\n      add\n      swap1\n      tag_49\n      swap2\n      swap1\n      tag_20\n      jump\t// in\n    tag_49:\n      tag_50\n      jump\t// in\n    tag_48:\n      stop\n        /* \"contracts/BusinessVault.sol\":653:704  mapping(address => uint256) public totalTokenIncome */\n    tag_9:\n      callvalue\n      dup1\n      iszero\n      tag_51\n      jumpi\n      0x00\n      dup1\n      revert\n    tag_51:\n      pop\n      tag_52\n      0x04\n      dup1\n      calldatasize\n      sub\n      dup2\n      add\n      swap1\n      tag_53\n      swap2\n      swap1\n      tag_54\n      jump\t// in\n    tag_53:\n      tag_55\n      jump\t// in\n    tag_52:\n      mload(0x40)\n      tag_56\n      swap2\n      swap1\n      tag_26\n      jump\t// in\n    tag_56:\n      mload(0x40)\n      dup1\n      swap2\n      sub\n      swap1\n      return\n        /* \"contracts/BusinessVault.sol\":1245:1528  function depositNative(string calldata _category) external payable {... */\n    tag_10:\n      tag_57\n      0x04\n      dup1\n      calldatasize\n      sub\n      dup2\n      add\n      swap1\n      tag_58\n      swap2\n      swap1\n      tag_59\n      jump\t// in\n    tag_58:\n      tag_60\n      jump\t// in\n    tag_57:\n      stop\n        /* \"contracts/BusinessVault.sol\":576:608  uint256 public totalNativeIncome */\n    tag_11:\n      callvalue\n      dup1\n      iszero\n      tag_61\n      jumpi\n      0x00\n      dup1\n      revert\n    tag_61:\n      pop\n      tag_62\n      tag_63\n      jump\t// in\n    tag_62:\n      mload(0x40)\n      tag_64\n      swap2\n      swap1\n      tag_26\n      jump\t// in\n    tag_64:\n      mload(0x40)\n      dup1\n      swap2\n      sub\n      swap1\n      return\n        /* \"contracts/BusinessVault.sol\":614:647  uint256 public totalNativeExpense */\n    tag_12:\n      callvalue\n      dup1\n      iszero\n      tag_65\n      jumpi\n      0x00\n      dup1\n      revert\n    tag_65:\n      pop\n      tag_66\n      tag_67\n      jump\t// in\n    tag_66:\n      mload(0x40)\n      tag_68\n      swap2\n      swap1\n      tag_26\n      jump\t// in\n    tag_68:\n      mload(0x40)\n      dup1\n      swap2\n      sub\n      swap1\n      return\n        /* \"contracts/BusinessVault.sol\":710:762  mapping(address => uint256) public totalTokenExpense */\n    tag_13:\n      callvalue\n      dup1\n      iszero\n      tag_69\n      jumpi\n      0x00\n      dup1\n      revert\n    tag_69:\n      pop\n      tag_70\n      0x04\n      dup1\n      calldatasize\n      sub\n      dup2\n      add\n      swap1\n      tag_71\n      swap2\n      swap1\n      tag_54\n      jump\t// in\n    tag_71:\n      tag_72\n      jump\t// in\n    tag_70:\n      mload(0x40)\n      tag_73\n      swap2\n      swap1\n      tag_26\n      jump\t// in\n    tag_73:\n      mload(0x40)\n      dup1\n      swap2\n      sub\n      swap1\n      return\n        /* \"@openzeppelin/contracts/access/Ownable.sol\":2543:2758  function transferOwnership(address newOwner) public virtual onlyOwner {... */\n    tag_14:\n      callvalue\n      dup1\n      iszero\n      tag_74\n      jumpi\n      0x00\n      dup1\n      revert\n    tag_74:\n      pop\n      tag_75\n      0x04\n      dup1\n      calldatasize\n      sub\n      dup2\n      add\n      swap1\n      tag_76\n      swap2\n      swap1\n      tag_54\n      jump\t// in\n    tag_76:\n      tag_77\n      jump\t// in\n    tag_75:\n      stop\n        /* \"contracts/BusinessVault.sol\":2451:2972  function withdrawToken(address _tokenAddress, uint256 _amount, string calldata _category) external onlyOwner nonReentrant {... */\n    tag_21:\n        /* \"@openzeppelin/contracts/access/Ownable.sol\":1531:1544  _checkOwner() */\n      tag_79\n        /* \"@openzeppelin/contracts/access/Ownable.sol\":1531:1542  _checkOwner */\n      tag_80\n        /* \"@openzeppelin/contracts/access/Ownable.sol\":1531:1544  _checkOwner() */\n      jump\t// in\n    tag_79:\n        /* \"@openzeppelin/contracts/utils/ReentrancyGuard.sol\":2500:2521  _nonReentrantBefore() */\n      tag_82\n        /* \"@openzeppelin/contracts/utils/ReentrancyGuard.sol\":2500:2519  _nonReentrantBefore */\n      tag_83\n        /* \"@openzeppelin/contracts/utils/ReentrancyGuard.sol\":2500:2521  _nonReentrantBefore() */\n      jump\t// in\n    tag_82:\n        /* \"contracts/BusinessVault.sol\":2616:2617  0 */\n      0x00\n        /* \"contracts/BusinessVault.sol\":2591:2618  _tokenAddress != address(0) */\n      0xffffffffffffffffffffffffffffffffffffffff\n      and\n        /* \"contracts/BusinessVault.sol\":2591:2604  _tokenAddress */\n      dup5\n        /* \"contracts/BusinessVault.sol\":2591:2618  _tokenAddress != address(0) */\n      0xffffffffffffffffffffffffffffffffffffffff\n      and\n      sub\n        /* \"contracts/BusinessVault.sol\":2583:2651  require(_tokenAddress != address(0), \"Token address cannot be zero\") */\n      tag_85\n      jumpi\n      mload(0x40)\n      0x08c379a000000000000000000000000000000000000000000000000000000000\n      dup2\n      mstore\n      0x04\n      add\n      tag_86\n      swap1\n      tag_87\n      jump\t// in\n    tag_86:\n      mload(0x40)\n      dup1\n      swap2\n      sub\n      swap1\n      revert\n    tag_85:\n        /* \"contracts/BusinessVault.sol\":2661:2673  IERC20 token */\n      0x00\n        /* \"contracts/BusinessVault.sol\":2683:2696  _tokenAddress */\n      dup5\n        /* \"contracts/BusinessVault.sol\":2661:2697  IERC20 token = IERC20(_tokenAddress) */\n      swap1\n      pop\n        /* \"contracts/BusinessVault.sol\":2749:2756  _amount */\n      dup4\n        /* \"contracts/BusinessVault.sol\":2715:2720  token */\n      dup2\n        /* \"contracts/BusinessVault.sol\":2715:2730  token.balanceOf */\n      0xffffffffffffffffffffffffffffffffffffffff\n      and\n      0x70a08231\n        /* \"contracts/BusinessVault.sol\":2739:2743  this */\n      address\n        /* \"contracts/BusinessVault.sol\":2715:2745  token.balanceOf(address(this)) */\n      mload(0x40)\n      dup3\n      0xffffffff\n      and\n      0xe0\n      shl\n      dup2\n      mstore\n      0x04\n      add\n      tag_88\n      swap2\n      swap1\n      tag_46\n      jump\t// in\n    tag_88:\n      0x20\n      mload(0x40)\n      dup1\n      dup4\n      sub\n      dup2\n      dup7\n      gas\n      staticcall\n      iszero\n      dup1\n      iszero\n      tag_90\n      jumpi\n      returndatasize\n      0x00\n      dup1\n      returndatacopy\n      revert(0x00, returndatasize)\n    tag_90:\n      pop\n      pop\n      pop\n      pop\n      mload(0x40)\n      returndatasize\n      not(0x1f)\n      0x1f\n      dup3\n      add\n      and\n      dup3\n      add\n      dup1\n      0x40\n      mstore\n      pop\n      dup2\n      add\n      swap1\n      tag_91\n      swap2\n      swap1\n      tag_92\n      jump\t// in\n    tag_91:\n        /* \"contracts/BusinessVault.sol\":2715:2756  token.balanceOf(address(this)) >= _amount */\n      lt\n      iszero\n        /* \"contracts/BusinessVault.sol\":2707:2794  require(token.balanceOf(address(this)) >= _amount, \"Vault: Insufficient token balance\") */\n      tag_93\n      jumpi\n      mload(0x40)\n      0x08c379a000000000000000000000000000000000000000000000000000000000\n      dup2\n      mstore\n      0x04\n      add\n      tag_94\n      swap1\n      tag_95\n      jump\t// in\n    tag_94:\n      mload(0x40)\n      dup1\n      swap2\n      sub\n      swap1\n      revert\n    tag_93:\n        /* \"contracts/BusinessVault.sol\":2840:2847  _amount */\n      dup4\n        /* \"contracts/BusinessVault.sol\":2804:2821  totalTokenExpense */\n      0x05\n        /* \"contracts/BusinessVault.sol\":2804:2836  totalTokenExpense[_tokenAddress] */\n      0x00\n        /* \"contracts/BusinessVault.sol\":2822:2835  _tokenAddress */\n      dup8\n        /* \"contracts/BusinessVault.sol\":2804:2836  totalTokenExpense[_tokenAddress] */\n      0xffffffffffffffffffffffffffffffffffffffff\n      and\n      0xffffffffffffffffffffffffffffffffffffffff\n      and\n      dup2\n      mstore\n      0x20\n      add\n      swap1\n      dup2\n      mstore\n      0x20\n      add\n      0x00\n      keccak256\n      0x00\n        /* \"contracts/BusinessVault.sol\":2804:2847  totalTokenExpense[_tokenAddress] += _amount */\n      dup3\n      dup3\n      sload\n      tag_96\n      swap2\n      swap1\n      tag_97\n      jump\t// in\n    tag_96:\n      swap3\n      pop\n      pop\n      dup2\n      swap1\n      sstore\n      pop\n        /* \"contracts/BusinessVault.sol\":2857:2923  _logTransaction(false, _category, _tokenAddress, _amount, owner()) */\n      tag_98\n        /* \"contracts/BusinessVault.sol\":2873:2878  false */\n      0x00\n        /* \"contracts/BusinessVault.sol\":2880:2889  _category */\n      dup5\n      dup5\n        /* \"contracts/BusinessVault.sol\":2857:2923  _logTransaction(false, _category, _tokenAddress, _amount, owner()) */\n      dup1\n      dup1\n      0x1f\n      add\n      0x20\n      dup1\n      swap2\n      div\n      mul\n      0x20\n      add\n      mload(0x40)\n      swap1\n      dup2\n      add\n      0x40\n      mstore\n      dup1\n      swap4\n      swap3\n      swap2\n      swap1\n      dup2\n      dup2\n      mstore\n      0x20\n      add\n      dup4\n      dup4\n      dup1\n      dup3\n      dup5\n      calldatacopy\n      0x00\n      dup2\n      dup5\n      add\n      mstore\n      not(0x1f)\n      0x1f\n      dup3\n      add\n      and\n      swap1\n      pop\n      dup1\n      dup4\n      add\n      swap3\n      pop\n      pop\n      pop\n      pop\n      pop\n      pop\n      pop\n        /* \"contracts/BusinessVault.sol\":2891:2904  _tokenAddress */\n      dup8\n        /* \"contracts/BusinessVault.sol\":2906:2913  _amount */\n      dup8\n        /* \"contracts/BusinessVault.sol\":2915:2922  owner() */\n      tag_99\n        /* \"contracts/BusinessVault.sol\":2915:2920  owner */\n      tag_44\n        /* \"contracts/BusinessVault.sol\":2915:2922  owner() */\n      jump\t// in\n    tag_99:\n        /* \"contracts/BusinessVault.sol\":2857:2872  _logTransaction */\n      tag_100\n        /* \"contracts/BusinessVault.sol\":2857:2923  _logTransaction(false, _category, _tokenAddress, _amount, owner()) */\n      jump\t// in\n    tag_98:\n        /* \"contracts/BusinessVault.sol\":2933:2938  token */\n      dup1\n        /* \"contracts/BusinessVault.sol\":2933:2947  token.transfer */\n      0xffffffffffffffffffffffffffffffffffffffff\n      and\n      0xa9059cbb\n        /* \"contracts/BusinessVault.sol\":2948:2955  owner() */\n      tag_101\n        /* \"contracts/BusinessVault.sol\":2948:2953  owner */\n      tag_44\n        /* \"contracts/BusinessVault.sol\":2948:2955  owner() */\n      jump\t// in\n    tag_101:\n        /* \"contracts/BusinessVault.sol\":2957:2964  _amount */\n      dup7\n        /* \"contracts/BusinessVault.sol\":2933:2965  token.transfer(owner(), _amount) */\n      mload(0x40)\n      dup4\n      0xffffffff\n      and\n      0xe0\n      shl\n      dup2\n      mstore\n      0x04\n      add\n      tag_102\n      swap3\n      swap2\n      swap1\n      tag_103\n      jump\t// in\n    tag_102:\n      0x20\n      mload(0x40)\n      dup1\n      dup4\n      sub\n      dup2\n      0x00\n      dup8\n      gas\n      call\n      iszero\n      dup1\n      iszero\n      tag_105\n      jumpi\n      returndatasize\n      0x00\n      dup1\n      returndatacopy\n      revert(0x00, returndatasize)\n    tag_105:\n      pop\n      pop\n      pop\n      pop\n      mload(0x40)\n      returndatasize\n      not(0x1f)\n      0x1f\n      dup3\n      add\n      and\n      dup3\n      add\n      dup1\n      0x40\n      mstore\n      pop\n      dup2\n      add\n      swap1\n      tag_106\n      swap2\n      swap1\n      tag_107\n      jump\t// in\n    tag_106:\n      pop\n        /* \"contracts/BusinessVault.sol\":2573:2972  {... */\n      pop\n        /* \"@openzeppelin/contracts/utils/ReentrancyGuard.sol\":2542:2562  _nonReentrantAfter() */\n      tag_108\n        /* \"@openzeppelin/contracts/utils/ReentrancyGuard.sol\":2542:2560  _nonReentrantAfter */\n      tag_109\n        /* \"@openzeppelin/contracts/utils/ReentrancyGuard.sol\":2542:2562  _nonReentrantAfter() */\n      jump\t// in\n    tag_108:\n        /* \"contracts/BusinessVault.sol\":2451:2972  function withdrawToken(address _tokenAddress, uint256 _amount, string calldata _category) external onlyOwner nonReentrant {... */\n      pop\n      pop\n      pop\n      pop\n      jump\t// out\n        /* \"contracts/BusinessVault.sol\":3699:3810  function getTransactionLogCount() external view returns (uint256) {... */\n    tag_24:\n        /* \"contracts/BusinessVault.sol\":3756:3763  uint256 */\n      0x00\n        /* \"contracts/BusinessVault.sol\":3782:3796  transactionLog */\n      0x06\n        /* \"contracts/BusinessVault.sol\":3782:3803  transactionLog.length */\n      dup1\n      sload\n      swap1\n      pop\n        /* \"contracts/BusinessVault.sol\":3775:3803  return transactionLog.length */\n      swap1\n      pop\n        /* \"contracts/BusinessVault.sol\":3699:3810  function getTransactionLogCount() external view returns (uint256) {... */\n      swap1\n      jump\t// out\n        /* \"contracts/BusinessVault.sol\":769:804  Transaction[] public transactionLog */\n    tag_31:\n      0x06\n      dup2\n      dup2\n      sload\n      dup2\n      lt\n      tag_111\n      jumpi\n      0x00\n      dup1\n      revert\n    tag_111:\n      swap1\n      0x00\n      mstore\n      keccak256(0x00, 0x20)\n      swap1\n      0x07\n      mul\n      add\n      0x00\n      swap2\n      pop\n      swap1\n      pop\n      dup1\n      0x00\n      add\n      sload\n      swap1\n      dup1\n      0x01\n      add\n      sload\n      swap1\n      dup1\n      0x02\n      add\n      0x00\n      swap1\n      sload\n      swap1\n      0x0100\n      exp\n      swap1\n      div\n      0xff\n      and\n      swap1\n      dup1\n      0x03\n      add\n      dup1\n      sload\n      tag_113\n      swap1\n      tag_114\n      jump\t// in\n    tag_113:\n      dup1\n      0x1f\n      add\n      0x20\n      dup1\n      swap2\n      div\n      mul\n      0x20\n      add\n      mload(0x40)\n      swap1\n      dup2\n      add\n      0x40\n      mstore\n      dup1\n      swap3\n      swap2\n      swap1\n      dup2\n      dup2\n      mstore\n      0x20\n      add\n      dup3\n      dup1\n      sload\n      tag_115\n      swap1\n      tag_114\n      jump\t// in\n    tag_115:\n      dup1\n      iszero\n      tag_116\n      jumpi\n      dup1\n      0x1f\n      lt\n      tag_117\n      jumpi\n      0x0100\n      dup1\n      dup4\n      sload\n      div\n      mul\n      dup4\n      mstore\n      swap2\n      0x20\n      add\n      swap2\n      jump(tag_116)\n    tag_117:\n      dup3\n      add\n      swap2\n      swap1\n      0x00\n      mstore\n      keccak256(0x00, 0x20)\n      swap1\n    tag_118:\n      dup2\n      sload\n      dup2\n      mstore\n      swap1\n      0x01\n      add\n      swap1\n      0x20\n      add\n      dup1\n      dup4\n      gt\n      tag_118\n      jumpi\n      dup3\n      swap1\n      sub\n      0x1f\n      and\n      dup3\n      add\n      swap2\n    tag_116:\n      pop\n      pop\n      pop\n      pop\n      pop\n      swap1\n      dup1\n      0x04\n      add\n      0x00\n      swap1\n      sload\n      swap1\n      0x0100\n      exp\n      swap1\n      div\n      0xffffffffffffffffffffffffffffffffffffffff\n      and\n      swap1\n      dup1\n      0x05\n      add\n      sload\n      swap1\n      dup1\n      0x06\n      add\n      0x00\n      swap1\n      sload\n      swap1\n      0x0100\n      exp\n      swap1\n      div\n      0xffffffffffffffffffffffffffffffffffffffff\n      and\n      swap1\n      pop\n      dup8\n      jump\t// out\n        /* \"@openzeppelin/contracts/access/Ownable.sol\":2293:2394  function renounceOwnership() public virtual onlyOwner {... */\n    tag_36:\n        /* \"@openzeppelin/contracts/access/Ownable.sol\":1531:1544  _checkOwner() */\n      tag_120\n        /* \"@openzeppelin/contracts/access/Ownable.sol\":1531:1542  _checkOwner */\n      tag_80\n        /* \"@openzeppelin/contracts/access/Ownable.sol\":1531:1544  _checkOwner() */\n      jump\t// in\n    tag_120:\n        /* \"@openzeppelin/contracts/access/Ownable.sol\":2357:2387  _transferOwnership(address(0)) */\n      tag_122\n        /* \"@openzeppelin/contracts/access/Ownable.sol\":2384:2385  0 */\n      0x00\n        /* \"@openzeppelin/contracts/access/Ownable.sol\":2357:2375  _transferOwnership */\n      tag_123\n        /* \"@openzeppelin/contracts/access/Ownable.sol\":2357:2387  _transferOwnership(address(0)) */\n      jump\t// in\n    tag_122:\n        /* \"@openzeppelin/contracts/access/Ownable.sol\":2293:2394  function renounceOwnership() public virtual onlyOwner {... */\n      jump\t// out\n        /* \"contracts/BusinessVault.sol\":2002:2441  function withdrawNative(uint256 _amount, string calldata _category) external onlyOwner nonReentrant {... */\n    tag_41:\n        /* \"@openzeppelin/contracts/access/Ownable.sol\":1531:1544  _checkOwner() */\n      tag_125\n        /* \"@openzeppelin/contracts/access/Ownable.sol\":1531:1542  _checkOwner */\n      tag_80\n        /* \"@openzeppelin/contracts/access/Ownable.sol\":1531:1544  _checkOwner() */\n      jump\t// in\n    tag_125:\n        /* \"@openzeppelin/contracts/utils/ReentrancyGuard.sol\":2500:2521  _nonReentrantBefore() */\n      tag_127\n        /* \"@openzeppelin/contracts/utils/ReentrancyGuard.sol\":2500:2519  _nonReentrantBefore */\n      tag_83\n        /* \"@openzeppelin/contracts/utils/ReentrancyGuard.sol\":2500:2521  _nonReentrantBefore() */\n      jump\t// in\n    tag_127:\n        /* \"contracts/BusinessVault.sol\":2145:2152  _amount */\n      dup3\n        /* \"contracts/BusinessVault.sol\":2120:2141  address(this).balance */\n      selfbalance\n        /* \"contracts/BusinessVault.sol\":2120:2152  address(this).balance >= _amount */\n      lt\n      iszero\n        /* \"contracts/BusinessVault.sol\":2112:2191  require(address(this).balance >= _amount, \"Vault: Insufficient native balance\") */\n      tag_129\n      jumpi\n      mload(0x40)\n      0x08c379a000000000000000000000000000000000000000000000000000000000\n      dup2\n      mstore\n      0x04\n      add\n      tag_130\n      swap1\n      tag_131\n      jump\t// in\n    tag_130:\n      mload(0x40)\n      dup1\n      swap2\n      sub\n      swap1\n      revert\n    tag_129:\n        /* \"contracts/BusinessVault.sol\":2223:2230  _amount */\n      dup3\n        /* \"contracts/BusinessVault.sol\":2201:2219  totalNativeExpense */\n      0x03\n      0x00\n        /* \"contracts/BusinessVault.sol\":2201:2230  totalNativeExpense += _amount */\n      dup3\n      dup3\n      sload\n      tag_132\n      swap2\n      swap1\n      tag_97\n      jump\t// in\n    tag_132:\n      swap3\n      pop\n      pop\n      dup2\n      swap1\n      sstore\n      pop\n        /* \"contracts/BusinessVault.sol\":2240:2303  _logTransaction(false, _category, address(0), _amount, owner()) */\n      tag_133\n        /* \"contracts/BusinessVault.sol\":2256:2261  false */\n      0x00\n        /* \"contracts/BusinessVault.sol\":2263:2272  _category */\n      dup4\n      dup4\n        /* \"contracts/BusinessVault.sol\":2240:2303  _logTransaction(false, _category, address(0), _amount, owner()) */\n      dup1\n      dup1\n      0x1f\n      add\n      0x20\n      dup1\n      swap2\n      div\n      mul\n      0x20\n      add\n      mload(0x40)\n      swap1\n      dup2\n      add\n      0x40\n      mstore\n      dup1\n      swap4\n      swap3\n      swap2\n      swap1\n      dup2\n      dup2\n      mstore\n      0x20\n      add\n      dup4\n      dup4\n      dup1\n      dup3\n      dup5\n      calldatacopy\n      0x00\n      dup2\n      dup5\n      add\n      mstore\n      not(0x1f)\n      0x1f\n      dup3\n      add\n      and\n      swap1\n      pop\n      dup1\n      dup4\n      add\n      swap3\n      pop\n      pop\n      pop\n      pop\n      pop\n      pop\n      pop\n        /* \"contracts/BusinessVault.sol\":2282:2283  0 */\n      0x00\n        /* \"contracts/BusinessVault.sol\":2286:2293  _amount */\n      dup7\n        /* \"contracts/BusinessVault.sol\":2295:2302  owner() */\n      tag_134\n        /* \"contracts/BusinessVault.sol\":2295:2300  owner */\n      tag_44\n        /* \"contracts/BusinessVault.sol\":2295:2302  owner() */\n      jump\t// in\n    tag_134:\n        /* \"contracts/BusinessVault.sol\":2240:2255  _logTransaction */\n      tag_100\n        /* \"contracts/BusinessVault.sol\":2240:2303  _logTransaction(false, _category, address(0), _amount, owner()) */\n      jump\t// in\n    tag_133:\n        /* \"contracts/BusinessVault.sol\":2314:2326  bool success */\n      0x00\n        /* \"contracts/BusinessVault.sol\":2340:2347  owner() */\n      tag_135\n        /* \"contracts/BusinessVault.sol\":2340:2345  owner */\n      tag_44\n        /* \"contracts/BusinessVault.sol\":2340:2347  owner() */\n      jump\t// in\n    tag_135:\n        /* \"contracts/BusinessVault.sol\":2332:2353  payable(owner()).call */\n      0xffffffffffffffffffffffffffffffffffffffff\n      and\n        /* \"contracts/BusinessVault.sol\":2361:2368  _amount */\n      dup5\n        /* \"contracts/BusinessVault.sol\":2332:2373  payable(owner()).call{value: _amount}(\"\") */\n      mload(0x40)\n      tag_136\n      swap1\n      tag_137\n      jump\t// in\n    tag_136:\n      0x00\n      mload(0x40)\n      dup1\n      dup4\n      sub\n      dup2\n      dup6\n      dup8\n      gas\n      call\n      swap3\n      pop\n      pop\n      pop\n      returndatasize\n      dup1\n      0x00\n      dup2\n      eq\n      tag_140\n      jumpi\n      mload(0x40)\n      swap2\n      pop\n      and(add(returndatasize, 0x3f), not(0x1f))\n      dup3\n      add\n      0x40\n      mstore\n      returndatasize\n      dup3\n      mstore\n      returndatasize\n      0x00\n      0x20\n      dup5\n      add\n      returndatacopy\n      jump(tag_139)\n    tag_140:\n      0x60\n      swap2\n      pop\n    tag_139:\n      pop\n        /* \"contracts/BusinessVault.sol\":2313:2373  (bool success, ) = payable(owner()).call{value: _amount}(\"\") */\n      pop\n      swap1\n      pop\n        /* \"contracts/BusinessVault.sol\":2391:2398  success */\n      dup1\n        /* \"contracts/BusinessVault.sol\":2383:2434  require(success, \"Vault: Native withdrawal failed\") */\n      tag_141\n      jumpi\n      mload(0x40)\n      0x08c379a000000000000000000000000000000000000000000000000000000000\n      dup2\n      mstore\n      0x04\n      add\n      tag_142\n      swap1\n      tag_143\n      jump\t// in\n    tag_142:\n      mload(0x40)\n      dup1\n      swap2\n      sub\n      swap1\n      revert\n    tag_141:\n        /* \"contracts/BusinessVault.sol\":2102:2441  {... */\n      pop\n        /* \"@openzeppelin/contracts/utils/ReentrancyGuard.sol\":2542:2562  _nonReentrantAfter() */\n      tag_144\n        /* \"@openzeppelin/contracts/utils/ReentrancyGuard.sol\":2542:2560  _nonReentrantAfter */\n      tag_109\n        /* \"@openzeppelin/contracts/utils/ReentrancyGuard.sol\":2542:2562  _nonReentrantAfter() */\n      jump\t// in\n    tag_144:\n        /* \"contracts/BusinessVault.sol\":2002:2441  function withdrawNative(uint256 _amount, string calldata _category) external onlyOwner nonReentrant {... */\n      pop\n      pop\n      pop\n      jump\t// out\n        /* \"@openzeppelin/contracts/access/Ownable.sol\":1638:1723  function owner() public view virtual returns (address) {... */\n    tag_44:\n        /* \"@openzeppelin/contracts/access/Ownable.sol\":1684:1691  address */\n      0x00\n        /* \"@openzeppelin/contracts/access/Ownable.sol\":1710:1716  _owner */\n      dup1\n      0x00\n      swap1\n      sload\n      swap1\n      0x0100\n      exp\n      swap1\n      div\n      0xffffffffffffffffffffffffffffffffffffffff\n      and\n        /* \"@openzeppelin/contracts/access/Ownable.sol\":1703:1716  return _owner */\n      swap1\n      pop\n        /* \"@openzeppelin/contracts/access/Ownable.sol\":1638:1723  function owner() public view virtual returns (address) {... */\n      swap1\n      jump\t// out\n        /* \"contracts/BusinessVault.sol\":1538:1961  function depositToken(address _tokenAddress, uint256 _amount, string calldata _category) external {... */\n    tag_50:\n        /* \"contracts/BusinessVault.sol\":1679:1680  0 */\n      0x00\n        /* \"contracts/BusinessVault.sol\":1654:1681  _tokenAddress != address(0) */\n      0xffffffffffffffffffffffffffffffffffffffff\n      and\n        /* \"contracts/BusinessVault.sol\":1654:1667  _tokenAddress */\n      dup5\n        /* \"contracts/BusinessVault.sol\":1654:1681  _tokenAddress != address(0) */\n      0xffffffffffffffffffffffffffffffffffffffff\n      and\n      sub\n        /* \"contracts/BusinessVault.sol\":1646:1714  require(_tokenAddress != address(0), \"Token address cannot be zero\") */\n      tag_147\n      jumpi\n      mload(0x40)\n      0x08c379a000000000000000000000000000000000000000000000000000000000\n      dup2\n      mstore\n      0x04\n      add\n      tag_148\n      swap1\n      tag_87\n      jump\t// in\n    tag_148:\n      mload(0x40)\n      dup1\n      swap2\n      sub\n      swap1\n      revert\n    tag_147:\n        /* \"contracts/BusinessVault.sol\":1724:1736  IERC20 token */\n      0x00\n        /* \"contracts/BusinessVault.sol\":1746:1759  _tokenAddress */\n      dup5\n        /* \"contracts/BusinessVault.sol\":1724:1760  IERC20 token = IERC20(_tokenAddress) */\n      swap1\n      pop\n        /* \"contracts/BusinessVault.sol\":1805:1812  _amount */\n      dup4\n        /* \"contracts/BusinessVault.sol\":1770:1786  totalTokenIncome */\n      0x04\n        /* \"contracts/BusinessVault.sol\":1770:1801  totalTokenIncome[_tokenAddress] */\n      0x00\n        /* \"contracts/BusinessVault.sol\":1787:1800  _tokenAddress */\n      dup8\n        /* \"contracts/BusinessVault.sol\":1770:1801  totalTokenIncome[_tokenAddress] */\n      0xffffffffffffffffffffffffffffffffffffffff\n      and\n      0xffffffffffffffffffffffffffffffffffffffff\n      and\n      dup2\n      mstore\n      0x20\n      add\n      swap1\n      dup2\n      mstore\n      0x20\n      add\n      0x00\n      keccak256\n      0x00\n        /* \"contracts/BusinessVault.sol\":1770:1812  totalTokenIncome[_tokenAddress] += _amount */\n      dup3\n      dup3\n      sload\n      tag_149\n      swap2\n      swap1\n      tag_97\n      jump\t// in\n    tag_149:\n      swap3\n      pop\n      pop\n      dup2\n      swap1\n      sstore\n      pop\n        /* \"contracts/BusinessVault.sol\":1822:1827  token */\n      dup1\n        /* \"contracts/BusinessVault.sol\":1822:1840  token.transferFrom */\n      0xffffffffffffffffffffffffffffffffffffffff\n      and\n      0x23b872dd\n        /* \"contracts/BusinessVault.sol\":1841:1851  msg.sender */\n      caller\n        /* \"contracts/BusinessVault.sol\":1861:1865  this */\n      address\n        /* \"contracts/BusinessVault.sol\":1868:1875  _amount */\n      dup8\n        /* \"contracts/BusinessVault.sol\":1822:1876  token.transferFrom(msg.sender, address(this), _amount) */\n      mload(0x40)\n      dup5\n      0xffffffff\n      and\n      0xe0\n      shl\n      dup2\n      mstore\n      0x04\n      add\n      tag_150\n      swap4\n      swap3\n      swap2\n      swap1\n      tag_151\n      jump\t// in\n    tag_150:\n      0x20\n      mload(0x40)\n      dup1\n      dup4\n      sub\n      dup2\n      0x00\n      dup8\n      gas\n      call\n      iszero\n      dup1\n      iszero\n      tag_153\n      jumpi\n      returndatasize\n      0x00\n      dup1\n      returndatacopy\n      revert(0x00, returndatasize)\n    tag_153:\n      pop\n      pop\n      pop\n      pop\n      mload(0x40)\n      returndatasize\n      not(0x1f)\n      0x1f\n      dup3\n      add\n      and\n      dup3\n      add\n      dup1\n      0x40\n      mstore\n      pop\n      dup2\n      add\n      swap1\n      tag_154\n      swap2\n      swap1\n      tag_107\n      jump\t// in\n    tag_154:\n      pop\n        /* \"contracts/BusinessVault.sol\":1886:1954  _logTransaction(true, _category, _tokenAddress, _amount, msg.sender) */\n      tag_155\n        /* \"contracts/BusinessVault.sol\":1902:1906  true */\n      0x01\n        /* \"contracts/BusinessVault.sol\":1908:1917  _category */\n      dup5\n      dup5\n        /* \"contracts/BusinessVault.sol\":1886:1954  _logTransaction(true, _category, _tokenAddress, _amount, msg.sender) */\n      dup1\n      dup1\n      0x1f\n      add\n      0x20\n      dup1\n      swap2\n      div\n      mul\n      0x20\n      add\n      mload(0x40)\n      swap1\n      dup2\n      add\n      0x40\n      mstore\n      dup1\n      swap4\n      swap3\n      swap2\n      swap1\n      dup2\n      dup2\n      mstore\n      0x20\n      add\n      dup4\n      dup4\n      dup1\n      dup3\n      dup5\n      calldatacopy\n      0x00\n      dup2\n      dup5\n      add\n      mstore\n      not(0x1f)\n      0x1f\n      dup3\n      add\n      and\n      swap1\n      pop\n      dup1\n      dup4\n      add\n      swap3\n      pop\n      pop\n      pop\n      pop\n      pop\n      pop\n      pop\n        /* \"contracts/BusinessVault.sol\":1919:1932  _tokenAddress */\n      dup8\n        /* \"contracts/BusinessVault.sol\":1934:1941  _amount */\n      dup8\n        /* \"contracts/BusinessVault.sol\":1943:1953  msg.sender */\n      caller\n        /* \"contracts/BusinessVault.sol\":1886:1901  _logTransaction */\n      tag_100\n        /* \"contracts/BusinessVault.sol\":1886:1954  _logTransaction(true, _category, _tokenAddress, _amount, msg.sender) */\n      jump\t// in\n    tag_155:\n        /* \"contracts/BusinessVault.sol\":1636:1961  {... */\n      pop\n        /* \"contracts/BusinessVault.sol\":1538:1961  function depositToken(address _tokenAddress, uint256 _amount, string calldata _category) external {... */\n      pop\n      pop\n      pop\n      pop\n      jump\t// out\n        /* \"contracts/BusinessVault.sol\":653:704  mapping(address => uint256) public totalTokenIncome */\n    tag_55:\n      mstore(0x20, 0x04)\n      dup1\n      0x00\n      mstore\n      keccak256(0x00, 0x40)\n      0x00\n      swap2\n      pop\n      swap1\n      pop\n      sload\n      dup2\n      jump\t// out\n        /* \"contracts/BusinessVault.sol\":1245:1528  function depositNative(string calldata _category) external payable {... */\n    tag_60:\n        /* \"contracts/BusinessVault.sol\":1322:1333  uint amount */\n      0x00\n        /* \"contracts/BusinessVault.sol\":1336:1345  msg.value */\n      callvalue\n        /* \"contracts/BusinessVault.sol\":1322:1345  uint amount = msg.value */\n      swap1\n      pop\n        /* \"contracts/BusinessVault.sol\":1372:1373  0 */\n      0x00\n        /* \"contracts/BusinessVault.sol\":1363:1369  amount */\n      dup2\n        /* \"contracts/BusinessVault.sol\":1363:1373  amount > 0 */\n      gt\n        /* \"contracts/BusinessVault.sol\":1355:1410  require(amount > 0, \"Amount must be greater than zero\") */\n      tag_157\n      jumpi\n      mload(0x40)\n      0x08c379a000000000000000000000000000000000000000000000000000000000\n      dup2\n      mstore\n      0x04\n      add\n      tag_158\n      swap1\n      tag_159\n      jump\t// in\n    tag_158:\n      mload(0x40)\n      dup1\n      swap2\n      sub\n      swap1\n      revert\n    tag_157:\n        /* \"contracts/BusinessVault.sol\":1441:1447  amount */\n      dup1\n        /* \"contracts/BusinessVault.sol\":1420:1437  totalNativeIncome */\n      0x02\n      0x00\n        /* \"contracts/BusinessVault.sol\":1420:1447  totalNativeIncome += amount */\n      dup3\n      dup3\n      sload\n      tag_160\n      swap2\n      swap1\n      tag_97\n      jump\t// in\n    tag_160:\n      swap3\n      pop\n      pop\n      dup2\n      swap1\n      sstore\n      pop\n        /* \"contracts/BusinessVault.sol\":1457:1521  _logTransaction(true, _category, address(0), amount, msg.sender) */\n      tag_161\n        /* \"contracts/BusinessVault.sol\":1473:1477  true */\n      0x01\n        /* \"contracts/BusinessVault.sol\":1479:1488  _category */\n      dup5\n      dup5\n        /* \"contracts/BusinessVault.sol\":1457:1521  _logTransaction(true, _category, address(0), amount, msg.sender) */\n      dup1\n      dup1\n      0x1f\n      add\n      0x20\n      dup1\n      swap2\n      div\n      mul\n      0x20\n      add\n      mload(0x40)\n      swap1\n      dup2\n      add\n      0x40\n      mstore\n      dup1\n      swap4\n      swap3\n      swap2\n      swap1\n      dup2\n      dup2\n      mstore\n      0x20\n      add\n      dup4\n      dup4\n      dup1\n      dup3\n      dup5\n      calldatacopy\n      0x00\n      dup2\n      dup5\n      add\n      mstore\n      not(0x1f)\n      0x1f\n      dup3\n      add\n      and\n      swap1\n      pop\n      dup1\n      dup4\n      add\n      swap3\n      pop\n      pop\n      pop\n      pop\n      pop\n      pop\n      pop\n        /* \"contracts/BusinessVault.sol\":1498:1499  0 */\n      0x00\n        /* \"contracts/BusinessVault.sol\":1502:1508  amount */\n      dup5\n        /* \"contracts/BusinessVault.sol\":1510:1520  msg.sender */\n      caller\n        /* \"contracts/BusinessVault.sol\":1457:1472  _logTransaction */\n      tag_100\n        /* \"contracts/BusinessVault.sol\":1457:1521  _logTransaction(true, _category, address(0), amount, msg.sender) */\n      jump\t// in\n    tag_161:\n        /* \"contracts/BusinessVault.sol\":1312:1528  {... */\n      pop\n        /* \"contracts/BusinessVault.sol\":1245:1528  function depositNative(string calldata _category) external payable {... */\n      pop\n      pop\n      jump\t// out\n        /* \"contracts/BusinessVault.sol\":576:608  uint256 public totalNativeIncome */\n    tag_63:\n      sload(0x02)\n      dup2\n      jump\t// out\n        /* \"contracts/BusinessVault.sol\":614:647  uint256 public totalNativeExpense */\n    tag_67:\n      sload(0x03)\n      dup2\n      jump\t// out\n        /* \"contracts/BusinessVault.sol\":710:762  mapping(address => uint256) public totalTokenExpense */\n    tag_72:\n      mstore(0x20, 0x05)\n      dup1\n      0x00\n      mstore\n      keccak256(0x00, 0x40)\n      0x00\n      swap2\n      pop\n      swap1\n      pop\n      sload\n      dup2\n      jump\t// out\n        /* \"@openzeppelin/contracts/access/Ownable.sol\":2543:2758  function transferOwnership(address newOwner) public virtual onlyOwner {... */\n    tag_77:\n        /* \"@openzeppelin/contracts/access/Ownable.sol\":1531:1544  _checkOwner() */\n      tag_163\n        /* \"@openzeppelin/contracts/access/Ownable.sol\":1531:1542  _checkOwner */\n      tag_80\n        /* \"@openzeppelin/contracts/access/Ownable.sol\":1531:1544  _checkOwner() */\n      jump\t// in\n    tag_163:\n        /* \"@openzeppelin/contracts/access/Ownable.sol\":2647:2648  0 */\n      0x00\n        /* \"@openzeppelin/contracts/access/Ownable.sol\":2627:2649  newOwner == address(0) */\n      0xffffffffffffffffffffffffffffffffffffffff\n      and\n        /* \"@openzeppelin/contracts/access/Ownable.sol\":2627:2635  newOwner */\n      dup2\n        /* \"@openzeppelin/contracts/access/Ownable.sol\":2627:2649  newOwner == address(0) */\n      0xffffffffffffffffffffffffffffffffffffffff\n      and\n      sub\n        /* \"@openzeppelin/contracts/access/Ownable.sol\":2623:2714  if (newOwner == address(0)) {... */\n      tag_165\n      jumpi\n        /* \"@openzeppelin/contracts/access/Ownable.sol\":2700:2701  0 */\n      0x00\n        /* \"@openzeppelin/contracts/access/Ownable.sol\":2672:2703  OwnableInvalidOwner(address(0)) */\n      mload(0x40)\n      0x1e4fbdf700000000000000000000000000000000000000000000000000000000\n      dup2\n      mstore\n      0x04\n      add\n      tag_166\n      swap2\n      swap1\n      tag_46\n      jump\t// in\n    tag_166:\n      mload(0x40)\n      dup1\n      swap2\n      sub\n      swap1\n      revert\n        /* \"@openzeppelin/contracts/access/Ownable.sol\":2623:2714  if (newOwner == address(0)) {... */\n    tag_165:\n        /* \"@openzeppelin/contracts/access/Ownable.sol\":2723:2751  _transferOwnership(newOwner) */\n      tag_167\n        /* \"@openzeppelin/contracts/access/Ownable.sol\":2742:2750  newOwner */\n      dup2\n        /* \"@openzeppelin/contracts/access/Ownable.sol\":2723:2741  _transferOwnership */\n      tag_123\n        /* \"@openzeppelin/contracts/access/Ownable.sol\":2723:2751  _transferOwnership(newOwner) */\n      jump\t// in\n    tag_167:\n        /* \"@openzeppelin/contracts/access/Ownable.sol\":2543:2758  function transferOwnership(address newOwner) public virtual onlyOwner {... */\n      pop\n      jump\t// out\n        /* \"@openzeppelin/contracts/access/Ownable.sol\":1796:1958  function _checkOwner() internal view virtual {... */\n    tag_80:\n        /* \"@openzeppelin/contracts/access/Ownable.sol\":1866:1878  _msgSender() */\n      tag_169\n        /* \"@openzeppelin/contracts/access/Ownable.sol\":1866:1876  _msgSender */\n      tag_170\n        /* \"@openzeppelin/contracts/access/Ownable.sol\":1866:1878  _msgSender() */\n      jump\t// in\n    tag_169:\n        /* \"@openzeppelin/contracts/access/Ownable.sol\":1855:1878  owner() != _msgSender() */\n      0xffffffffffffffffffffffffffffffffffffffff\n      and\n        /* \"@openzeppelin/contracts/access/Ownable.sol\":1855:1862  owner() */\n      tag_171\n        /* \"@openzeppelin/contracts/access/Ownable.sol\":1855:1860  owner */\n      tag_44\n        /* \"@openzeppelin/contracts/access/Ownable.sol\":1855:1862  owner() */\n      jump\t// in\n    tag_171:\n        /* \"@openzeppelin/contracts/access/Ownable.sol\":1855:1878  owner() != _msgSender() */\n      0xffffffffffffffffffffffffffffffffffffffff\n      and\n      eq\n        /* \"@openzeppelin/contracts/access/Ownable.sol\":1851:1952  if (owner() != _msgSender()) {... */\n      tag_172\n      jumpi\n        /* \"@openzeppelin/contracts/access/Ownable.sol\":1928:1940  _msgSender() */\n      tag_173\n        /* \"@openzeppelin/contracts/access/Ownable.sol\":1928:1938  _msgSender */\n      tag_170\n        /* \"@openzeppelin/contracts/access/Ownable.sol\":1928:1940  _msgSender() */\n      jump\t// in\n    tag_173:\n        /* \"@openzeppelin/contracts/access/Ownable.sol\":1901:1941  OwnableUnauthorizedAccount(_msgSender()) */\n      mload(0x40)\n      0x118cdaa700000000000000000000000000000000000000000000000000000000\n      dup2\n      mstore\n      0x04\n      add\n      tag_174\n      swap2\n      swap1\n      tag_46\n      jump\t// in\n    tag_174:\n      mload(0x40)\n      dup1\n      swap2\n      sub\n      swap1\n      revert\n        /* \"@openzeppelin/contracts/access/Ownable.sol\":1851:1952  if (owner() != _msgSender()) {... */\n    tag_172:\n        /* \"@openzeppelin/contracts/access/Ownable.sol\":1796:1958  function _checkOwner() internal view virtual {... */\n      jump\t// out\n        /* \"@openzeppelin/contracts/utils/ReentrancyGuard.sol\":2575:2882  function _nonReentrantBefore() private {... */\n    tag_83:\n        /* \"@openzeppelin/contracts/utils/ReentrancyGuard.sol\":1899:1900  2 */\n      0x02\n        /* \"@openzeppelin/contracts/utils/ReentrancyGuard.sol\":2702:2709  _status */\n      sload(0x01)\n        /* \"@openzeppelin/contracts/utils/ReentrancyGuard.sol\":2702:2720  _status == ENTERED */\n      sub\n        /* \"@openzeppelin/contracts/utils/ReentrancyGuard.sol\":2698:2784  if (_status == ENTERED) {... */\n      tag_176\n      jumpi\n        /* \"@openzeppelin/contracts/utils/ReentrancyGuard.sol\":2743:2773  ReentrancyGuardReentrantCall() */\n      mload(0x40)\n      0x3ee5aeb500000000000000000000000000000000000000000000000000000000\n      dup2\n      mstore\n      0x04\n      add\n      mload(0x40)\n      dup1\n      swap2\n      sub\n      swap1\n      revert\n        /* \"@openzeppelin/contracts/utils/ReentrancyGuard.sol\":2698:2784  if (_status == ENTERED) {... */\n    tag_176:\n        /* \"@openzeppelin/contracts/utils/ReentrancyGuard.sol\":1899:1900  2 */\n      0x02\n        /* \"@openzeppelin/contracts/utils/ReentrancyGuard.sol\":2858:2865  _status */\n      0x01\n        /* \"@openzeppelin/contracts/utils/ReentrancyGuard.sol\":2858:2875  _status = ENTERED */\n      dup2\n      swap1\n      sstore\n      pop\n        /* \"@openzeppelin/contracts/utils/ReentrancyGuard.sol\":2575:2882  function _nonReentrantBefore() private {... */\n      jump\t// out\n        /* \"contracts/BusinessVault.sol\":3026:3666  function _logTransaction(bool _isIncome, string memory _category, address _tokenAddress, uint256 _amount, address _actor) private {... */\n    tag_100:\n        /* \"contracts/BusinessVault.sol\":3166:3175  uint txId */\n      0x00\n        /* \"contracts/BusinessVault.sol\":3178:3192  transactionLog */\n      0x06\n        /* \"contracts/BusinessVault.sol\":3178:3199  transactionLog.length */\n      dup1\n      sload\n      swap1\n      pop\n        /* \"contracts/BusinessVault.sol\":3166:3199  uint txId = transactionLog.length */\n      swap1\n      pop\n        /* \"contracts/BusinessVault.sol\":3209:3223  transactionLog */\n      0x06\n        /* \"contracts/BusinessVault.sol\":3229:3477  Transaction({... */\n      mload(0x40)\n      dup1\n      0xe0\n      add\n      0x40\n      mstore\n      dup1\n        /* \"contracts/BusinessVault.sol\":3259:3263  txId */\n      dup4\n        /* \"contracts/BusinessVault.sol\":3229:3477  Transaction({... */\n      dup2\n      mstore\n      0x20\n      add\n        /* \"contracts/BusinessVault.sol\":3288:3303  block.timestamp */\n      timestamp\n        /* \"contracts/BusinessVault.sol\":3229:3477  Transaction({... */\n      dup2\n      mstore\n      0x20\n      add\n        /* \"contracts/BusinessVault.sol\":3327:3336  _isIncome */\n      dup9\n        /* \"contracts/BusinessVault.sol\":3229:3477  Transaction({... */\n      iszero\n      iszero\n      dup2\n      mstore\n      0x20\n      add\n        /* \"contracts/BusinessVault.sol\":3360:3369  _category */\n      dup8\n        /* \"contracts/BusinessVault.sol\":3229:3477  Transaction({... */\n      dup2\n      mstore\n      0x20\n      add\n        /* \"contracts/BusinessVault.sol\":3397:3410  _tokenAddress */\n      dup7\n        /* \"contracts/BusinessVault.sol\":3229:3477  Transaction({... */\n      0xffffffffffffffffffffffffffffffffffffffff\n      and\n      dup2\n      mstore\n      0x20\n      add\n        /* \"contracts/BusinessVault.sol\":3432:3439  _amount */\n      dup6\n        /* \"contracts/BusinessVault.sol\":3229:3477  Transaction({... */\n      dup2\n      mstore\n      0x20\n      add\n        /* \"contracts/BusinessVault.sol\":3460:3466  _actor */\n      dup5\n        /* \"contracts/BusinessVault.sol\":3229:3477  Transaction({... */\n      0xffffffffffffffffffffffffffffffffffffffff\n      and\n      dup2\n      mstore\n      pop\n        /* \"contracts/BusinessVault.sol\":3209:3478  transactionLog.push(Transaction({... */\n      swap1\n      dup1\n      0x01\n      dup2\n      sload\n      add\n      dup1\n      dup3\n      sstore\n      dup1\n      swap2\n      pop\n      pop\n      0x01\n      swap1\n      sub\n      swap1\n      0x00\n      mstore\n      keccak256(0x00, 0x20)\n      swap1\n      0x07\n      mul\n      add\n      0x00\n      swap1\n      swap2\n      swap1\n      swap2\n      swap1\n      swap2\n      pop\n      0x00\n      dup3\n      add\n      mload\n      dup2\n      0x00\n      add\n      sstore\n      0x20\n      dup3\n      add\n      mload\n      dup2\n      0x01\n      add\n      sstore\n      0x40\n      dup3\n      add\n      mload\n      dup2\n      0x02\n      add\n      exp(0x0100, 0x00)\n      dup2\n      sload\n      dup2\n      0xff\n      mul\n      not\n      and\n      swap1\n      dup4\n      iszero\n      iszero\n      mul\n      or\n      swap1\n      sstore\n      pop\n      0x60\n      dup3\n      add\n      mload\n      dup2\n      0x03\n      add\n      swap1\n      dup2\n      tag_179\n      swap2\n      swap1\n      tag_180\n      jump\t// in\n    tag_179:\n      pop\n      0x80\n      dup3\n      add\n      mload\n      dup2\n      0x04\n      add\n      exp(0x0100, 0x00)\n      dup2\n      sload\n      dup2\n      0xffffffffffffffffffffffffffffffffffffffff\n      mul\n      not\n      and\n      swap1\n      dup4\n      0xffffffffffffffffffffffffffffffffffffffff\n      and\n      mul\n      or\n      swap1\n      sstore\n      pop\n      0xa0\n      dup3\n      add\n      mload\n      dup2\n      0x05\n      add\n      sstore\n      0xc0\n      dup3\n      add\n      mload\n      dup2\n      0x06\n      add\n      exp(0x0100, 0x00)\n      dup2\n      sload\n      dup2\n      0xffffffffffffffffffffffffffffffffffffffff\n      mul\n      not\n      and\n      swap1\n      dup4\n      0xffffffffffffffffffffffffffffffffffffffff\n      and\n      mul\n      or\n      swap1\n      sstore\n      pop\n      pop\n      pop\n        /* \"contracts/BusinessVault.sol\":3652:3658  _actor */\n      dup2\n        /* \"contracts/BusinessVault.sol\":3563:3659  TransactionRecorded(txId, block.timestamp, _isIncome, _category, _tokenAddress, _amount, _actor) */\n      0xffffffffffffffffffffffffffffffffffffffff\n      and\n        /* \"contracts/BusinessVault.sol\":3628:3641  _tokenAddress */\n      dup5\n        /* \"contracts/BusinessVault.sol\":3563:3659  TransactionRecorded(txId, block.timestamp, _isIncome, _category, _tokenAddress, _amount, _actor) */\n      0xffffffffffffffffffffffffffffffffffffffff\n      and\n        /* \"contracts/BusinessVault.sol\":3583:3587  txId */\n      dup3\n        /* \"contracts/BusinessVault.sol\":3563:3659  TransactionRecorded(txId, block.timestamp, _isIncome, _category, _tokenAddress, _amount, _actor) */\n      0xb52b838555667685db79a43c16fe0866bca183c4b03b64f79e4eebe9e0ca0c50\n        /* \"contracts/BusinessVault.sol\":3589:3604  block.timestamp */\n      timestamp\n        /* \"contracts/BusinessVault.sol\":3606:3615  _isIncome */\n      dup11\n        /* \"contracts/BusinessVault.sol\":3617:3626  _category */\n      dup11\n        /* \"contracts/BusinessVault.sol\":3643:3650  _amount */\n      dup10\n        /* \"contracts/BusinessVault.sol\":3563:3659  TransactionRecorded(txId, block.timestamp, _isIncome, _category, _tokenAddress, _amount, _actor) */\n      mload(0x40)\n      tag_181\n      swap5\n      swap4\n      swap3\n      swap2\n      swap1\n      tag_182\n      jump\t// in\n    tag_181:\n      mload(0x40)\n      dup1\n      swap2\n      sub\n      swap1\n      log4\n        /* \"contracts/BusinessVault.sol\":3156:3666  {... */\n      pop\n        /* \"contracts/BusinessVault.sol\":3026:3666  function _logTransaction(bool _isIncome, string memory _category, address _tokenAddress, uint256 _amount, address _actor) private {... */\n      pop\n      pop\n      pop\n      pop\n      pop\n      jump\t// out\n        /* \"@openzeppelin/contracts/utils/ReentrancyGuard.sol\":2888:3096  function _nonReentrantAfter() private {... */\n    tag_109:\n        /* \"@openzeppelin/contracts/utils/ReentrancyGuard.sol\":1857:1858  1 */\n      0x01\n        /* \"@openzeppelin/contracts/utils/ReentrancyGuard.sol\":3068:3075  _status */\n      dup1\n        /* \"@openzeppelin/contracts/utils/ReentrancyGuard.sol\":3068:3089  _status = NOT_ENTERED */\n      dup2\n      swap1\n      sstore\n      pop\n        /* \"@openzeppelin/contracts/utils/ReentrancyGuard.sol\":2888:3096  function _nonReentrantAfter() private {... */\n      jump\t// out\n        /* \"@openzeppelin/contracts/access/Ownable.sol\":2912:3099  function _transferOwnership(address newOwner) internal virtual {... */\n    tag_123:\n        /* \"@openzeppelin/contracts/access/Ownable.sol\":2985:3001  address oldOwner */\n      0x00\n        /* \"@openzeppelin/contracts/access/Ownable.sol\":3004:3010  _owner */\n      dup1\n      0x00\n      swap1\n      sload\n      swap1\n      0x0100\n      exp\n      swap1\n      div\n      0xffffffffffffffffffffffffffffffffffffffff\n      and\n        /* \"@openzeppelin/contracts/access/Ownable.sol\":2985:3010  address oldOwner = _owner */\n      swap1\n      pop\n        /* \"@openzeppelin/contracts/access/Ownable.sol\":3029:3037  newOwner */\n      dup2\n        /* \"@openzeppelin/contracts/access/Ownable.sol\":3020:3026  _owner */\n      0x00\n      dup1\n        /* \"@openzeppelin/contracts/access/Ownable.sol\":3020:3037  _owner = newOwner */\n      0x0100\n      exp\n      dup2\n      sload\n      dup2\n      0xffffffffffffffffffffffffffffffffffffffff\n      mul\n      not\n      and\n      swap1\n      dup4\n      0xffffffffffffffffffffffffffffffffffffffff\n      and\n      mul\n      or\n      swap1\n      sstore\n      pop\n        /* \"@openzeppelin/contracts/access/Ownable.sol\":3083:3091  newOwner */\n      dup2\n        /* \"@openzeppelin/contracts/access/Ownable.sol\":3052:3092  OwnershipTransferred(oldOwner, newOwner) */\n      0xffffffffffffffffffffffffffffffffffffffff\n      and\n        /* \"@openzeppelin/contracts/access/Ownable.sol\":3073:3081  oldOwner */\n      dup2\n        /* \"@openzeppelin/contracts/access/Ownable.sol\":3052:3092  OwnershipTransferred(oldOwner, newOwner) */\n      0xffffffffffffffffffffffffffffffffffffffff\n      and\n      0x8be0079c531659141344cd1fd0a4f28419497f9722a3daafe3b4186f6b6457e0\n      mload(0x40)\n      mload(0x40)\n      dup1\n      swap2\n      sub\n      swap1\n      log3\n        /* \"@openzeppelin/contracts/access/Ownable.sol\":2975:3099  {... */\n      pop\n        /* \"@openzeppelin/contracts/access/Ownable.sol\":2912:3099  function _transferOwnership(address newOwner) internal virtual {... */\n      pop\n      jump\t// out\n        /* \"@openzeppelin/contracts/utils/Context.sol\":656:752  function _msgSender() internal view virtual returns (address) {... */\n    tag_170:\n        /* \"@openzeppelin/contracts/utils/Context.sol\":709:716  address */\n      0x00\n        /* \"@openzeppelin/contracts/utils/Context.sol\":735:745  msg.sender */\n      caller\n        /* \"@openzeppelin/contracts/utils/Context.sol\":728:745  return msg.sender */\n      swap1\n      pop\n        /* \"@openzeppelin/contracts/utils/Context.sol\":656:752  function _msgSender() internal view virtual returns (address) {... */\n      swap1\n      jump\t// out\n        /* \"#utility.yul\":88:205   */\n    tag_187:\n        /* \"#utility.yul\":197:198   */\n      0x00\n        /* \"#utility.yul\":194:195   */\n      dup1\n        /* \"#utility.yul\":187:199   */\n      revert\n        /* \"#utility.yul\":211:328   */\n    tag_188:\n        /* \"#utility.yul\":320:321   */\n      0x00\n        /* \"#utility.yul\":317:318   */\n      dup1\n        /* \"#utility.yul\":310:322   */\n      revert\n        /* \"#utility.yul\":334:460   */\n    tag_189:\n        /* \"#utility.yul\":371:378   */\n      0x00\n        /* \"#utility.yul\":411:453   */\n      0xffffffffffffffffffffffffffffffffffffffff\n        /* \"#utility.yul\":404:409   */\n      dup3\n        /* \"#utility.yul\":400:454   */\n      and\n        /* \"#utility.yul\":389:454   */\n      swap1\n      pop\n        /* \"#utility.yul\":334:460   */\n      swap2\n      swap1\n      pop\n      jump\t// out\n        /* \"#utility.yul\":466:562   */\n    tag_190:\n        /* \"#utility.yul\":503:510   */\n      0x00\n        /* \"#utility.yul\":532:556   */\n      tag_249\n        /* \"#utility.yul\":550:555   */\n      dup3\n        /* \"#utility.yul\":532:556   */\n      tag_189\n      jump\t// in\n    tag_249:\n        /* \"#utility.yul\":521:556   */\n      swap1\n      pop\n        /* \"#utility.yul\":466:562   */\n      swap2\n      swap1\n      pop\n      jump\t// out\n        /* \"#utility.yul\":568:690   */\n    tag_191:\n        /* \"#utility.yul\":641:665   */\n      tag_251\n        /* \"#utility.yul\":659:664   */\n      dup2\n        /* \"#utility.yul\":641:665   */\n      tag_190\n      jump\t// in\n    tag_251:\n        /* \"#utility.yul\":634:639   */\n      dup2\n        /* \"#utility.yul\":631:666   */\n      eq\n        /* \"#utility.yul\":621:684   */\n      tag_252\n      jumpi\n        /* \"#utility.yul\":680:681   */\n      0x00\n        /* \"#utility.yul\":677:678   */\n      dup1\n        /* \"#utility.yul\":670:682   */\n      revert\n        /* \"#utility.yul\":621:684   */\n    tag_252:\n        /* \"#utility.yul\":568:690   */\n      pop\n      jump\t// out\n        /* \"#utility.yul\":696:835   */\n    tag_192:\n        /* \"#utility.yul\":742:747   */\n      0x00\n        /* \"#utility.yul\":780:786   */\n      dup2\n        /* \"#utility.yul\":767:787   */\n      calldataload\n        /* \"#utility.yul\":758:787   */\n      swap1\n      pop\n        /* \"#utility.yul\":796:829   */\n      tag_254\n        /* \"#utility.yul\":823:828   */\n      dup2\n        /* \"#utility.yul\":796:829   */\n      tag_191\n      jump\t// in\n    tag_254:\n        /* \"#utility.yul\":696:835   */\n      swap3\n      swap2\n      pop\n      pop\n      jump\t// out\n        /* \"#utility.yul\":841:918   */\n    tag_193:\n        /* \"#utility.yul\":878:885   */\n      0x00\n        /* \"#utility.yul\":907:912   */\n      dup2\n        /* \"#utility.yul\":896:912   */\n      swap1\n      pop\n        /* \"#utility.yul\":841:918   */\n      swap2\n      swap1\n      pop\n      jump\t// out\n        /* \"#utility.yul\":924:1046   */\n    tag_194:\n        /* \"#utility.yul\":997:1021   */\n      tag_257\n        /* \"#utility.yul\":1015:1020   */\n      dup2\n        /* \"#utility.yul\":997:1021   */\n      tag_193\n      jump\t// in\n    tag_257:\n        /* \"#utility.yul\":990:995   */\n      dup2\n        /* \"#utility.yul\":987:1022   */\n      eq\n        /* \"#utility.yul\":977:1040   */\n      tag_258\n      jumpi\n        /* \"#utility.yul\":1036:1037   */\n      0x00\n        /* \"#utility.yul\":1033:1034   */\n      dup1\n        /* \"#utility.yul\":1026:1038   */\n      revert\n        /* \"#utility.yul\":977:1040   */\n    tag_258:\n        /* \"#utility.yul\":924:1046   */\n      pop\n      jump\t// out\n        /* \"#utility.yul\":1052:1191   */\n    tag_195:\n        /* \"#utility.yul\":1098:1103   */\n      0x00\n        /* \"#utility.yul\":1136:1142   */\n      dup2\n        /* \"#utility.yul\":1123:1143   */\n      calldataload\n        /* \"#utility.yul\":1114:1143   */\n      swap1\n      pop\n        /* \"#utility.yul\":1152:1185   */\n      tag_260\n        /* \"#utility.yul\":1179:1184   */\n      dup2\n        /* \"#utility.yul\":1152:1185   */\n      tag_194\n      jump\t// in\n    tag_260:\n        /* \"#utility.yul\":1052:1191   */\n      swap3\n      swap2\n      pop\n      pop\n      jump\t// out\n        /* \"#utility.yul\":1197:1314   */\n    tag_196:\n        /* \"#utility.yul\":1306:1307   */\n      0x00\n        /* \"#utility.yul\":1303:1304   */\n      dup1\n        /* \"#utility.yul\":1296:1308   */\n      revert\n        /* \"#utility.yul\":1320:1437   */\n    tag_197:\n        /* \"#utility.yul\":1429:1430   */\n      0x00\n        /* \"#utility.yul\":1426:1427   */\n      dup1\n        /* \"#utility.yul\":1419:1431   */\n      revert\n        /* \"#utility.yul\":1443:1560   */\n    tag_198:\n        /* \"#utility.yul\":1552:1553   */\n      0x00\n        /* \"#utility.yul\":1549:1550   */\n      dup1\n        /* \"#utility.yul\":1542:1554   */\n      revert\n        /* \"#utility.yul\":1580:2133   */\n    tag_199:\n        /* \"#utility.yul\":1638:1646   */\n      0x00\n        /* \"#utility.yul\":1648:1654   */\n      dup1\n        /* \"#utility.yul\":1698:1701   */\n      dup4\n        /* \"#utility.yul\":1691:1695   */\n      0x1f\n        /* \"#utility.yul\":1683:1689   */\n      dup5\n        /* \"#utility.yul\":1679:1696   */\n      add\n        /* \"#utility.yul\":1675:1702   */\n      slt\n        /* \"#utility.yul\":1665:1787   */\n      tag_265\n      jumpi\n        /* \"#utility.yul\":1706:1785   */\n      tag_266\n      tag_196\n      jump\t// in\n    tag_266:\n        /* \"#utility.yul\":1665:1787   */\n    tag_265:\n        /* \"#utility.yul\":1819:1825   */\n      dup3\n        /* \"#utility.yul\":1806:1826   */\n      calldataload\n        /* \"#utility.yul\":1796:1826   */\n      swap1\n      pop\n        /* \"#utility.yul\":1849:1867   */\n      0xffffffffffffffff\n        /* \"#utility.yul\":1841:1847   */\n      dup2\n        /* \"#utility.yul\":1838:1868   */\n      gt\n        /* \"#utility.yul\":1835:1952   */\n      iszero\n      tag_267\n      jumpi\n        /* \"#utility.yul\":1871:1950   */\n      tag_268\n      tag_197\n      jump\t// in\n    tag_268:\n        /* \"#utility.yul\":1835:1952   */\n    tag_267:\n        /* \"#utility.yul\":1985:1989   */\n      0x20\n        /* \"#utility.yul\":1977:1983   */\n      dup4\n        /* \"#utility.yul\":1973:1990   */\n      add\n        /* \"#utility.yul\":1961:1990   */\n      swap2\n      pop\n        /* \"#utility.yul\":2039:2042   */\n      dup4\n        /* \"#utility.yul\":2031:2035   */\n      0x01\n        /* \"#utility.yul\":2023:2029   */\n      dup3\n        /* \"#utility.yul\":2019:2036   */\n      mul\n        /* \"#utility.yul\":2009:2017   */\n      dup4\n        /* \"#utility.yul\":2005:2037   */\n      add\n        /* \"#utility.yul\":2002:2043   */\n      gt\n        /* \"#utility.yul\":1999:2127   */\n      iszero\n      tag_269\n      jumpi\n        /* \"#utility.yul\":2046:2125   */\n      tag_270\n      tag_198\n      jump\t// in\n    tag_270:\n        /* \"#utility.yul\":1999:2127   */\n    tag_269:\n        /* \"#utility.yul\":1580:2133   */\n      swap3\n      pop\n      swap3\n      swap1\n      pop\n      jump\t// out\n        /* \"#utility.yul\":2139:2958   */\n    tag_20:\n        /* \"#utility.yul\":2228:2234   */\n      0x00\n        /* \"#utility.yul\":2236:2242   */\n      dup1\n        /* \"#utility.yul\":2244:2250   */\n      0x00\n        /* \"#utility.yul\":2252:2258   */\n      dup1\n        /* \"#utility.yul\":2301:2303   */\n      0x60\n        /* \"#utility.yul\":2289:2298   */\n      dup6\n        /* \"#utility.yul\":2280:2287   */\n      dup8\n        /* \"#utility.yul\":2276:2299   */\n      sub\n        /* \"#utility.yul\":2272:2304   */\n      slt\n        /* \"#utility.yul\":2269:2388   */\n      iszero\n      tag_272\n      jumpi\n        /* \"#utility.yul\":2307:2386   */\n      tag_273\n      tag_187\n      jump\t// in\n    tag_273:\n        /* \"#utility.yul\":2269:2388   */\n    tag_272:\n        /* \"#utility.yul\":2427:2428   */\n      0x00\n        /* \"#utility.yul\":2452:2505   */\n      tag_274\n        /* \"#utility.yul\":2497:2504   */\n      dup8\n        /* \"#utility.yul\":2488:2494   */\n      dup3\n        /* \"#utility.yul\":2477:2486   */\n      dup9\n        /* \"#utility.yul\":2473:2495   */\n      add\n        /* \"#utility.yul\":2452:2505   */\n      tag_192\n      jump\t// in\n    tag_274:\n        /* \"#utility.yul\":2442:2505   */\n      swap5\n      pop\n        /* \"#utility.yul\":2398:2515   */\n      pop\n        /* \"#utility.yul\":2554:2556   */\n      0x20\n        /* \"#utility.yul\":2580:2633   */\n      tag_275\n        /* \"#utility.yul\":2625:2632   */\n      dup8\n        /* \"#utility.yul\":2616:2622   */\n      dup3\n        /* \"#utility.yul\":2605:2614   */\n      dup9\n        /* \"#utility.yul\":2601:2623   */\n      add\n        /* \"#utility.yul\":2580:2633   */\n      tag_195\n      jump\t// in\n    tag_275:\n        /* \"#utility.yul\":2570:2633   */\n      swap4\n      pop\n        /* \"#utility.yul\":2525:2643   */\n      pop\n        /* \"#utility.yul\":2710:2712   */\n      0x40\n        /* \"#utility.yul\":2699:2708   */\n      dup6\n        /* \"#utility.yul\":2695:2713   */\n      add\n        /* \"#utility.yul\":2682:2714   */\n      calldataload\n        /* \"#utility.yul\":2741:2759   */\n      0xffffffffffffffff\n        /* \"#utility.yul\":2733:2739   */\n      dup2\n        /* \"#utility.yul\":2730:2760   */\n      gt\n        /* \"#utility.yul\":2727:2844   */\n      iszero\n      tag_276\n      jumpi\n        /* \"#utility.yul\":2763:2842   */\n      tag_277\n      tag_188\n      jump\t// in\n    tag_277:\n        /* \"#utility.yul\":2727:2844   */\n    tag_276:\n        /* \"#utility.yul\":2876:2941   */\n      tag_278\n        /* \"#utility.yul\":2933:2940   */\n      dup8\n        /* \"#utility.yul\":2924:2930   */\n      dup3\n        /* \"#utility.yul\":2913:2922   */\n      dup9\n        /* \"#utility.yul\":2909:2931   */\n      add\n        /* \"#utility.yul\":2876:2941   */\n      tag_199\n      jump\t// in\n    tag_278:\n        /* \"#utility.yul\":2858:2941   */\n      swap3\n      pop\n      swap3\n      pop\n        /* \"#utility.yul\":2653:2951   */\n      pop\n        /* \"#utility.yul\":2139:2958   */\n      swap3\n      swap6\n      swap2\n      swap5\n      pop\n      swap3\n      pop\n      jump\t// out\n        /* \"#utility.yul\":2964:3082   */\n    tag_200:\n        /* \"#utility.yul\":3051:3075   */\n      tag_280\n        /* \"#utility.yul\":3069:3074   */\n      dup2\n        /* \"#utility.yul\":3051:3075   */\n      tag_193\n      jump\t// in\n    tag_280:\n        /* \"#utility.yul\":3046:3049   */\n      dup3\n        /* \"#utility.yul\":3039:3076   */\n      mstore\n        /* \"#utility.yul\":2964:3082   */\n      pop\n      pop\n      jump\t// out\n        /* \"#utility.yul\":3088:3310   */\n    tag_26:\n        /* \"#utility.yul\":3181:3185   */\n      0x00\n        /* \"#utility.yul\":3219:3221   */\n      0x20\n        /* \"#utility.yul\":3208:3217   */\n      dup3\n        /* \"#utility.yul\":3204:3222   */\n      add\n        /* \"#utility.yul\":3196:3222   */\n      swap1\n      pop\n        /* \"#utility.yul\":3232:3303   */\n      tag_282\n        /* \"#utility.yul\":3300:3301   */\n      0x00\n        /* \"#utility.yul\":3289:3298   */\n      dup4\n        /* \"#utility.yul\":3285:3302   */\n      add\n        /* \"#utility.yul\":3276:3282   */\n      dup5\n        /* \"#utility.yul\":3232:3303   */\n      tag_200\n      jump\t// in\n    tag_282:\n        /* \"#utility.yul\":3088:3310   */\n      swap3\n      swap2\n      pop\n      pop\n      jump\t// out\n        /* \"#utility.yul\":3316:3645   */\n    tag_30:\n        /* \"#utility.yul\":3375:3381   */\n      0x00\n        /* \"#utility.yul\":3424:3426   */\n      0x20\n        /* \"#utility.yul\":3412:3421   */\n      dup3\n        /* \"#utility.yul\":3403:3410   */\n      dup5\n        /* \"#utility.yul\":3399:3422   */\n      sub\n        /* \"#utility.yul\":3395:3427   */\n      slt\n        /* \"#utility.yul\":3392:3511   */\n      iszero\n      tag_284\n      jumpi\n        /* \"#utility.yul\":3430:3509   */\n      tag_285\n      tag_187\n      jump\t// in\n    tag_285:\n        /* \"#utility.yul\":3392:3511   */\n    tag_284:\n        /* \"#utility.yul\":3550:3551   */\n      0x00\n        /* \"#utility.yul\":3575:3628   */\n      tag_286\n        /* \"#utility.yul\":3620:3627   */\n      dup5\n        /* \"#utility.yul\":3611:3617   */\n      dup3\n        /* \"#utility.yul\":3600:3609   */\n      dup6\n        /* \"#utility.yul\":3596:3618   */\n      add\n        /* \"#utility.yul\":3575:3628   */\n      tag_195\n      jump\t// in\n    tag_286:\n        /* \"#utility.yul\":3565:3628   */\n      swap2\n      pop\n        /* \"#utility.yul\":3521:3638   */\n      pop\n        /* \"#utility.yul\":3316:3645   */\n      swap3\n      swap2\n      pop\n      pop\n      jump\t// out\n        /* \"#utility.yul\":3651:3741   */\n    tag_201:\n        /* \"#utility.yul\":3685:3692   */\n      0x00\n        /* \"#utility.yul\":3728:3733   */\n      dup2\n        /* \"#utility.yul\":3721:3734   */\n      iszero\n        /* \"#utility.yul\":3714:3735   */\n      iszero\n        /* \"#utility.yul\":3703:3735   */\n      swap1\n      pop\n        /* \"#utility.yul\":3651:3741   */\n      swap2\n      swap1\n      pop\n      jump\t// out\n        /* \"#utility.yul\":3747:3856   */\n    tag_202:\n        /* \"#utility.yul\":3828:3849   */\n      tag_289\n        /* \"#utility.yul\":3843:3848   */\n      dup2\n        /* \"#utility.yul\":3828:3849   */\n      tag_201\n      jump\t// in\n    tag_289:\n        /* \"#utility.yul\":3823:3826   */\n      dup3\n        /* \"#utility.yul\":3816:3850   */\n      mstore\n        /* \"#utility.yul\":3747:3856   */\n      pop\n      pop\n      jump\t// out\n        /* \"#utility.yul\":3862:3961   */\n    tag_203:\n        /* \"#utility.yul\":3914:3920   */\n      0x00\n        /* \"#utility.yul\":3948:3953   */\n      dup2\n        /* \"#utility.yul\":3942:3954   */\n      mload\n        /* \"#utility.yul\":3932:3954   */\n      swap1\n      pop\n        /* \"#utility.yul\":3862:3961   */\n      swap2\n      swap1\n      pop\n      jump\t// out\n        /* \"#utility.yul\":3967:4136   */\n    tag_204:\n        /* \"#utility.yul\":4051:4062   */\n      0x00\n        /* \"#utility.yul\":4085:4091   */\n      dup3\n        /* \"#utility.yul\":4080:4083   */\n      dup3\n        /* \"#utility.yul\":4073:4092   */\n      mstore\n        /* \"#utility.yul\":4125:4129   */\n      0x20\n        /* \"#utility.yul\":4120:4123   */\n      dup3\n        /* \"#utility.yul\":4116:4130   */\n      add\n        /* \"#utility.yul\":4101:4130   */\n      swap1\n      pop\n        /* \"#utility.yul\":3967:4136   */\n      swap3\n      swap2\n      pop\n      pop\n      jump\t// out\n        /* \"#utility.yul\":4142:4281   */\n    tag_205:\n        /* \"#utility.yul\":4231:4237   */\n      dup3\n        /* \"#utility.yul\":4226:4229   */\n      dup2\n        /* \"#utility.yul\":4221:4224   */\n      dup4\n        /* \"#utility.yul\":4215:4238   */\n      mcopy\n        /* \"#utility.yul\":4272:4273   */\n      0x00\n        /* \"#utility.yul\":4263:4269   */\n      dup4\n        /* \"#utility.yul\":4258:4261   */\n      dup4\n        /* \"#utility.yul\":4254:4270   */\n      add\n        /* \"#utility.yul\":4247:4274   */\n      mstore\n        /* \"#utility.yul\":4142:4281   */\n      pop\n      pop\n      pop\n      jump\t// out\n        /* \"#utility.yul\":4287:4389   */\n    tag_206:\n        /* \"#utility.yul\":4328:4334   */\n      0x00\n        /* \"#utility.yul\":4379:4381   */\n      0x1f\n        /* \"#utility.yul\":4375:4382   */\n      not\n        /* \"#utility.yul\":4370:4372   */\n      0x1f\n        /* \"#utility.yul\":4363:4368   */\n      dup4\n        /* \"#utility.yul\":4359:4373   */\n      add\n        /* \"#utility.yul\":4355:4383   */\n      and\n        /* \"#utility.yul\":4345:4383   */\n      swap1\n      pop\n        /* \"#utility.yul\":4287:4389   */\n      swap2\n      swap1\n      pop\n      jump\t// out\n        /* \"#utility.yul\":4395:4772   */\n    tag_207:\n        /* \"#utility.yul\":4483:4486   */\n      0x00\n        /* \"#utility.yul\":4511:4550   */\n      tag_295\n        /* \"#utility.yul\":4544:4549   */\n      dup3\n        /* \"#utility.yul\":4511:4550   */\n      tag_203\n      jump\t// in\n    tag_295:\n        /* \"#utility.yul\":4566:4637   */\n      tag_296\n        /* \"#utility.yul\":4630:4636   */\n      dup2\n        /* \"#utility.yul\":4625:4628   */\n      dup6\n        /* \"#utility.yul\":4566:4637   */\n      tag_204\n      jump\t// in\n    tag_296:\n        /* \"#utility.yul\":4559:4637   */\n      swap4\n      pop\n        /* \"#utility.yul\":4646:4711   */\n      tag_297\n        /* \"#utility.yul\":4704:4710   */\n      dup2\n        /* \"#utility.yul\":4699:4702   */\n      dup6\n        /* \"#utility.yul\":4692:4696   */\n      0x20\n        /* \"#utility.yul\":4685:4690   */\n      dup7\n        /* \"#utility.yul\":4681:4697   */\n      add\n        /* \"#utility.yul\":4646:4711   */\n      tag_205\n      jump\t// in\n    tag_297:\n        /* \"#utility.yul\":4736:4765   */\n      tag_298\n        /* \"#utility.yul\":4758:4764   */\n      dup2\n        /* \"#utility.yul\":4736:4765   */\n      tag_206\n      jump\t// in\n    tag_298:\n        /* \"#utility.yul\":4731:4734   */\n      dup5\n        /* \"#utility.yul\":4727:4766   */\n      add\n        /* \"#utility.yul\":4720:4766   */\n      swap2\n      pop\n        /* \"#utility.yul\":4487:4772   */\n      pop\n        /* \"#utility.yul\":4395:4772   */\n      swap3\n      swap2\n      pop\n      pop\n      jump\t// out\n        /* \"#utility.yul\":4778:4896   */\n    tag_208:\n        /* \"#utility.yul\":4865:4889   */\n      tag_300\n        /* \"#utility.yul\":4883:4888   */\n      dup2\n        /* \"#utility.yul\":4865:4889   */\n      tag_190\n      jump\t// in\n    tag_300:\n        /* \"#utility.yul\":4860:4863   */\n      dup3\n        /* \"#utility.yul\":4853:4890   */\n      mstore\n        /* \"#utility.yul\":4778:4896   */\n      pop\n      pop\n      jump\t// out\n        /* \"#utility.yul\":4902:5867   */\n    tag_33:\n        /* \"#utility.yul\":5177:5181   */\n      0x00\n        /* \"#utility.yul\":5215:5218   */\n      0xe0\n        /* \"#utility.yul\":5204:5213   */\n      dup3\n        /* \"#utility.yul\":5200:5219   */\n      add\n        /* \"#utility.yul\":5192:5219   */\n      swap1\n      pop\n        /* \"#utility.yul\":5229:5300   */\n      tag_302\n        /* \"#utility.yul\":5297:5298   */\n      0x00\n        /* \"#utility.yul\":5286:5295   */\n      dup4\n        /* \"#utility.yul\":5282:5299   */\n      add\n        /* \"#utility.yul\":5273:5279   */\n      dup11\n        /* \"#utility.yul\":5229:5300   */\n      tag_200\n      jump\t// in\n    tag_302:\n        /* \"#utility.yul\":5310:5382   */\n      tag_303\n        /* \"#utility.yul\":5378:5380   */\n      0x20\n        /* \"#utility.yul\":5367:5376   */\n      dup4\n        /* \"#utility.yul\":5363:5381   */\n      add\n        /* \"#utility.yul\":5354:5360   */\n      dup10\n        /* \"#utility.yul\":5310:5382   */\n      tag_200\n      jump\t// in\n    tag_303:\n        /* \"#utility.yul\":5392:5458   */\n      tag_304\n        /* \"#utility.yul\":5454:5456   */\n      0x40\n        /* \"#utility.yul\":5443:5452   */\n      dup4\n        /* \"#utility.yul\":5439:5457   */\n      add\n        /* \"#utility.yul\":5430:5436   */\n      dup9\n        /* \"#utility.yul\":5392:5458   */\n      tag_202\n      jump\t// in\n    tag_304:\n        /* \"#utility.yul\":5505:5514   */\n      dup2\n        /* \"#utility.yul\":5499:5503   */\n      dup2\n        /* \"#utility.yul\":5495:5515   */\n      sub\n        /* \"#utility.yul\":5490:5492   */\n      0x60\n        /* \"#utility.yul\":5479:5488   */\n      dup4\n        /* \"#utility.yul\":5475:5493   */\n      add\n        /* \"#utility.yul\":5468:5516   */\n      mstore\n        /* \"#utility.yul\":5533:5611   */\n      tag_305\n        /* \"#utility.yul\":5606:5610   */\n      dup2\n        /* \"#utility.yul\":5597:5603   */\n      dup8\n        /* \"#utility.yul\":5533:5611   */\n      tag_207\n      jump\t// in\n    tag_305:\n        /* \"#utility.yul\":5525:5611   */\n      swap1\n      pop\n        /* \"#utility.yul\":5621:5694   */\n      tag_306\n        /* \"#utility.yul\":5689:5692   */\n      0x80\n        /* \"#utility.yul\":5678:5687   */\n      dup4\n        /* \"#utility.yul\":5674:5693   */\n      add\n        /* \"#utility.yul\":5665:5671   */\n      dup7\n        /* \"#utility.yul\":5621:5694   */\n      tag_208\n      jump\t// in\n    tag_306:\n        /* \"#utility.yul\":5704:5777   */\n      tag_307\n        /* \"#utility.yul\":5772:5775   */\n      0xa0\n        /* \"#utility.yul\":5761:5770   */\n      dup4\n        /* \"#utility.yul\":5757:5776   */\n      add\n        /* \"#utility.yul\":5748:5754   */\n      dup6\n        /* \"#utility.yul\":5704:5777   */\n      tag_200\n      jump\t// in\n    tag_307:\n        /* \"#utility.yul\":5787:5860   */\n      tag_308\n        /* \"#utility.yul\":5855:5858   */\n      0xc0\n        /* \"#utility.yul\":5844:5853   */\n      dup4\n        /* \"#utility.yul\":5840:5859   */\n      add\n        /* \"#utility.yul\":5831:5837   */\n      dup5\n        /* \"#utility.yul\":5787:5860   */\n      tag_208\n      jump\t// in\n    tag_308:\n        /* \"#utility.yul\":4902:5867   */\n      swap9\n      swap8\n      pop\n      pop\n      pop\n      pop\n      pop\n      pop\n      pop\n      pop\n      jump\t// out\n        /* \"#utility.yul\":5873:6547   */\n    tag_40:\n        /* \"#utility.yul\":5953:5959   */\n      0x00\n        /* \"#utility.yul\":5961:5967   */\n      dup1\n        /* \"#utility.yul\":5969:5975   */\n      0x00\n        /* \"#utility.yul\":6018:6020   */\n      0x40\n        /* \"#utility.yul\":6006:6015   */\n      dup5\n        /* \"#utility.yul\":5997:6004   */\n      dup7\n        /* \"#utility.yul\":5993:6016   */\n      sub\n        /* \"#utility.yul\":5989:6021   */\n      slt\n        /* \"#utility.yul\":5986:6105   */\n      iszero\n      tag_310\n      jumpi\n        /* \"#utility.yul\":6024:6103   */\n      tag_311\n      tag_187\n      jump\t// in\n    tag_311:\n        /* \"#utility.yul\":5986:6105   */\n    tag_310:\n        /* \"#utility.yul\":6144:6145   */\n      0x00\n        /* \"#utility.yul\":6169:6222   */\n      tag_312\n        /* \"#utility.yul\":6214:6221   */\n      dup7\n        /* \"#utility.yul\":6205:6211   */\n      dup3\n        /* \"#utility.yul\":6194:6203   */\n      dup8\n        /* \"#utility.yul\":6190:6212   */\n      add\n        /* \"#utility.yul\":6169:6222   */\n      tag_195\n      jump\t// in\n    tag_312:\n        /* \"#utility.yul\":6159:6222   */\n      swap4\n      pop\n        /* \"#utility.yul\":6115:6232   */\n      pop\n        /* \"#utility.yul\":6299:6301   */\n      0x20\n        /* \"#utility.yul\":6288:6297   */\n      dup5\n        /* \"#utility.yul\":6284:6302   */\n      add\n        /* \"#utility.yul\":6271:6303   */\n      calldataload\n        /* \"#utility.yul\":6330:6348   */\n      0xffffffffffffffff\n        /* \"#utility.yul\":6322:6328   */\n      dup2\n        /* \"#utility.yul\":6319:6349   */\n      gt\n        /* \"#utility.yul\":6316:6433   */\n      iszero\n      tag_313\n      jumpi\n        /* \"#utility.yul\":6352:6431   */\n      tag_314\n      tag_188\n      jump\t// in\n    tag_314:\n        /* \"#utility.yul\":6316:6433   */\n    tag_313:\n        /* \"#utility.yul\":6465:6530   */\n      tag_315\n        /* \"#utility.yul\":6522:6529   */\n      dup7\n        /* \"#utility.yul\":6513:6519   */\n      dup3\n        /* \"#utility.yul\":6502:6511   */\n      dup8\n        /* \"#utility.yul\":6498:6520   */\n      add\n        /* \"#utility.yul\":6465:6530   */\n      tag_199\n      jump\t// in\n    tag_315:\n        /* \"#utility.yul\":6447:6530   */\n      swap3\n      pop\n      swap3\n      pop\n        /* \"#utility.yul\":6242:6540   */\n      pop\n        /* \"#utility.yul\":5873:6547   */\n      swap3\n      pop\n      swap3\n      pop\n      swap3\n      jump\t// out\n        /* \"#utility.yul\":6553:6775   */\n    tag_46:\n        /* \"#utility.yul\":6646:6650   */\n      0x00\n        /* \"#utility.yul\":6684:6686   */\n      0x20\n        /* \"#utility.yul\":6673:6682   */\n      dup3\n        /* \"#utility.yul\":6669:6687   */\n      add\n        /* \"#utility.yul\":6661:6687   */\n      swap1\n      pop\n        /* \"#utility.yul\":6697:6768   */\n      tag_317\n        /* \"#utility.yul\":6765:6766   */\n      0x00\n        /* \"#utility.yul\":6754:6763   */\n      dup4\n        /* \"#utility.yul\":6750:6767   */\n      add\n        /* \"#utility.yul\":6741:6747   */\n      dup5\n        /* \"#utility.yul\":6697:6768   */\n      tag_208\n      jump\t// in\n    tag_317:\n        /* \"#utility.yul\":6553:6775   */\n      swap3\n      swap2\n      pop\n      pop\n      jump\t// out\n        /* \"#utility.yul\":6781:7110   */\n    tag_54:\n        /* \"#utility.yul\":6840:6846   */\n      0x00\n        /* \"#utility.yul\":6889:6891   */\n      0x20\n        /* \"#utility.yul\":6877:6886   */\n      dup3\n        /* \"#utility.yul\":6868:6875   */\n      dup5\n        /* \"#utility.yul\":6864:6887   */\n      sub\n        /* \"#utility.yul\":6860:6892   */\n      slt\n        /* \"#utility.yul\":6857:6976   */\n      iszero\n      tag_319\n      jumpi\n        /* \"#utility.yul\":6895:6974   */\n      tag_320\n      tag_187\n      jump\t// in\n    tag_320:\n        /* \"#utility.yul\":6857:6976   */\n    tag_319:\n        /* \"#utility.yul\":7015:7016   */\n      0x00\n        /* \"#utility.yul\":7040:7093   */\n      tag_321\n        /* \"#utility.yul\":7085:7092   */\n      dup5\n        /* \"#utility.yul\":7076:7082   */\n      dup3\n        /* \"#utility.yul\":7065:7074   */\n      dup6\n        /* \"#utility.yul\":7061:7083   */\n      add\n        /* \"#utility.yul\":7040:7093   */\n      tag_192\n      jump\t// in\n    tag_321:\n        /* \"#utility.yul\":7030:7093   */\n      swap2\n      pop\n        /* \"#utility.yul\":6986:7103   */\n      pop\n        /* \"#utility.yul\":6781:7110   */\n      swap3\n      swap2\n      pop\n      pop\n      jump\t// out\n        /* \"#utility.yul\":7116:7645   */\n    tag_59:\n        /* \"#utility.yul\":7187:7193   */\n      0x00\n        /* \"#utility.yul\":7195:7201   */\n      dup1\n        /* \"#utility.yul\":7244:7246   */\n      0x20\n        /* \"#utility.yul\":7232:7241   */\n      dup4\n        /* \"#utility.yul\":7223:7230   */\n      dup6\n        /* \"#utility.yul\":7219:7242   */\n      sub\n        /* \"#utility.yul\":7215:7247   */\n      slt\n        /* \"#utility.yul\":7212:7331   */\n      iszero\n      tag_323\n      jumpi\n        /* \"#utility.yul\":7250:7329   */\n      tag_324\n      tag_187\n      jump\t// in\n    tag_324:\n        /* \"#utility.yul\":7212:7331   */\n    tag_323:\n        /* \"#utility.yul\":7398:7399   */\n      0x00\n        /* \"#utility.yul\":7387:7396   */\n      dup4\n        /* \"#utility.yul\":7383:7400   */\n      add\n        /* \"#utility.yul\":7370:7401   */\n      calldataload\n        /* \"#utility.yul\":7428:7446   */\n      0xffffffffffffffff\n        /* \"#utility.yul\":7420:7426   */\n      dup2\n        /* \"#utility.yul\":7417:7447   */\n      gt\n        /* \"#utility.yul\":7414:7531   */\n      iszero\n      tag_325\n      jumpi\n        /* \"#utility.yul\":7450:7529   */\n      tag_326\n      tag_188\n      jump\t// in\n    tag_326:\n        /* \"#utility.yul\":7414:7531   */\n    tag_325:\n        /* \"#utility.yul\":7563:7628   */\n      tag_327\n        /* \"#utility.yul\":7620:7627   */\n      dup6\n        /* \"#utility.yul\":7611:7617   */\n      dup3\n        /* \"#utility.yul\":7600:7609   */\n      dup7\n        /* \"#utility.yul\":7596:7618   */\n      add\n        /* \"#utility.yul\":7563:7628   */\n      tag_199\n      jump\t// in\n    tag_327:\n        /* \"#utility.yul\":7545:7628   */\n      swap3\n      pop\n      swap3\n      pop\n        /* \"#utility.yul\":7341:7638   */\n      pop\n        /* \"#utility.yul\":7116:7645   */\n      swap3\n      pop\n      swap3\n      swap1\n      pop\n      jump\t// out\n        /* \"#utility.yul\":7651:7829   */\n    tag_209:\n        /* \"#utility.yul\":7791:7821   */\n      0x546f6b656e20616464726573732063616e6e6f74206265207a65726f00000000\n        /* \"#utility.yul\":7787:7788   */\n      0x00\n        /* \"#utility.yul\":7779:7785   */\n      dup3\n        /* \"#utility.yul\":7775:7789   */\n      add\n        /* \"#utility.yul\":7768:7822   */\n      mstore\n        /* \"#utility.yul\":7651:7829   */\n      pop\n      jump\t// out\n        /* \"#utility.yul\":7835:8201   */\n    tag_210:\n        /* \"#utility.yul\":7977:7980   */\n      0x00\n        /* \"#utility.yul\":7998:8065   */\n      tag_330\n        /* \"#utility.yul\":8062:8064   */\n      0x1c\n        /* \"#utility.yul\":8057:8060   */\n      dup4\n        /* \"#utility.yul\":7998:8065   */\n      tag_204\n      jump\t// in\n    tag_330:\n        /* \"#utility.yul\":7991:8065   */\n      swap2\n      pop\n        /* \"#utility.yul\":8074:8167   */\n      tag_331\n        /* \"#utility.yul\":8163:8166   */\n      dup3\n        /* \"#utility.yul\":8074:8167   */\n      tag_209\n      jump\t// in\n    tag_331:\n        /* \"#utility.yul\":8192:8194   */\n      0x20\n        /* \"#utility.yul\":8187:8190   */\n      dup3\n        /* \"#utility.yul\":8183:8195   */\n      add\n        /* \"#utility.yul\":8176:8195   */\n      swap1\n      pop\n        /* \"#utility.yul\":7835:8201   */\n      swap2\n      swap1\n      pop\n      jump\t// out\n        /* \"#utility.yul\":8207:8626   */\n    tag_87:\n        /* \"#utility.yul\":8373:8377   */\n      0x00\n        /* \"#utility.yul\":8411:8413   */\n      0x20\n        /* \"#utility.yul\":8400:8409   */\n      dup3\n        /* \"#utility.yul\":8396:8414   */\n      add\n        /* \"#utility.yul\":8388:8414   */\n      swap1\n      pop\n        /* \"#utility.yul\":8460:8469   */\n      dup2\n        /* \"#utility.yul\":8454:8458   */\n      dup2\n        /* \"#utility.yul\":8450:8470   */\n      sub\n        /* \"#utility.yul\":8446:8447   */\n      0x00\n        /* \"#utility.yul\":8435:8444   */\n      dup4\n        /* \"#utility.yul\":8431:8448   */\n      add\n        /* \"#utility.yul\":8424:8471   */\n      mstore\n        /* \"#utility.yul\":8488:8619   */\n      tag_333\n        /* \"#utility.yul\":8614:8618   */\n      dup2\n        /* \"#utility.yul\":8488:8619   */\n      tag_210\n      jump\t// in\n    tag_333:\n        /* \"#utility.yul\":8480:8619   */\n      swap1\n      pop\n        /* \"#utility.yul\":8207:8626   */\n      swap2\n      swap1\n      pop\n      jump\t// out\n        /* \"#utility.yul\":8632:8775   */\n    tag_211:\n        /* \"#utility.yul\":8689:8694   */\n      0x00\n        /* \"#utility.yul\":8720:8726   */\n      dup2\n        /* \"#utility.yul\":8714:8727   */\n      mload\n        /* \"#utility.yul\":8705:8727   */\n      swap1\n      pop\n        /* \"#utility.yul\":8736:8769   */\n      tag_335\n        /* \"#utility.yul\":8763:8768   */\n      dup2\n        /* \"#utility.yul\":8736:8769   */\n      tag_194\n      jump\t// in\n    tag_335:\n        /* \"#utility.yul\":8632:8775   */\n      swap3\n      swap2\n      pop\n      pop\n      jump\t// out\n        /* \"#utility.yul\":8781:9132   */\n    tag_92:\n        /* \"#utility.yul\":8851:8857   */\n      0x00\n        /* \"#utility.yul\":8900:8902   */\n      0x20\n        /* \"#utility.yul\":8888:8897   */\n      dup3\n        /* \"#utility.yul\":8879:8886   */\n      dup5\n        /* \"#utility.yul\":8875:8898   */\n      sub\n        /* \"#utility.yul\":8871:8903   */\n      slt\n        /* \"#utility.yul\":8868:8987   */\n      iszero\n      tag_337\n      jumpi\n        /* \"#utility.yul\":8906:8985   */\n      tag_338\n      tag_187\n      jump\t// in\n    tag_338:\n        /* \"#utility.yul\":8868:8987   */\n    tag_337:\n        /* \"#utility.yul\":9026:9027   */\n      0x00\n        /* \"#utility.yul\":9051:9115   */\n      tag_339\n        /* \"#utility.yul\":9107:9114   */\n      dup5\n        /* \"#utility.yul\":9098:9104   */\n      dup3\n        /* \"#utility.yul\":9087:9096   */\n      dup6\n        /* \"#utility.yul\":9083:9105   */\n      add\n        /* \"#utility.yul\":9051:9115   */\n      tag_211\n      jump\t// in\n    tag_339:\n        /* \"#utility.yul\":9041:9115   */\n      swap2\n      pop\n        /* \"#utility.yul\":8997:9125   */\n      pop\n        /* \"#utility.yul\":8781:9132   */\n      swap3\n      swap2\n      pop\n      pop\n      jump\t// out\n        /* \"#utility.yul\":9138:9358   */\n    tag_212:\n        /* \"#utility.yul\":9278:9312   */\n      0x5661756c743a20496e73756666696369656e7420746f6b656e2062616c616e63\n        /* \"#utility.yul\":9274:9275   */\n      0x00\n        /* \"#utility.yul\":9266:9272   */\n      dup3\n        /* \"#utility.yul\":9262:9276   */\n      add\n        /* \"#utility.yul\":9255:9313   */\n      mstore\n        /* \"#utility.yul\":9347:9350   */\n      0x6500000000000000000000000000000000000000000000000000000000000000\n        /* \"#utility.yul\":9342:9344   */\n      0x20\n        /* \"#utility.yul\":9334:9340   */\n      dup3\n        /* \"#utility.yul\":9330:9345   */\n      add\n        /* \"#utility.yul\":9323:9351   */\n      mstore\n        /* \"#utility.yul\":9138:9358   */\n      pop\n      jump\t// out\n        /* \"#utility.yul\":9364:9730   */\n    tag_213:\n        /* \"#utility.yul\":9506:9509   */\n      0x00\n        /* \"#utility.yul\":9527:9594   */\n      tag_342\n        /* \"#utility.yul\":9591:9593   */\n      0x21\n        /* \"#utility.yul\":9586:9589   */\n      dup4\n        /* \"#utility.yul\":9527:9594   */\n      tag_204\n      jump\t// in\n    tag_342:\n        /* \"#utility.yul\":9520:9594   */\n      swap2\n      pop\n        /* \"#utility.yul\":9603:9696   */\n      tag_343\n        /* \"#utility.yul\":9692:9695   */\n      dup3\n        /* \"#utility.yul\":9603:9696   */\n      tag_212\n      jump\t// in\n    tag_343:\n        /* \"#utility.yul\":9721:9723   */\n      0x40\n        /* \"#utility.yul\":9716:9719   */\n      dup3\n        /* \"#utility.yul\":9712:9724   */\n      add\n        /* \"#utility.yul\":9705:9724   */\n      swap1\n      pop\n        /* \"#utility.yul\":9364:9730   */\n      swap2\n      swap1\n      pop\n      jump\t// out\n        /* \"#utility.yul\":9736:10155   */\n    tag_95:\n        /* \"#utility.yul\":9902:9906   */\n      0x00\n        /* \"#utility.yul\":9940:9942   */\n      0x20\n        /* \"#utility.yul\":9929:9938   */\n      dup3\n        /* \"#utility.yul\":9925:9943   */\n      add\n        /* \"#utility.yul\":9917:9943   */\n      swap1\n      pop\n        /* \"#utility.yul\":9989:9998   */\n      dup2\n        /* \"#utility.yul\":9983:9987   */\n      dup2\n        /* \"#utility.yul\":9979:9999   */\n      sub\n        /* \"#utility.yul\":9975:9976   */\n      0x00\n        /* \"#utility.yul\":9964:9973   */\n      dup4\n        /* \"#utility.yul\":9960:9977   */\n      add\n        /* \"#utility.yul\":9953:10000   */\n      mstore\n        /* \"#utility.yul\":10017:10148   */\n      tag_345\n        /* \"#utility.yul\":10143:10147   */\n      dup2\n        /* \"#utility.yul\":10017:10148   */\n      tag_213\n      jump\t// in\n    tag_345:\n        /* \"#utility.yul\":10009:10148   */\n      swap1\n      pop\n        /* \"#utility.yul\":9736:10155   */\n      swap2\n      swap1\n      pop\n      jump\t// out\n        /* \"#utility.yul\":10161:10341   */\n    tag_214:\n        /* \"#utility.yul\":10209:10286   */\n      0x4e487b7100000000000000000000000000000000000000000000000000000000\n        /* \"#utility.yul\":10206:10207   */\n      0x00\n        /* \"#utility.yul\":10199:10287   */\n      mstore\n        /* \"#utility.yul\":10306:10310   */\n      0x11\n        /* \"#utility.yul\":10303:10304   */\n      0x04\n        /* \"#utility.yul\":10296:10311   */\n      mstore\n        /* \"#utility.yul\":10330:10334   */\n      0x24\n        /* \"#utility.yul\":10327:10328   */\n      0x00\n        /* \"#utility.yul\":10320:10335   */\n      revert\n        /* \"#utility.yul\":10347:10538   */\n    tag_97:\n        /* \"#utility.yul\":10387:10390   */\n      0x00\n        /* \"#utility.yul\":10406:10426   */\n      tag_348\n        /* \"#utility.yul\":10424:10425   */\n      dup3\n        /* \"#utility.yul\":10406:10426   */\n      tag_193\n      jump\t// in\n    tag_348:\n        /* \"#utility.yul\":10401:10426   */\n      swap2\n      pop\n        /* \"#utility.yul\":10440:10460   */\n      tag_349\n        /* \"#utility.yul\":10458:10459   */\n      dup4\n        /* \"#utility.yul\":10440:10460   */\n      tag_193\n      jump\t// in\n    tag_349:\n        /* \"#utility.yul\":10435:10460   */\n      swap3\n      pop\n        /* \"#utility.yul\":10483:10484   */\n      dup3\n        /* \"#utility.yul\":10480:10481   */\n      dup3\n        /* \"#utility.yul\":10476:10485   */\n      add\n        /* \"#utility.yul\":10469:10485   */\n      swap1\n      pop\n        /* \"#utility.yul\":10504:10507   */\n      dup1\n        /* \"#utility.yul\":10501:10502   */\n      dup3\n        /* \"#utility.yul\":10498:10508   */\n      gt\n        /* \"#utility.yul\":10495:10531   */\n      iszero\n      tag_350\n      jumpi\n        /* \"#utility.yul\":10511:10529   */\n      tag_351\n      tag_214\n      jump\t// in\n    tag_351:\n        /* \"#utility.yul\":10495:10531   */\n    tag_350:\n        /* \"#utility.yul\":10347:10538   */\n      swap3\n      swap2\n      pop\n      pop\n      jump\t// out\n        /* \"#utility.yul\":10544:10876   */\n    tag_103:\n        /* \"#utility.yul\":10665:10669   */\n      0x00\n        /* \"#utility.yul\":10703:10705   */\n      0x40\n        /* \"#utility.yul\":10692:10701   */\n      dup3\n        /* \"#utility.yul\":10688:10706   */\n      add\n        /* \"#utility.yul\":10680:10706   */\n      swap1\n      pop\n        /* \"#utility.yul\":10716:10787   */\n      tag_353\n        /* \"#utility.yul\":10784:10785   */\n      0x00\n        /* \"#utility.yul\":10773:10782   */\n      dup4\n        /* \"#utility.yul\":10769:10786   */\n      add\n        /* \"#utility.yul\":10760:10766   */\n      dup6\n        /* \"#utility.yul\":10716:10787   */\n      tag_208\n      jump\t// in\n    tag_353:\n        /* \"#utility.yul\":10797:10869   */\n      tag_354\n        /* \"#utility.yul\":10865:10867   */\n      0x20\n        /* \"#utility.yul\":10854:10863   */\n      dup4\n        /* \"#utility.yul\":10850:10868   */\n      add\n        /* \"#utility.yul\":10841:10847   */\n      dup5\n        /* \"#utility.yul\":10797:10869   */\n      tag_200\n      jump\t// in\n    tag_354:\n        /* \"#utility.yul\":10544:10876   */\n      swap4\n      swap3\n      pop\n      pop\n      pop\n      jump\t// out\n        /* \"#utility.yul\":10882:10998   */\n    tag_215:\n        /* \"#utility.yul\":10952:10973   */\n      tag_356\n        /* \"#utility.yul\":10967:10972   */\n      dup2\n        /* \"#utility.yul\":10952:10973   */\n      tag_201\n      jump\t// in\n    tag_356:\n        /* \"#utility.yul\":10945:10950   */\n      dup2\n        /* \"#utility.yul\":10942:10974   */\n      eq\n        /* \"#utility.yul\":10932:10992   */\n      tag_357\n      jumpi\n        /* \"#utility.yul\":10988:10989   */\n      0x00\n        /* \"#utility.yul\":10985:10986   */\n      dup1\n        /* \"#utility.yul\":10978:10990   */\n      revert\n        /* \"#utility.yul\":10932:10992   */\n    tag_357:\n        /* \"#utility.yul\":10882:10998   */\n      pop\n      jump\t// out\n        /* \"#utility.yul\":11004:11141   */\n    tag_216:\n        /* \"#utility.yul\":11058:11063   */\n      0x00\n        /* \"#utility.yul\":11089:11095   */\n      dup2\n        /* \"#utility.yul\":11083:11096   */\n      mload\n        /* \"#utility.yul\":11074:11096   */\n      swap1\n      pop\n        /* \"#utility.yul\":11105:11135   */\n      tag_359\n        /* \"#utility.yul\":11129:11134   */\n      dup2\n        /* \"#utility.yul\":11105:11135   */\n      tag_215\n      jump\t// in\n    tag_359:\n        /* \"#utility.yul\":11004:11141   */\n      swap3\n      swap2\n      pop\n      pop\n      jump\t// out\n        /* \"#utility.yul\":11147:11492   */\n    tag_107:\n        /* \"#utility.yul\":11214:11220   */\n      0x00\n        /* \"#utility.yul\":11263:11265   */\n      0x20\n        /* \"#utility.yul\":11251:11260   */\n      dup3\n        /* \"#utility.yul\":11242:11249   */\n      dup5\n        /* \"#utility.yul\":11238:11261   */\n      sub\n        /* \"#utility.yul\":11234:11266   */\n      slt\n        /* \"#utility.yul\":11231:11350   */\n      iszero\n      tag_361\n      jumpi\n        /* \"#utility.yul\":11269:11348   */\n      tag_362\n      tag_187\n      jump\t// in\n    tag_362:\n        /* \"#utility.yul\":11231:11350   */\n    tag_361:\n        /* \"#utility.yul\":11389:11390   */\n      0x00\n        /* \"#utility.yul\":11414:11475   */\n      tag_363\n        /* \"#utility.yul\":11467:11474   */\n      dup5\n        /* \"#utility.yul\":11458:11464   */\n      dup3\n        /* \"#utility.yul\":11447:11456   */\n      dup6\n        /* \"#utility.yul\":11443:11465   */\n      add\n        /* \"#utility.yul\":11414:11475   */\n      tag_216\n      jump\t// in\n    tag_363:\n        /* \"#utility.yul\":11404:11475   */\n      swap2\n      pop\n        /* \"#utility.yul\":11360:11485   */\n      pop\n        /* \"#utility.yul\":11147:11492   */\n      swap3\n      swap2\n      pop\n      pop\n      jump\t// out\n        /* \"#utility.yul\":11498:11678   */\n    tag_217:\n        /* \"#utility.yul\":11546:11623   */\n      0x4e487b7100000000000000000000000000000000000000000000000000000000\n        /* \"#utility.yul\":11543:11544   */\n      0x00\n        /* \"#utility.yul\":11536:11624   */\n      mstore\n        /* \"#utility.yul\":11643:11647   */\n      0x22\n        /* \"#utility.yul\":11640:11641   */\n      0x04\n        /* \"#utility.yul\":11633:11648   */\n      mstore\n        /* \"#utility.yul\":11667:11671   */\n      0x24\n        /* \"#utility.yul\":11664:11665   */\n      0x00\n        /* \"#utility.yul\":11657:11672   */\n      revert\n        /* \"#utility.yul\":11684:12004   */\n    tag_114:\n        /* \"#utility.yul\":11728:11734   */\n      0x00\n        /* \"#utility.yul\":11765:11766   */\n      0x02\n        /* \"#utility.yul\":11759:11763   */\n      dup3\n        /* \"#utility.yul\":11755:11767   */\n      div\n        /* \"#utility.yul\":11745:11767   */\n      swap1\n      pop\n        /* \"#utility.yul\":11812:11813   */\n      0x01\n        /* \"#utility.yul\":11806:11810   */\n      dup3\n        /* \"#utility.yul\":11802:11814   */\n      and\n        /* \"#utility.yul\":11833:11851   */\n      dup1\n        /* \"#utility.yul\":11823:11904   */\n      tag_366\n      jumpi\n        /* \"#utility.yul\":11889:11893   */\n      0x7f\n        /* \"#utility.yul\":11881:11887   */\n      dup3\n        /* \"#utility.yul\":11877:11894   */\n      and\n        /* \"#utility.yul\":11867:11894   */\n      swap2\n      pop\n        /* \"#utility.yul\":11823:11904   */\n    tag_366:\n        /* \"#utility.yul\":11951:11953   */\n      0x20\n        /* \"#utility.yul\":11943:11949   */\n      dup3\n        /* \"#utility.yul\":11940:11954   */\n      lt\n        /* \"#utility.yul\":11920:11938   */\n      dup2\n        /* \"#utility.yul\":11917:11955   */\n      sub\n        /* \"#utility.yul\":11914:11998   */\n      tag_367\n      jumpi\n        /* \"#utility.yul\":11970:11988   */\n      tag_368\n      tag_217\n      jump\t// in\n    tag_368:\n        /* \"#utility.yul\":11914:11998   */\n    tag_367:\n        /* \"#utility.yul\":11735:12004   */\n      pop\n        /* \"#utility.yul\":11684:12004   */\n      swap2\n      swap1\n      pop\n      jump\t// out\n        /* \"#utility.yul\":12010:12231   */\n    tag_218:\n        /* \"#utility.yul\":12150:12184   */\n      0x5661756c743a20496e73756666696369656e74206e61746976652062616c616e\n        /* \"#utility.yul\":12146:12147   */\n      0x00\n        /* \"#utility.yul\":12138:12144   */\n      dup3\n        /* \"#utility.yul\":12134:12148   */\n      add\n        /* \"#utility.yul\":12127:12185   */\n      mstore\n        /* \"#utility.yul\":12219:12223   */\n      0x6365000000000000000000000000000000000000000000000000000000000000\n        /* \"#utility.yul\":12214:12216   */\n      0x20\n        /* \"#utility.yul\":12206:12212   */\n      dup3\n        /* \"#utility.yul\":12202:12217   */\n      add\n        /* \"#utility.yul\":12195:12224   */\n      mstore\n        /* \"#utility.yul\":12010:12231   */\n      pop\n      jump\t// out\n        /* \"#utility.yul\":12237:12603   */\n    tag_219:\n        /* \"#utility.yul\":12379:12382   */\n      0x00\n        /* \"#utility.yul\":12400:12467   */\n      tag_371\n        /* \"#utility.yul\":12464:12466   */\n      0x22\n        /* \"#utility.yul\":12459:12462   */\n      dup4\n        /* \"#utility.yul\":12400:12467   */\n      tag_204\n      jump\t// in\n    tag_371:\n        /* \"#utility.yul\":12393:12467   */\n      swap2\n      pop\n        /* \"#utility.yul\":12476:12569   */\n      tag_372\n        /* \"#utility.yul\":12565:12568   */\n      dup3\n        /* \"#utility.yul\":12476:12569   */\n      tag_218\n      jump\t// in\n    tag_372:\n        /* \"#utility.yul\":12594:12596   */\n      0x40\n        /* \"#utility.yul\":12589:12592   */\n      dup3\n        /* \"#utility.yul\":12585:12597   */\n      add\n        /* \"#utility.yul\":12578:12597   */\n      swap1\n      pop\n        /* \"#utility.yul\":12237:12603   */\n      swap2\n      swap1\n      pop\n      jump\t// out\n        /* \"#utility.yul\":12609:13028   */\n    tag_131:\n        /* \"#utility.yul\":12775:12779   */\n      0x00\n        /* \"#utility.yul\":12813:12815   */\n      0x20\n        /* \"#utility.yul\":12802:12811   */\n      dup3\n        /* \"#utility.yul\":12798:12816   */\n      add\n        /* \"#utility.yul\":12790:12816   */\n      swap1\n      pop\n        /* \"#utility.yul\":12862:12871   */\n      dup2\n        /* \"#utility.yul\":12856:12860   */\n      dup2\n        /* \"#utility.yul\":12852:12872   */\n      sub\n        /* \"#utility.yul\":12848:12849   */\n      0x00\n        /* \"#utility.yul\":12837:12846   */\n      dup4\n        /* \"#utility.yul\":12833:12850   */\n      add\n        /* \"#utility.yul\":12826:12873   */\n      mstore\n        /* \"#utility.yul\":12890:13021   */\n      tag_374\n        /* \"#utility.yul\":13016:13020   */\n      dup2\n        /* \"#utility.yul\":12890:13021   */\n      tag_219\n      jump\t// in\n    tag_374:\n        /* \"#utility.yul\":12882:13021   */\n      swap1\n      pop\n        /* \"#utility.yul\":12609:13028   */\n      swap2\n      swap1\n      pop\n      jump\t// out\n        /* \"#utility.yul\":13034:13181   */\n    tag_220:\n        /* \"#utility.yul\":13135:13146   */\n      0x00\n        /* \"#utility.yul\":13172:13175   */\n      dup2\n        /* \"#utility.yul\":13157:13175   */\n      swap1\n      pop\n        /* \"#utility.yul\":13034:13181   */\n      swap3\n      swap2\n      pop\n      pop\n      jump\t// out\n        /* \"#utility.yul\":13187:13301   */\n    tag_221:\n      pop\n      jump\t// out\n        /* \"#utility.yul\":13307:13705   */\n    tag_222:\n        /* \"#utility.yul\":13466:13469   */\n      0x00\n        /* \"#utility.yul\":13487:13570   */\n      tag_378\n        /* \"#utility.yul\":13568:13569   */\n      0x00\n        /* \"#utility.yul\":13563:13566   */\n      dup4\n        /* \"#utility.yul\":13487:13570   */\n      tag_220\n      jump\t// in\n    tag_378:\n        /* \"#utility.yul\":13480:13570   */\n      swap2\n      pop\n        /* \"#utility.yul\":13579:13672   */\n      tag_379\n        /* \"#utility.yul\":13668:13671   */\n      dup3\n        /* \"#utility.yul\":13579:13672   */\n      tag_221\n      jump\t// in\n    tag_379:\n        /* \"#utility.yul\":13697:13698   */\n      0x00\n        /* \"#utility.yul\":13692:13695   */\n      dup3\n        /* \"#utility.yul\":13688:13699   */\n      add\n        /* \"#utility.yul\":13681:13699   */\n      swap1\n      pop\n        /* \"#utility.yul\":13307:13705   */\n      swap2\n      swap1\n      pop\n      jump\t// out\n        /* \"#utility.yul\":13711:14090   */\n    tag_137:\n        /* \"#utility.yul\":13895:13898   */\n      0x00\n        /* \"#utility.yul\":13917:14064   */\n      tag_381\n        /* \"#utility.yul\":14060:14063   */\n      dup3\n        /* \"#utility.yul\":13917:14064   */\n      tag_222\n      jump\t// in\n    tag_381:\n        /* \"#utility.yul\":13910:14064   */\n      swap2\n      pop\n        /* \"#utility.yul\":14081:14084   */\n      dup2\n        /* \"#utility.yul\":14074:14084   */\n      swap1\n      pop\n        /* \"#utility.yul\":13711:14090   */\n      swap2\n      swap1\n      pop\n      jump\t// out\n        /* \"#utility.yul\":14096:14277   */\n    tag_223:\n        /* \"#utility.yul\":14236:14269   */\n      0x5661756c743a204e6174697665207769746864726177616c206661696c656400\n        /* \"#utility.yul\":14232:14233   */\n      0x00\n        /* \"#utility.yul\":14224:14230   */\n      dup3\n        /* \"#utility.yul\":14220:14234   */\n      add\n        /* \"#utility.yul\":14213:14270   */\n      mstore\n        /* \"#utility.yul\":14096:14277   */\n      pop\n      jump\t// out\n        /* \"#utility.yul\":14283:14649   */\n    tag_224:\n        /* \"#utility.yul\":14425:14428   */\n      0x00\n        /* \"#utility.yul\":14446:14513   */\n      tag_384\n        /* \"#utility.yul\":14510:14512   */\n      0x1f\n        /* \"#utility.yul\":14505:14508   */\n      dup4\n        /* \"#utility.yul\":14446:14513   */\n      tag_204\n      jump\t// in\n    tag_384:\n        /* \"#utility.yul\":14439:14513   */\n      swap2\n      pop\n        /* \"#utility.yul\":14522:14615   */\n      tag_385\n        /* \"#utility.yul\":14611:14614   */\n      dup3\n        /* \"#utility.yul\":14522:14615   */\n      tag_223\n      jump\t// in\n    tag_385:\n        /* \"#utility.yul\":14640:14642   */\n      0x20\n        /* \"#utility.yul\":14635:14638   */\n      dup3\n        /* \"#utility.yul\":14631:14643   */\n      add\n        /* \"#utility.yul\":14624:14643   */\n      swap1\n      pop\n        /* \"#utility.yul\":14283:14649   */\n      swap2\n      swap1\n      pop\n      jump\t// out\n        /* \"#utility.yul\":14655:15074   */\n    tag_143:\n        /* \"#utility.yul\":14821:14825   */\n      0x00\n        /* \"#utility.yul\":14859:14861   */\n      0x20\n        /* \"#utility.yul\":14848:14857   */\n      dup3\n        /* \"#utility.yul\":14844:14862   */\n      add\n        /* \"#utility.yul\":14836:14862   */\n      swap1\n      pop\n        /* \"#utility.yul\":14908:14917   */\n      dup2\n        /* \"#utility.yul\":14902:14906   */\n      dup2\n        /* \"#utility.yul\":14898:14918   */\n      sub\n        /* \"#utility.yul\":14894:14895   */\n      0x00\n        /* \"#utility.yul\":14883:14892   */\n      dup4\n        /* \"#utility.yul\":14879:14896   */\n      add\n        /* \"#utility.yul\":14872:14919   */\n      mstore\n        /* \"#utility.yul\":14936:15067   */\n      tag_387\n        /* \"#utility.yul\":15062:15066   */\n      dup2\n        /* \"#utility.yul\":14936:15067   */\n      tag_224\n      jump\t// in\n    tag_387:\n        /* \"#utility.yul\":14928:15067   */\n      swap1\n      pop\n        /* \"#utility.yul\":14655:15074   */\n      swap2\n      swap1\n      pop\n      jump\t// out\n        /* \"#utility.yul\":15080:15522   */\n    tag_151:\n        /* \"#utility.yul\":15229:15233   */\n      0x00\n        /* \"#utility.yul\":15267:15269   */\n      0x60\n        /* \"#utility.yul\":15256:15265   */\n      dup3\n        /* \"#utility.yul\":15252:15270   */\n      add\n        /* \"#utility.yul\":15244:15270   */\n      swap1\n      pop\n        /* \"#utility.yul\":15280:15351   */\n      tag_389\n        /* \"#utility.yul\":15348:15349   */\n      0x00\n        /* \"#utility.yul\":15337:15346   */\n      dup4\n        /* \"#utility.yul\":15333:15350   */\n      add\n        /* \"#utility.yul\":15324:15330   */\n      dup7\n        /* \"#utility.yul\":15280:15351   */\n      tag_208\n      jump\t// in\n    tag_389:\n        /* \"#utility.yul\":15361:15433   */\n      tag_390\n        /* \"#utility.yul\":15429:15431   */\n      0x20\n        /* \"#utility.yul\":15418:15427   */\n      dup4\n        /* \"#utility.yul\":15414:15432   */\n      add\n        /* \"#utility.yul\":15405:15411   */\n      dup6\n        /* \"#utility.yul\":15361:15433   */\n      tag_208\n      jump\t// in\n    tag_390:\n        /* \"#utility.yul\":15443:15515   */\n      tag_391\n        /* \"#utility.yul\":15511:15513   */\n      0x40\n        /* \"#utility.yul\":15500:15509   */\n      dup4\n        /* \"#utility.yul\":15496:15514   */\n      add\n        /* \"#utility.yul\":15487:15493   */\n      dup5\n        /* \"#utility.yul\":15443:15515   */\n      tag_200\n      jump\t// in\n    tag_391:\n        /* \"#utility.yul\":15080:15522   */\n      swap5\n      swap4\n      pop\n      pop\n      pop\n      pop\n      jump\t// out\n        /* \"#utility.yul\":15528:15710   */\n    tag_225:\n        /* \"#utility.yul\":15668:15702   */\n      0x416d6f756e74206d7573742062652067726561746572207468616e207a65726f\n        /* \"#utility.yul\":15664:15665   */\n      0x00\n        /* \"#utility.yul\":15656:15662   */\n      dup3\n        /* \"#utility.yul\":15652:15666   */\n      add\n        /* \"#utility.yul\":15645:15703   */\n      mstore\n        /* \"#utility.yul\":15528:15710   */\n      pop\n      jump\t// out\n        /* \"#utility.yul\":15716:16082   */\n    tag_226:\n        /* \"#utility.yul\":15858:15861   */\n      0x00\n        /* \"#utility.yul\":15879:15946   */\n      tag_394\n        /* \"#utility.yul\":15943:15945   */\n      0x20\n        /* \"#utility.yul\":15938:15941   */\n      dup4\n        /* \"#utility.yul\":15879:15946   */\n      tag_204\n      jump\t// in\n    tag_394:\n        /* \"#utility.yul\":15872:15946   */\n      swap2\n      pop\n        /* \"#utility.yul\":15955:16048   */\n      tag_395\n        /* \"#utility.yul\":16044:16047   */\n      dup3\n        /* \"#utility.yul\":15955:16048   */\n      tag_225\n      jump\t// in\n    tag_395:\n        /* \"#utility.yul\":16073:16075   */\n      0x20\n        /* \"#utility.yul\":16068:16071   */\n      dup3\n        /* \"#utility.yul\":16064:16076   */\n      add\n        /* \"#utility.yul\":16057:16076   */\n      swap1\n      pop\n        /* \"#utility.yul\":15716:16082   */\n      swap2\n      swap1\n      pop\n      jump\t// out\n        /* \"#utility.yul\":16088:16507   */\n    tag_159:\n        /* \"#utility.yul\":16254:16258   */\n      0x00\n        /* \"#utility.yul\":16292:16294   */\n      0x20\n        /* \"#utility.yul\":16281:16290   */\n      dup3\n        /* \"#utility.yul\":16277:16295   */\n      add\n        /* \"#utility.yul\":16269:16295   */\n      swap1\n      pop\n        /* \"#utility.yul\":16341:16350   */\n      dup2\n        /* \"#utility.yul\":16335:16339   */\n      dup2\n        /* \"#utility.yul\":16331:16351   */\n      sub\n        /* \"#utility.yul\":16327:16328   */\n      0x00\n        /* \"#utility.yul\":16316:16325   */\n      dup4\n        /* \"#utility.yul\":16312:16329   */\n      add\n        /* \"#utility.yul\":16305:16352   */\n      mstore\n        /* \"#utility.yul\":16369:16500   */\n      tag_397\n        /* \"#utility.yul\":16495:16499   */\n      dup2\n        /* \"#utility.yul\":16369:16500   */\n      tag_226\n      jump\t// in\n    tag_397:\n        /* \"#utility.yul\":16361:16500   */\n      swap1\n      pop\n        /* \"#utility.yul\":16088:16507   */\n      swap2\n      swap1\n      pop\n      jump\t// out\n        /* \"#utility.yul\":16513:16693   */\n    tag_227:\n        /* \"#utility.yul\":16561:16638   */\n      0x4e487b7100000000000000000000000000000000000000000000000000000000\n        /* \"#utility.yul\":16558:16559   */\n      0x00\n        /* \"#utility.yul\":16551:16639   */\n      mstore\n        /* \"#utility.yul\":16658:16662   */\n      0x41\n        /* \"#utility.yul\":16655:16656   */\n      0x04\n        /* \"#utility.yul\":16648:16663   */\n      mstore\n        /* \"#utility.yul\":16682:16686   */\n      0x24\n        /* \"#utility.yul\":16679:16680   */\n      0x00\n        /* \"#utility.yul\":16672:16687   */\n      revert\n        /* \"#utility.yul\":16699:16840   */\n    tag_228:\n        /* \"#utility.yul\":16748:16752   */\n      0x00\n        /* \"#utility.yul\":16771:16774   */\n      dup2\n        /* \"#utility.yul\":16763:16774   */\n      swap1\n      pop\n        /* \"#utility.yul\":16794:16797   */\n      dup2\n        /* \"#utility.yul\":16791:16792   */\n      0x00\n        /* \"#utility.yul\":16784:16798   */\n      mstore\n        /* \"#utility.yul\":16828:16832   */\n      0x20\n        /* \"#utility.yul\":16825:16826   */\n      0x00\n        /* \"#utility.yul\":16815:16833   */\n      keccak256\n        /* \"#utility.yul\":16807:16833   */\n      swap1\n      pop\n        /* \"#utility.yul\":16699:16840   */\n      swap2\n      swap1\n      pop\n      jump\t// out\n        /* \"#utility.yul\":16846:16939   */\n    tag_229:\n        /* \"#utility.yul\":16883:16889   */\n      0x00\n        /* \"#utility.yul\":16930:16932   */\n      0x20\n        /* \"#utility.yul\":16925:16927   */\n      0x1f\n        /* \"#utility.yul\":16918:16923   */\n      dup4\n        /* \"#utility.yul\":16914:16928   */\n      add\n        /* \"#utility.yul\":16910:16933   */\n      div\n        /* \"#utility.yul\":16900:16933   */\n      swap1\n      pop\n        /* \"#utility.yul\":16846:16939   */\n      swap2\n      swap1\n      pop\n      jump\t// out\n        /* \"#utility.yul\":16945:17052   */\n    tag_230:\n        /* \"#utility.yul\":16989:16997   */\n      0x00\n        /* \"#utility.yul\":17039:17044   */\n      dup3\n        /* \"#utility.yul\":17033:17037   */\n      dup3\n        /* \"#utility.yul\":17029:17045   */\n      shl\n        /* \"#utility.yul\":17008:17045   */\n      swap1\n      pop\n        /* \"#utility.yul\":16945:17052   */\n      swap3\n      swap2\n      pop\n      pop\n      jump\t// out\n        /* \"#utility.yul\":17058:17451   */\n    tag_231:\n        /* \"#utility.yul\":17127:17133   */\n      0x00\n        /* \"#utility.yul\":17177:17178   */\n      0x08\n        /* \"#utility.yul\":17165:17175   */\n      dup4\n        /* \"#utility.yul\":17161:17179   */\n      mul\n        /* \"#utility.yul\":17200:17297   */\n      tag_403\n        /* \"#utility.yul\":17230:17296   */\n      0xffffffffffffffffffffffffffffffffffffffffffffffffffffffffffffffff\n        /* \"#utility.yul\":17219:17228   */\n      dup3\n        /* \"#utility.yul\":17200:17297   */\n      tag_230\n      jump\t// in\n    tag_403:\n        /* \"#utility.yul\":17318:17357   */\n      tag_404\n        /* \"#utility.yul\":17348:17356   */\n      dup7\n        /* \"#utility.yul\":17337:17346   */\n      dup4\n        /* \"#utility.yul\":17318:17357   */\n      tag_230\n      jump\t// in\n    tag_404:\n        /* \"#utility.yul\":17306:17357   */\n      swap6\n      pop\n        /* \"#utility.yul\":17390:17394   */\n      dup1\n        /* \"#utility.yul\":17386:17395   */\n      not\n        /* \"#utility.yul\":17379:17384   */\n      dup5\n        /* \"#utility.yul\":17375:17396   */\n      and\n        /* \"#utility.yul\":17366:17396   */\n      swap4\n      pop\n        /* \"#utility.yul\":17439:17443   */\n      dup1\n        /* \"#utility.yul\":17429:17437   */\n      dup7\n        /* \"#utility.yul\":17425:17444   */\n      and\n        /* \"#utility.yul\":17418:17423   */\n      dup5\n        /* \"#utility.yul\":17415:17445   */\n      or\n        /* \"#utility.yul\":17405:17445   */\n      swap3\n      pop\n        /* \"#utility.yul\":17134:17451   */\n      pop\n      pop\n        /* \"#utility.yul\":17058:17451   */\n      swap4\n      swap3\n      pop\n      pop\n      pop\n      jump\t// out\n        /* \"#utility.yul\":17457:17517   */\n    tag_232:\n        /* \"#utility.yul\":17485:17488   */\n      0x00\n        /* \"#utility.yul\":17506:17511   */\n      dup2\n        /* \"#utility.yul\":17499:17511   */\n      swap1\n      pop\n        /* \"#utility.yul\":17457:17517   */\n      swap2\n      swap1\n      pop\n      jump\t// out\n        /* \"#utility.yul\":17523:17665   */\n    tag_233:\n        /* \"#utility.yul\":17573:17582   */\n      0x00\n        /* \"#utility.yul\":17606:17659   */\n      tag_407\n        /* \"#utility.yul\":17624:17658   */\n      tag_408\n        /* \"#utility.yul\":17633:17657   */\n      tag_409\n        /* \"#utility.yul\":17651:17656   */\n      dup5\n        /* \"#utility.yul\":17633:17657   */\n      tag_193\n      jump\t// in\n    tag_409:\n        /* \"#utility.yul\":17624:17658   */\n      tag_232\n      jump\t// in\n    tag_408:\n        /* \"#utility.yul\":17606:17659   */\n      tag_193\n      jump\t// in\n    tag_407:\n        /* \"#utility.yul\":17593:17659   */\n      swap1\n      pop\n        /* \"#utility.yul\":17523:17665   */\n      swap2\n      swap1\n      pop\n      jump\t// out\n        /* \"#utility.yul\":17671:17746   */\n    tag_234:\n        /* \"#utility.yul\":17714:17717   */\n      0x00\n        /* \"#utility.yul\":17735:17740   */\n      dup2\n        /* \"#utility.yul\":17728:17740   */\n      swap1\n      pop\n        /* \"#utility.yul\":17671:17746   */\n      swap2\n      swap1\n      pop\n      jump\t// out\n        /* \"#utility.yul\":17752:18021   */\n    tag_235:\n        /* \"#utility.yul\":17862:17901   */\n      tag_412\n        /* \"#utility.yul\":17893:17900   */\n      dup4\n        /* \"#utility.yul\":17862:17901   */\n      tag_233\n      jump\t// in\n    tag_412:\n        /* \"#utility.yul\":17923:18014   */\n      tag_413\n        /* \"#utility.yul\":17972:18013   */\n      tag_414\n        /* \"#utility.yul\":17996:18012   */\n      dup3\n        /* \"#utility.yul\":17972:18013   */\n      tag_234\n      jump\t// in\n    tag_414:\n        /* \"#utility.yul\":17964:17970   */\n      dup5\n        /* \"#utility.yul\":17957:17961   */\n      dup5\n        /* \"#utility.yul\":17951:17962   */\n      sload\n        /* \"#utility.yul\":17923:18014   */\n      tag_231\n      jump\t// in\n    tag_413:\n        /* \"#utility.yul\":17917:17921   */\n      dup3\n        /* \"#utility.yul\":17910:18015   */\n      sstore\n        /* \"#utility.yul\":17828:18021   */\n      pop\n        /* \"#utility.yul\":17752:18021   */\n      pop\n      pop\n      pop\n      jump\t// out\n        /* \"#utility.yul\":18027:18100   */\n    tag_236:\n        /* \"#utility.yul\":18072:18075   */\n      0x00\n        /* \"#utility.yul\":18027:18100   */\n      swap1\n      jump\t// out\n        /* \"#utility.yul\":18106:18295   */\n    tag_237:\n        /* \"#utility.yul\":18183:18215   */\n      tag_417\n      tag_236\n      jump\t// in\n    tag_417:\n        /* \"#utility.yul\":18224:18289   */\n      tag_418\n        /* \"#utility.yul\":18282:18288   */\n      dup2\n        /* \"#utility.yul\":18274:18280   */\n      dup5\n        /* \"#utility.yul\":18268:18272   */\n      dup5\n        /* \"#utility.yul\":18224:18289   */\n      tag_235\n      jump\t// in\n    tag_418:\n        /* \"#utility.yul\":18159:18295   */\n      pop\n        /* \"#utility.yul\":18106:18295   */\n      pop\n      pop\n      jump\t// out\n        /* \"#utility.yul\":18301:18487   */\n    tag_238:\n        /* \"#utility.yul\":18361:18481   */\n    tag_420:\n        /* \"#utility.yul\":18378:18381   */\n      dup2\n        /* \"#utility.yul\":18371:18376   */\n      dup2\n        /* \"#utility.yul\":18368:18382   */\n      lt\n        /* \"#utility.yul\":18361:18481   */\n      iszero\n      tag_422\n      jumpi\n        /* \"#utility.yul\":18432:18471   */\n      tag_423\n        /* \"#utility.yul\":18469:18470   */\n      0x00\n        /* \"#utility.yul\":18462:18467   */\n      dup3\n        /* \"#utility.yul\":18432:18471   */\n      tag_237\n      jump\t// in\n    tag_423:\n        /* \"#utility.yul\":18405:18406   */\n      0x01\n        /* \"#utility.yul\":18398:18403   */\n      dup2\n        /* \"#utility.yul\":18394:18407   */\n      add\n        /* \"#utility.yul\":18385:18407   */\n      swap1\n      pop\n        /* \"#utility.yul\":18361:18481   */\n      jump(tag_420)\n    tag_422:\n        /* \"#utility.yul\":18301:18487   */\n      pop\n      pop\n      jump\t// out\n        /* \"#utility.yul\":18493:19036   */\n    tag_239:\n        /* \"#utility.yul\":18594:18596   */\n      0x1f\n        /* \"#utility.yul\":18589:18592   */\n      dup3\n        /* \"#utility.yul\":18586:18597   */\n      gt\n        /* \"#utility.yul\":18583:19029   */\n      iszero\n      tag_425\n      jumpi\n        /* \"#utility.yul\":18628:18666   */\n      tag_426\n        /* \"#utility.yul\":18660:18665   */\n      dup2\n        /* \"#utility.yul\":18628:18666   */\n      tag_228\n      jump\t// in\n    tag_426:\n        /* \"#utility.yul\":18712:18741   */\n      tag_427\n        /* \"#utility.yul\":18730:18740   */\n      dup5\n        /* \"#utility.yul\":18712:18741   */\n      tag_229\n      jump\t// in\n    tag_427:\n        /* \"#utility.yul\":18702:18710   */\n      dup2\n        /* \"#utility.yul\":18698:18742   */\n      add\n        /* \"#utility.yul\":18895:18897   */\n      0x20\n        /* \"#utility.yul\":18883:18893   */\n      dup6\n        /* \"#utility.yul\":18880:18898   */\n      lt\n        /* \"#utility.yul\":18877:18926   */\n      iszero\n      tag_428\n      jumpi\n        /* \"#utility.yul\":18916:18924   */\n      dup2\n        /* \"#utility.yul\":18901:18924   */\n      swap1\n      pop\n        /* \"#utility.yul\":18877:18926   */\n    tag_428:\n        /* \"#utility.yul\":18939:19019   */\n      tag_429\n        /* \"#utility.yul\":18995:19017   */\n      tag_430\n        /* \"#utility.yul\":19013:19016   */\n      dup6\n        /* \"#utility.yul\":18995:19017   */\n      tag_229\n      jump\t// in\n    tag_430:\n        /* \"#utility.yul\":18985:18993   */\n      dup4\n        /* \"#utility.yul\":18981:19018   */\n      add\n        /* \"#utility.yul\":18968:18979   */\n      dup3\n        /* \"#utility.yul\":18939:19019   */\n      tag_238\n      jump\t// in\n    tag_429:\n        /* \"#utility.yul\":18598:19029   */\n      pop\n      pop\n        /* \"#utility.yul\":18583:19029   */\n    tag_425:\n        /* \"#utility.yul\":18493:19036   */\n      pop\n      pop\n      pop\n      jump\t// out\n        /* \"#utility.yul\":19042:19159   */\n    tag_240:\n        /* \"#utility.yul\":19096:19104   */\n      0x00\n        /* \"#utility.yul\":19146:19151   */\n      dup3\n        /* \"#utility.yul\":19140:19144   */\n      dup3\n        /* \"#utility.yul\":19136:19152   */\n      shr\n        /* \"#utility.yul\":19115:19152   */\n      swap1\n      pop\n        /* \"#utility.yul\":19042:19159   */\n      swap3\n      swap2\n      pop\n      pop\n      jump\t// out\n        /* \"#utility.yul\":19165:19334   */\n    tag_241:\n        /* \"#utility.yul\":19209:19215   */\n      0x00\n        /* \"#utility.yul\":19242:19293   */\n      tag_433\n        /* \"#utility.yul\":19290:19291   */\n      0x00\n        /* \"#utility.yul\":19286:19292   */\n      not\n        /* \"#utility.yul\":19278:19283   */\n      dup5\n        /* \"#utility.yul\":19275:19276   */\n      0x08\n        /* \"#utility.yul\":19271:19284   */\n      mul\n        /* \"#utility.yul\":19242:19293   */\n      tag_240\n      jump\t// in\n    tag_433:\n        /* \"#utility.yul\":19238:19294   */\n      not\n        /* \"#utility.yul\":19323:19327   */\n      dup1\n        /* \"#utility.yul\":19317:19321   */\n      dup4\n        /* \"#utility.yul\":19313:19328   */\n      and\n        /* \"#utility.yul\":19303:19328   */\n      swap2\n      pop\n        /* \"#utility.yul\":19216:19334   */\n      pop\n        /* \"#utility.yul\":19165:19334   */\n      swap3\n      swap2\n      pop\n      pop\n      jump\t// out\n        /* \"#utility.yul\":19339:19634   */\n    tag_242:\n        /* \"#utility.yul\":19415:19419   */\n      0x00\n        /* \"#utility.yul\":19561:19590   */\n      tag_435\n        /* \"#utility.yul\":19586:19589   */\n      dup4\n        /* \"#utility.yul\":19580:19584   */\n      dup4\n        /* \"#utility.yul\":19561:19590   */\n      tag_241\n      jump\t// in\n    tag_435:\n        /* \"#utility.yul\":19553:19590   */\n      swap2\n      pop\n        /* \"#utility.yul\":19623:19626   */\n      dup3\n        /* \"#utility.yul\":19620:19621   */\n      0x02\n        /* \"#utility.yul\":19616:19627   */\n      mul\n        /* \"#utility.yul\":19610:19614   */\n      dup3\n        /* \"#utility.yul\":19607:19628   */\n      or\n        /* \"#utility.yul\":19599:19628   */\n      swap1\n      pop\n        /* \"#utility.yul\":19339:19634   */\n      swap3\n      swap2\n      pop\n      pop\n      jump\t// out\n        /* \"#utility.yul\":19639:21034   */\n    tag_180:\n        /* \"#utility.yul\":19756:19793   */\n      tag_437\n        /* \"#utility.yul\":19789:19792   */\n      dup3\n        /* \"#utility.yul\":19756:19793   */\n      tag_203\n      jump\t// in\n    tag_437:\n        /* \"#utility.yul\":19858:19876   */\n      0xffffffffffffffff\n        /* \"#utility.yul\":19850:19856   */\n      dup2\n        /* \"#utility.yul\":19847:19877   */\n      gt\n        /* \"#utility.yul\":19844:19900   */\n      iszero\n      tag_438\n      jumpi\n        /* \"#utility.yul\":19880:19898   */\n      tag_439\n      tag_227\n      jump\t// in\n    tag_439:\n        /* \"#utility.yul\":19844:19900   */\n    tag_438:\n        /* \"#utility.yul\":19924:19962   */\n      tag_440\n        /* \"#utility.yul\":19956:19960   */\n      dup3\n        /* \"#utility.yul\":19950:19961   */\n      sload\n        /* \"#utility.yul\":19924:19962   */\n      tag_114\n      jump\t// in\n    tag_440:\n        /* \"#utility.yul\":20009:20076   */\n      tag_441\n        /* \"#utility.yul\":20069:20075   */\n      dup3\n        /* \"#utility.yul\":20061:20067   */\n      dup3\n        /* \"#utility.yul\":20055:20059   */\n      dup6\n        /* \"#utility.yul\":20009:20076   */\n      tag_239\n      jump\t// in\n    tag_441:\n        /* \"#utility.yul\":20103:20104   */\n      0x00\n        /* \"#utility.yul\":20127:20131   */\n      0x20\n        /* \"#utility.yul\":20114:20131   */\n      swap1\n      pop\n        /* \"#utility.yul\":20159:20161   */\n      0x1f\n        /* \"#utility.yul\":20151:20157   */\n      dup4\n        /* \"#utility.yul\":20148:20162   */\n      gt\n        /* \"#utility.yul\":20176:20177   */\n      0x01\n        /* \"#utility.yul\":20171:20789   */\n      dup2\n      eq\n      tag_443\n      jumpi\n        /* \"#utility.yul\":20833:20834   */\n      0x00\n        /* \"#utility.yul\":20850:20856   */\n      dup5\n        /* \"#utility.yul\":20847:20924   */\n      iszero\n      tag_444\n      jumpi\n        /* \"#utility.yul\":20899:20908   */\n      dup3\n        /* \"#utility.yul\":20894:20897   */\n      dup8\n        /* \"#utility.yul\":20890:20909   */\n      add\n        /* \"#utility.yul\":20884:20910   */\n      mload\n        /* \"#utility.yul\":20875:20910   */\n      swap1\n      pop\n        /* \"#utility.yul\":20847:20924   */\n    tag_444:\n        /* \"#utility.yul\":20950:21017   */\n      tag_445\n        /* \"#utility.yul\":21010:21016   */\n      dup6\n        /* \"#utility.yul\":21003:21008   */\n      dup3\n        /* \"#utility.yul\":20950:21017   */\n      tag_242\n      jump\t// in\n    tag_445:\n        /* \"#utility.yul\":20944:20948   */\n      dup7\n        /* \"#utility.yul\":20937:21018   */\n      sstore\n        /* \"#utility.yul\":20806:21028   */\n      pop\n        /* \"#utility.yul\":20141:21028   */\n      jump(tag_442)\n        /* \"#utility.yul\":20171:20789   */\n    tag_443:\n        /* \"#utility.yul\":20223:20227   */\n      0x1f\n        /* \"#utility.yul\":20219:20228   */\n      not\n        /* \"#utility.yul\":20211:20217   */\n      dup5\n        /* \"#utility.yul\":20207:20229   */\n      and\n        /* \"#utility.yul\":20257:20294   */\n      tag_446\n        /* \"#utility.yul\":20289:20293   */\n      dup7\n        /* \"#utility.yul\":20257:20294   */\n      tag_228\n      jump\t// in\n    tag_446:\n        /* \"#utility.yul\":20316:20317   */\n      0x00\n        /* \"#utility.yul\":20330:20538   */\n    tag_447:\n        /* \"#utility.yul\":20344:20351   */\n      dup3\n        /* \"#utility.yul\":20341:20342   */\n      dup2\n        /* \"#utility.yul\":20338:20352   */\n      lt\n        /* \"#utility.yul\":20330:20538   */\n      iszero\n      tag_449\n      jumpi\n        /* \"#utility.yul\":20423:20432   */\n      dup5\n        /* \"#utility.yul\":20418:20421   */\n      dup10\n        /* \"#utility.yul\":20414:20433   */\n      add\n        /* \"#utility.yul\":20408:20434   */\n      mload\n        /* \"#utility.yul\":20400:20406   */\n      dup3\n        /* \"#utility.yul\":20393:20435   */\n      sstore\n        /* \"#utility.yul\":20474:20475   */\n      0x01\n        /* \"#utility.yul\":20466:20472   */\n      dup3\n        /* \"#utility.yul\":20462:20476   */\n      add\n        /* \"#utility.yul\":20452:20476   */\n      swap2\n      pop\n        /* \"#utility.yul\":20521:20523   */\n      0x20\n        /* \"#utility.yul\":20510:20519   */\n      dup6\n        /* \"#utility.yul\":20506:20524   */\n      add\n        /* \"#utility.yul\":20493:20524   */\n      swap5\n      pop\n        /* \"#utility.yul\":20367:20371   */\n      0x20\n        /* \"#utility.yul\":20364:20365   */\n      dup2\n        /* \"#utility.yul\":20360:20372   */\n      add\n        /* \"#utility.yul\":20355:20372   */\n      swap1\n      pop\n        /* \"#utility.yul\":20330:20538   */\n      jump(tag_447)\n    tag_449:\n        /* \"#utility.yul\":20566:20572   */\n      dup7\n        /* \"#utility.yul\":20557:20564   */\n      dup4\n        /* \"#utility.yul\":20554:20573   */\n      lt\n        /* \"#utility.yul\":20551:20730   */\n      iszero\n      tag_450\n      jumpi\n        /* \"#utility.yul\":20624:20633   */\n      dup5\n        /* \"#utility.yul\":20619:20622   */\n      dup10\n        /* \"#utility.yul\":20615:20634   */\n      add\n        /* \"#utility.yul\":20609:20635   */\n      mload\n        /* \"#utility.yul\":20667:20715   */\n      tag_451\n        /* \"#utility.yul\":20709:20713   */\n      0x1f\n        /* \"#utility.yul\":20701:20707   */\n      dup10\n        /* \"#utility.yul\":20697:20714   */\n      and\n        /* \"#utility.yul\":20686:20695   */\n      dup3\n        /* \"#utility.yul\":20667:20715   */\n      tag_241\n      jump\t// in\n    tag_451:\n        /* \"#utility.yul\":20659:20665   */\n      dup4\n        /* \"#utility.yul\":20652:20716   */\n      sstore\n        /* \"#utility.yul\":20574:20730   */\n      pop\n        /* \"#utility.yul\":20551:20730   */\n    tag_450:\n        /* \"#utility.yul\":20776:20777   */\n      0x01\n        /* \"#utility.yul\":20772:20773   */\n      0x02\n        /* \"#utility.yul\":20764:20770   */\n      dup9\n        /* \"#utility.yul\":20760:20774   */\n      mul\n        /* \"#utility.yul\":20756:20778   */\n      add\n        /* \"#utility.yul\":20750:20754   */\n      dup9\n        /* \"#utility.yul\":20743:20779   */\n      sstore\n        /* \"#utility.yul\":20178:20789   */\n      pop\n      pop\n      pop\n        /* \"#utility.yul\":20141:21028   */\n    tag_442:\n      pop\n        /* \"#utility.yul\":19731:21034   */\n      pop\n      pop\n      pop\n        /* \"#utility.yul\":19639:21034   */\n      pop\n      pop\n      jump\t// out\n        /* \"#utility.yul\":21040:21672   */\n    tag_182:\n        /* \"#utility.yul\":21231:21235   */\n      0x00\n        /* \"#utility.yul\":21269:21272   */\n      0x80\n        /* \"#utility.yul\":21258:21267   */\n      dup3\n        /* \"#utility.yul\":21254:21273   */\n      add\n        /* \"#utility.yul\":21246:21273   */\n      swap1\n      pop\n        /* \"#utility.yul\":21283:21354   */\n      tag_453\n        /* \"#utility.yul\":21351:21352   */\n      0x00\n        /* \"#utility.yul\":21340:21349   */\n      dup4\n        /* \"#utility.yul\":21336:21353   */\n      add\n        /* \"#utility.yul\":21327:21333   */\n      dup8\n        /* \"#utility.yul\":21283:21354   */\n      tag_200\n      jump\t// in\n    tag_453:\n        /* \"#utility.yul\":21364:21430   */\n      tag_454\n        /* \"#utility.yul\":21426:21428   */\n      0x20\n        /* \"#utility.yul\":21415:21424   */\n      dup4\n        /* \"#utility.yul\":21411:21429   */\n      add\n        /* \"#utility.yul\":21402:21408   */\n      dup7\n        /* \"#utility.yul\":21364:21430   */\n      tag_202\n      jump\t// in\n    tag_454:\n        /* \"#utility.yul\":21477:21486   */\n      dup2\n        /* \"#utility.yul\":21471:21475   */\n      dup2\n        /* \"#utility.yul\":21467:21487   */\n      sub\n        /* \"#utility.yul\":21462:21464   */\n      0x40\n        /* \"#utility.yul\":21451:21460   */\n      dup4\n        /* \"#utility.yul\":21447:21465   */\n      add\n        /* \"#utility.yul\":21440:21488   */\n      mstore\n        /* \"#utility.yul\":21505:21583   */\n      tag_455\n        /* \"#utility.yul\":21578:21582   */\n      dup2\n        /* \"#utility.yul\":21569:21575   */\n      dup6\n        /* \"#utility.yul\":21505:21583   */\n      tag_207\n      jump\t// in\n    tag_455:\n        /* \"#utility.yul\":21497:21583   */\n      swap1\n      pop\n        /* \"#utility.yul\":21593:21665   */\n      tag_456\n        /* \"#utility.yul\":21661:21663   */\n      0x60\n        /* \"#utility.yul\":21650:21659   */\n      dup4\n        /* \"#utility.yul\":21646:21664   */\n      add\n        /* \"#utility.yul\":21637:21643   */\n      dup5\n        /* \"#utility.yul\":21593:21665   */\n      tag_200\n      jump\t// in\n    tag_456:\n        /* \"#utility.yul\":21040:21672   */\n      swap6\n      swap5\n      pop\n      pop\n      pop\n      pop\n      pop\n      jump\t// out\n\n    auxdata: 0xa2646970667358221220278c6bf9be4909dfd141c70ad20d7468cabb8976f5813bc3871bf46028f6c5df64736f6c634300081a0033\n}\n",
				"bytecode": {
					"linkReferences": {},
					"object": "608060405234801561000f575f80fd5b50604051611c2b380380611c2b833981810160405281019061003191906101de565b805f73ffffffffffffffffffffffffffffffffffffffff168173ffffffffffffffffffffffffffffffffffffffff16036100a2575f6040517f1e4fbdf70000000000000000000000000000000000000000000000000000000081526004016100999190610218565b60405180910390fd5b6100b1816100bf60201b60201c565b506001808190555050610231565b5f805f9054906101000a900473ffffffffffffffffffffffffffffffffffffffff169050815f806101000a81548173ffffffffffffffffffffffffffffffffffffffff021916908373ffffffffffffffffffffffffffffffffffffffff1602179055508173ffffffffffffffffffffffffffffffffffffffff168173ffffffffffffffffffffffffffffffffffffffff167f8be0079c531659141344cd1fd0a4f28419497f9722a3daafe3b4186f6b6457e060405160405180910390a35050565b5f80fd5b5f73ffffffffffffffffffffffffffffffffffffffff82169050919050565b5f6101ad82610184565b9050919050565b6101bd816101a3565b81146101c7575f80fd5b50565b5f815190506101d8816101b4565b92915050565b5f602082840312156101f3576101f2610180565b5b5f610200848285016101ca565b91505092915050565b610212816101a3565b82525050565b5f60208201905061022b5f830184610209565b92915050565b6119ed8061023e5f395ff3fe6080604052600436106100c1575f3560e01c8063a10d09601161007e578063e4e544cf11610058578063e4e544cf14610241578063e798af881461026b578063f18d014214610295578063f2fde38b146102d1576100c1565b8063a10d0960146101c1578063c536e768146101e9578063d51ba8f614610225576100c1565b806314eaa43b146100c55780635adcb1c4146100ed57806369594cfa14610117578063715018a61461015957806379da58fc1461016f5780638da5cb5b14610197575b5f80fd5b3480156100d0575f80fd5b506100eb60048036038101906100e69190610fd5565b6102f9565b005b3480156100f8575f80fd5b50610101610571565b60405161010e9190611055565b60405180910390f35b348015610122575f80fd5b5061013d6004803603810190610138919061106e565b61057d565b6040516101509796959493929190611132565b60405180910390f35b348015610164575f80fd5b5061016d61069a565b005b34801561017a575f80fd5b50610195600480360381019061019091906111a6565b6106ad565b005b3480156101a2575f80fd5b506101ab61082c565b6040516101b89190611203565b60405180910390f35b3480156101cc575f80fd5b506101e760048036038101906101e29190610fd5565b610853565b005b3480156101f4575f80fd5b5061020f600480360381019061020a919061121c565b6109ee565b60405161021c9190611055565b60405180910390f35b61023f600480360381019061023a9190611247565b610a03565b005b34801561024c575f80fd5b50610255610ab7565b6040516102629190611055565b60405180910390f35b348015610276575f80fd5b5061027f610abd565b60405161028c9190611055565b60405180910390f35b3480156102a0575f80fd5b506102bb60048036038101906102b6919061121c565b610ac3565b6040516102c89190611055565b60405180910390f35b3480156102dc575f80fd5b506102f760048036038101906102f2919061121c565b610ad8565b005b610301610b5c565b610309610be3565b5f73ffffffffffffffffffffffffffffffffffffffff168473ffffffffffffffffffffffffffffffffffffffff1603610377576040517f08c379a000000000000000000000000000000000000000000000000000000000815260040161036e906112dc565b60405180910390fd5b5f849050838173ffffffffffffffffffffffffffffffffffffffff166370a08231306040518263ffffffff1660e01b81526004016103b59190611203565b602060405180830381865afa1580156103d0573d5f803e3d5ffd5b505050506040513d601f19601f820116820180604052508101906103f4919061130e565b1015610435576040517f08c379a000000000000000000000000000000000000000000000000000000000815260040161042c906113a9565b60405180910390fd5b8360055f8773ffffffffffffffffffffffffffffffffffffffff1673ffffffffffffffffffffffffffffffffffffffff1681526020019081526020015f205f82825461048191906113f4565b925050819055506104df5f84848080601f0160208091040260200160405190810160405280939291908181526020018383808284375f81840152601f19601f8201169050808301925050505050505087876104da61082c565b610c29565b8073ffffffffffffffffffffffffffffffffffffffff1663a9059cbb61050361082c565b866040518363ffffffff1660e01b8152600401610521929190611427565b6020604051808303815f875af115801561053d573d5f803e3d5ffd5b505050506040513d601f19601f820116820180604052508101906105619190611478565b505061056b610e0e565b50505050565b5f600680549050905090565b6006818154811061058c575f80fd5b905f5260205f2090600702015f91509050805f015490806001015490806002015f9054906101000a900460ff16908060030180546105c9906114d0565b80601f01602080910402602001604051908101604052809291908181526020018280546105f5906114d0565b80156106405780601f1061061757610100808354040283529160200191610640565b820191905f5260205f20905b81548152906001019060200180831161062357829003601f168201915b505050505090806004015f9054906101000a900473ffffffffffffffffffffffffffffffffffffffff1690806005015490806006015f9054906101000a900473ffffffffffffffffffffffffffffffffffffffff16905087565b6106a2610b5c565b6106ab5f610e17565b565b6106b5610b5c565b6106bd610be3565b82471015610700576040517f08c379a00000000000000000000000000000000000000000000000000000000081526004016106f790611570565b60405180910390fd5b8260035f82825461071191906113f4565b9250508190555061076f5f83838080601f0160208091040260200160405190810160405280939291908181526020018383808284375f81840152601f19601f820116905080830192505050505050505f8661076a61082c565b610c29565b5f61077861082c565b73ffffffffffffffffffffffffffffffffffffffff168460405161079b906115bb565b5f6040518083038185875af1925050503d805f81146107d5576040519150601f19603f3d011682016040523d82523d5f602084013e6107da565b606091505b505090508061081e576040517f08c379a000000000000000000000000000000000000000000000000000000000815260040161081590611619565b60405180910390fd5b50610827610e0e565b505050565b5f805f9054906101000a900473ffffffffffffffffffffffffffffffffffffffff16905090565b5f73ffffffffffffffffffffffffffffffffffffffff168473ffffffffffffffffffffffffffffffffffffffff16036108c1576040517f08c379a00000000000000000000000000000000000000000000000000000000081526004016108b8906112dc565b60405180910390fd5b5f8490508360045f8773ffffffffffffffffffffffffffffffffffffffff1673ffffffffffffffffffffffffffffffffffffffff1681526020019081526020015f205f82825461091191906113f4565b925050819055508073ffffffffffffffffffffffffffffffffffffffff166323b872dd3330876040518463ffffffff1660e01b815260040161095593929190611637565b6020604051808303815f875af1158015610971573d5f803e3d5ffd5b505050506040513d601f19601f820116820180604052508101906109959190611478565b506109e7600184848080601f0160208091040260200160405190810160405280939291908181526020018383808284375f81840152601f19601f82011690508083019250505050505050878733610c29565b5050505050565b6004602052805f5260405f205f915090505481565b5f3490505f8111610a49576040517f08c379a0000000000000000000000000000000000000000000000000000000008152600401610a40906116b6565b60405180910390fd5b8060025f828254610a5a91906113f4565b92505081905550610ab2600184848080601f0160208091040260200160405190810160405280939291908181526020018383808284375f81840152601f19601f820116905080830192505050505050505f8433610c29565b505050565b60025481565b60035481565b6005602052805f5260405f205f915090505481565b610ae0610b5c565b5f73ffffffffffffffffffffffffffffffffffffffff168173ffffffffffffffffffffffffffffffffffffffff1603610b50575f6040517f1e4fbdf7000000000000000000000000000000000000000000000000000000008152600401610b479190611203565b60405180910390fd5b610b5981610e17565b50565b610b64610ed8565b73ffffffffffffffffffffffffffffffffffffffff16610b8261082c565b73ffffffffffffffffffffffffffffffffffffffff1614610be157610ba5610ed8565b6040517f118cdaa7000000000000000000000000000000000000000000000000000000008152600401610bd89190611203565b60405180910390fd5b565b600260015403610c1f576040517f3ee5aeb500000000000000000000000000000000000000000000000000000000815260040160405180910390fd5b6002600181905550565b5f600680549050905060066040518060e0016040528083815260200142815260200188151581526020018781526020018673ffffffffffffffffffffffffffffffffffffffff1681526020018581526020018473ffffffffffffffffffffffffffffffffffffffff16815250908060018154018082558091505060019003905f5260205f2090600702015f909190919091505f820151815f0155602082015181600101556040820151816002015f6101000a81548160ff0219169083151502179055506060820151816003019081610d01919061189e565b506080820151816004015f6101000a81548173ffffffffffffffffffffffffffffffffffffffff021916908373ffffffffffffffffffffffffffffffffffffffff16021790555060a0820151816005015560c0820151816006015f6101000a81548173ffffffffffffffffffffffffffffffffffffffff021916908373ffffffffffffffffffffffffffffffffffffffff16021790555050508173ffffffffffffffffffffffffffffffffffffffff168473ffffffffffffffffffffffffffffffffffffffff16827fb52b838555667685db79a43c16fe0866bca183c4b03b64f79e4eebe9e0ca0c50428a8a89604051610dfe949392919061196d565b60405180910390a4505050505050565b60018081905550565b5f805f9054906101000a900473ffffffffffffffffffffffffffffffffffffffff169050815f806101000a81548173ffffffffffffffffffffffffffffffffffffffff021916908373ffffffffffffffffffffffffffffffffffffffff1602179055508173ffffffffffffffffffffffffffffffffffffffff168173ffffffffffffffffffffffffffffffffffffffff167f8be0079c531659141344cd1fd0a4f28419497f9722a3daafe3b4186f6b6457e060405160405180910390a35050565b5f33905090565b5f80fd5b5f80fd5b5f73ffffffffffffffffffffffffffffffffffffffff82169050919050565b5f610f1082610ee7565b9050919050565b610f2081610f06565b8114610f2a575f80fd5b50565b5f81359050610f3b81610f17565b92915050565b5f819050919050565b610f5381610f41565b8114610f5d575f80fd5b50565b5f81359050610f6e81610f4a565b92915050565b5f80fd5b5f80fd5b5f80fd5b5f8083601f840112610f9557610f94610f74565b5b8235905067ffffffffffffffff811115610fb257610fb1610f78565b5b602083019150836001820283011115610fce57610fcd610f7c565b5b9250929050565b5f805f8060608587031215610fed57610fec610edf565b5b5f610ffa87828801610f2d565b945050602061100b87828801610f60565b935050604085013567ffffffffffffffff81111561102c5761102b610ee3565b5b61103887828801610f80565b925092505092959194509250565b61104f81610f41565b82525050565b5f6020820190506110685f830184611046565b92915050565b5f6020828403121561108357611082610edf565b5b5f61109084828501610f60565b91505092915050565b5f8115159050919050565b6110ad81611099565b82525050565b5f81519050919050565b5f82825260208201905092915050565b8281835e5f83830152505050565b5f601f19601f8301169050919050565b5f6110f5826110b3565b6110ff81856110bd565b935061110f8185602086016110cd565b611118816110db565b840191505092915050565b61112c81610f06565b82525050565b5f60e0820190506111455f83018a611046565b6111526020830189611046565b61115f60408301886110a4565b818103606083015261117181876110eb565b90506111806080830186611123565b61118d60a0830185611046565b61119a60c0830184611123565b98975050505050505050565b5f805f604084860312156111bd576111bc610edf565b5b5f6111ca86828701610f60565b935050602084013567ffffffffffffffff8111156111eb576111ea610ee3565b5b6111f786828701610f80565b92509250509250925092565b5f6020820190506112165f830184611123565b92915050565b5f6020828403121561123157611230610edf565b5b5f61123e84828501610f2d565b91505092915050565b5f806020838503121561125d5761125c610edf565b5b5f83013567ffffffffffffffff81111561127a57611279610ee3565b5b61128685828601610f80565b92509250509250929050565b7f546f6b656e20616464726573732063616e6e6f74206265207a65726f000000005f82015250565b5f6112c6601c836110bd565b91506112d182611292565b602082019050919050565b5f6020820190508181035f8301526112f3816112ba565b9050919050565b5f8151905061130881610f4a565b92915050565b5f6020828403121561132357611322610edf565b5b5f611330848285016112fa565b91505092915050565b7f5661756c743a20496e73756666696369656e7420746f6b656e2062616c616e635f8201527f6500000000000000000000000000000000000000000000000000000000000000602082015250565b5f6113936021836110bd565b915061139e82611339565b604082019050919050565b5f6020820190508181035f8301526113c081611387565b9050919050565b7f4e487b71000000000000000000000000000000000000000000000000000000005f52601160045260245ffd5b5f6113fe82610f41565b915061140983610f41565b9250828201905080821115611421576114206113c7565b5b92915050565b5f60408201905061143a5f830185611123565b6114476020830184611046565b9392505050565b61145781611099565b8114611461575f80fd5b50565b5f815190506114728161144e565b92915050565b5f6020828403121561148d5761148c610edf565b5b5f61149a84828501611464565b91505092915050565b7f4e487b71000000000000000000000000000000000000000000000000000000005f52602260045260245ffd5b5f60028204905060018216806114e757607f821691505b6020821081036114fa576114f96114a3565b5b50919050565b7f5661756c743a20496e73756666696369656e74206e61746976652062616c616e5f8201527f6365000000000000000000000000000000000000000000000000000000000000602082015250565b5f61155a6022836110bd565b915061156582611500565b604082019050919050565b5f6020820190508181035f8301526115878161154e565b9050919050565b5f81905092915050565b50565b5f6115a65f8361158e565b91506115b182611598565b5f82019050919050565b5f6115c58261159b565b9150819050919050565b7f5661756c743a204e6174697665207769746864726177616c206661696c6564005f82015250565b5f611603601f836110bd565b915061160e826115cf565b602082019050919050565b5f6020820190508181035f830152611630816115f7565b9050919050565b5f60608201905061164a5f830186611123565b6116576020830185611123565b6116646040830184611046565b949350505050565b7f416d6f756e74206d7573742062652067726561746572207468616e207a65726f5f82015250565b5f6116a06020836110bd565b91506116ab8261166c565b602082019050919050565b5f6020820190508181035f8301526116cd81611694565b9050919050565b7f4e487b71000000000000000000000000000000000000000000000000000000005f52604160045260245ffd5b5f819050815f5260205f209050919050565b5f6020601f8301049050919050565b5f82821b905092915050565b5f6008830261175d7fffffffffffffffffffffffffffffffffffffffffffffffffffffffffffffffff82611722565b6117678683611722565b95508019841693508086168417925050509392505050565b5f819050919050565b5f6117a261179d61179884610f41565b61177f565b610f41565b9050919050565b5f819050919050565b6117bb83611788565b6117cf6117c7826117a9565b84845461172e565b825550505050565b5f90565b6117e36117d7565b6117ee8184846117b2565b505050565b5b81811015611811576118065f826117db565b6001810190506117f4565b5050565b601f8211156118565761182781611701565b61183084611713565b8101602085101561183f578190505b61185361184b85611713565b8301826117f3565b50505b505050565b5f82821c905092915050565b5f6118765f198460080261185b565b1980831691505092915050565b5f61188e8383611867565b9150826002028217905092915050565b6118a7826110b3565b67ffffffffffffffff8111156118c0576118bf6116d4565b5b6118ca82546114d0565b6118d5828285611815565b5f60209050601f831160018114611906575f84156118f4578287015190505b6118fe8582611883565b865550611965565b601f19841661191486611701565b5f5b8281101561193b57848901518255600182019150602085019450602081019050611916565b868310156119585784890151611954601f891682611867565b8355505b6001600288020188555050505b505050505050565b5f6080820190506119805f830187611046565b61198d60208301866110a4565b818103604083015261199f81856110eb565b90506119ae6060830184611046565b9594505050505056fea2646970667358221220278c6bf9be4909dfd141c70ad20d7468cabb8976f5813bc3871bf46028f6c5df64736f6c634300081a0033",
					"opcodes": "PUSH1 0x80 PUSH1 0x40 MSTORE CALLVALUE DUP1 ISZERO PUSH2 0xF JUMPI PUSH0 DUP1 REVERT JUMPDEST POP PUSH1 0x40 MLOAD PUSH2 0x1C2B CODESIZE SUB DUP1 PUSH2 0x1C2B DUP4 CODECOPY DUP2 DUP2 ADD PUSH1 0x40 MSTORE DUP2 ADD SWAP1 PUSH2 0x31 SWAP2 SWAP1 PUSH2 0x1DE JUMP JUMPDEST DUP1 PUSH0 PUSH20 0xFFFFFFFFFFFFFFFFFFFFFFFFFFFFFFFFFFFFFFFF AND DUP2 PUSH20 0xFFFFFFFFFFFFFFFFFFFFFFFFFFFFFFFFFFFFFFFF AND SUB PUSH2 0xA2 JUMPI PUSH0 PUSH1 0x40 MLOAD PUSH32 0x1E4FBDF700000000000000000000000000000000000000000000000000000000 DUP2 MSTORE PUSH1 0x4 ADD PUSH2 0x99 SWAP2 SWAP1 PUSH2 0x218 JUMP JUMPDEST PUSH1 0x40 MLOAD DUP1 SWAP2 SUB SWAP1 REVERT JUMPDEST PUSH2 0xB1 DUP2 PUSH2 0xBF PUSH1 0x20 SHL PUSH1 0x20 SHR JUMP JUMPDEST POP PUSH1 0x1 DUP1 DUP2 SWAP1 SSTORE POP POP PUSH2 0x231 JUMP JUMPDEST PUSH0 DUP1 PUSH0 SWAP1 SLOAD SWAP1 PUSH2 0x100 EXP SWAP1 DIV PUSH20 0xFFFFFFFFFFFFFFFFFFFFFFFFFFFFFFFFFFFFFFFF AND SWAP1 POP DUP2 PUSH0 DUP1 PUSH2 0x100 EXP DUP2 SLOAD DUP2 PUSH20 0xFFFFFFFFFFFFFFFFFFFFFFFFFFFFFFFFFFFFFFFF MUL NOT AND SWAP1 DUP4 PUSH20 0xFFFFFFFFFFFFFFFFFFFFFFFFFFFFFFFFFFFFFFFF AND MUL OR SWAP1 SSTORE POP DUP2 PUSH20 0xFFFFFFFFFFFFFFFFFFFFFFFFFFFFFFFFFFFFFFFF AND DUP2 PUSH20 0xFFFFFFFFFFFFFFFFFFFFFFFFFFFFFFFFFFFFFFFF AND PUSH32 0x8BE0079C531659141344CD1FD0A4F28419497F9722A3DAAFE3B4186F6B6457E0 PUSH1 0x40 MLOAD PUSH1 0x40 MLOAD DUP1 SWAP2 SUB SWAP1 LOG3 POP POP JUMP JUMPDEST PUSH0 DUP1 REVERT JUMPDEST PUSH0 PUSH20 0xFFFFFFFFFFFFFFFFFFFFFFFFFFFFFFFFFFFFFFFF DUP3 AND SWAP1 POP SWAP2 SWAP1 POP JUMP JUMPDEST PUSH0 PUSH2 0x1AD DUP3 PUSH2 0x184 JUMP JUMPDEST SWAP1 POP SWAP2 SWAP1 POP JUMP JUMPDEST PUSH2 0x1BD DUP2 PUSH2 0x1A3 JUMP JUMPDEST DUP2 EQ PUSH2 0x1C7 JUMPI PUSH0 DUP1 REVERT JUMPDEST POP JUMP JUMPDEST PUSH0 DUP2 MLOAD SWAP1 POP PUSH2 0x1D8 DUP2 PUSH2 0x1B4 JUMP JUMPDEST SWAP3 SWAP2 POP POP JUMP JUMPDEST PUSH0 PUSH1 0x20 DUP3 DUP5 SUB SLT ISZERO PUSH2 0x1F3 JUMPI PUSH2 0x1F2 PUSH2 0x180 JUMP JUMPDEST JUMPDEST PUSH0 PUSH2 0x200 DUP5 DUP3 DUP6 ADD PUSH2 0x1CA JUMP JUMPDEST SWAP2 POP POP SWAP3 SWAP2 POP POP JUMP JUMPDEST PUSH2 0x212 DUP2 PUSH2 0x1A3 JUMP JUMPDEST DUP3 MSTORE POP POP JUMP JUMPDEST PUSH0 PUSH1 0x20 DUP3 ADD SWAP1 POP PUSH2 0x22B PUSH0 DUP4 ADD DUP5 PUSH2 0x209 JUMP JUMPDEST SWAP3 SWAP2 POP POP JUMP JUMPDEST PUSH2 0x19ED DUP1 PUSH2 0x23E PUSH0 CODECOPY PUSH0 RETURN INVALID PUSH1 0x80 PUSH1 0x40 MSTORE PUSH1 0x4 CALLDATASIZE LT PUSH2 0xC1 JUMPI PUSH0 CALLDATALOAD PUSH1 0xE0 SHR DUP1 PUSH4 0xA10D0960 GT PUSH2 0x7E JUMPI DUP1 PUSH4 0xE4E544CF GT PUSH2 0x58 JUMPI DUP1 PUSH4 0xE4E544CF EQ PUSH2 0x241 JUMPI DUP1 PUSH4 0xE798AF88 EQ PUSH2 0x26B JUMPI DUP1 PUSH4 0xF18D0142 EQ PUSH2 0x295 JUMPI DUP1 PUSH4 0xF2FDE38B EQ PUSH2 0x2D1 JUMPI PUSH2 0xC1 JUMP JUMPDEST DUP1 PUSH4 0xA10D0960 EQ PUSH2 0x1C1 JUMPI DUP1 PUSH4 0xC536E768 EQ PUSH2 0x1E9 JUMPI DUP1 PUSH4 0xD51BA8F6 EQ PUSH2 0x225 JUMPI PUSH2 0xC1 JUMP JUMPDEST DUP1 PUSH4 0x14EAA43B EQ PUSH2 0xC5 JUMPI DUP1 PUSH4 0x5ADCB1C4 EQ PUSH2 0xED JUMPI DUP1 PUSH4 0x69594CFA EQ PUSH2 0x117 JUMPI DUP1 PUSH4 0x715018A6 EQ PUSH2 0x159 JUMPI DUP1 PUSH4 0x79DA58FC EQ PUSH2 0x16F JUMPI DUP1 PUSH4 0x8DA5CB5B EQ PUSH2 0x197 JUMPI JUMPDEST PUSH0 DUP1 REVERT JUMPDEST CALLVALUE DUP1 ISZERO PUSH2 0xD0 JUMPI PUSH0 DUP1 REVERT JUMPDEST POP PUSH2 0xEB PUSH1 0x4 DUP1 CALLDATASIZE SUB DUP2 ADD SWAP1 PUSH2 0xE6 SWAP2 SWAP1 PUSH2 0xFD5 JUMP JUMPDEST PUSH2 0x2F9 JUMP JUMPDEST STOP JUMPDEST CALLVALUE DUP1 ISZERO PUSH2 0xF8 JUMPI PUSH0 DUP1 REVERT JUMPDEST POP PUSH2 0x101 PUSH2 0x571 JUMP JUMPDEST PUSH1 0x40 MLOAD PUSH2 0x10E SWAP2 SWAP1 PUSH2 0x1055 JUMP JUMPDEST PUSH1 0x40 MLOAD DUP1 SWAP2 SUB SWAP1 RETURN JUMPDEST CALLVALUE DUP1 ISZERO PUSH2 0x122 JUMPI PUSH0 DUP1 REVERT JUMPDEST POP PUSH2 0x13D PUSH1 0x4 DUP1 CALLDATASIZE SUB DUP2 ADD SWAP1 PUSH2 0x138 SWAP2 SWAP1 PUSH2 0x106E JUMP JUMPDEST PUSH2 0x57D JUMP JUMPDEST PUSH1 0x40 MLOAD PUSH2 0x150 SWAP8 SWAP7 SWAP6 SWAP5 SWAP4 SWAP3 SWAP2 SWAP1 PUSH2 0x1132 JUMP JUMPDEST PUSH1 0x40 MLOAD DUP1 SWAP2 SUB SWAP1 RETURN JUMPDEST CALLVALUE DUP1 ISZERO PUSH2 0x164 JUMPI PUSH0 DUP1 REVERT JUMPDEST POP PUSH2 0x16D PUSH2 0x69A JUMP JUMPDEST STOP JUMPDEST CALLVALUE DUP1 ISZERO PUSH2 0x17A JUMPI PUSH0 DUP1 REVERT JUMPDEST POP PUSH2 0x195 PUSH1 0x4 DUP1 CALLDATASIZE SUB DUP2 ADD SWAP1 PUSH2 0x190 SWAP2 SWAP1 PUSH2 0x11A6 JUMP JUMPDEST PUSH2 0x6AD JUMP JUMPDEST STOP JUMPDEST CALLVALUE DUP1 ISZERO PUSH2 0x1A2 JUMPI PUSH0 DUP1 REVERT JUMPDEST POP PUSH2 0x1AB PUSH2 0x82C JUMP JUMPDEST PUSH1 0x40 MLOAD PUSH2 0x1B8 SWAP2 SWAP1 PUSH2 0x1203 JUMP JUMPDEST PUSH1 0x40 MLOAD DUP1 SWAP2 SUB SWAP1 RETURN JUMPDEST CALLVALUE DUP1 ISZERO PUSH2 0x1CC JUMPI PUSH0 DUP1 REVERT JUMPDEST POP PUSH2 0x1E7 PUSH1 0x4 DUP1 CALLDATASIZE SUB DUP2 ADD SWAP1 PUSH2 0x1E2 SWAP2 SWAP1 PUSH2 0xFD5 JUMP JUMPDEST PUSH2 0x853 JUMP JUMPDEST STOP JUMPDEST CALLVALUE DUP1 ISZERO PUSH2 0x1F4 JUMPI PUSH0 DUP1 REVERT JUMPDEST POP PUSH2 0x20F PUSH1 0x4 DUP1 CALLDATASIZE SUB DUP2 ADD SWAP1 PUSH2 0x20A SWAP2 SWAP1 PUSH2 0x121C JUMP JUMPDEST PUSH2 0x9EE JUMP JUMPDEST PUSH1 0x40 MLOAD PUSH2 0x21C SWAP2 SWAP1 PUSH2 0x1055 JUMP JUMPDEST PUSH1 0x40 MLOAD DUP1 SWAP2 SUB SWAP1 RETURN JUMPDEST PUSH2 0x23F PUSH1 0x4 DUP1 CALLDATASIZE SUB DUP2 ADD SWAP1 PUSH2 0x23A SWAP2 SWAP1 PUSH2 0x1247 JUMP JUMPDEST PUSH2 0xA03 JUMP JUMPDEST STOP JUMPDEST CALLVALUE DUP1 ISZERO PUSH2 0x24C JUMPI PUSH0 DUP1 REVERT JUMPDEST POP PUSH2 0x255 PUSH2 0xAB7 JUMP JUMPDEST PUSH1 0x40 MLOAD PUSH2 0x262 SWAP2 SWAP1 PUSH2 0x1055 JUMP JUMPDEST PUSH1 0x40 MLOAD DUP1 SWAP2 SUB SWAP1 RETURN JUMPDEST CALLVALUE DUP1 ISZERO PUSH2 0x276 JUMPI PUSH0 DUP1 REVERT JUMPDEST POP PUSH2 0x27F PUSH2 0xABD JUMP JUMPDEST PUSH1 0x40 MLOAD PUSH2 0x28C SWAP2 SWAP1 PUSH2 0x1055 JUMP JUMPDEST PUSH1 0x40 MLOAD DUP1 SWAP2 SUB SWAP1 RETURN JUMPDEST CALLVALUE DUP1 ISZERO PUSH2 0x2A0 JUMPI PUSH0 DUP1 REVERT JUMPDEST POP PUSH2 0x2BB PUSH1 0x4 DUP1 CALLDATASIZE SUB DUP2 ADD SWAP1 PUSH2 0x2B6 SWAP2 SWAP1 PUSH2 0x121C JUMP JUMPDEST PUSH2 0xAC3 JUMP JUMPDEST PUSH1 0x40 MLOAD PUSH2 0x2C8 SWAP2 SWAP1 PUSH2 0x1055 JUMP JUMPDEST PUSH1 0x40 MLOAD DUP1 SWAP2 SUB SWAP1 RETURN JUMPDEST CALLVALUE DUP1 ISZERO PUSH2 0x2DC JUMPI PUSH0 DUP1 REVERT JUMPDEST POP PUSH2 0x2F7 PUSH1 0x4 DUP1 CALLDATASIZE SUB DUP2 ADD SWAP1 PUSH2 0x2F2 SWAP2 SWAP1 PUSH2 0x121C JUMP JUMPDEST PUSH2 0xAD8 JUMP JUMPDEST STOP JUMPDEST PUSH2 0x301 PUSH2 0xB5C JUMP JUMPDEST PUSH2 0x309 PUSH2 0xBE3 JUMP JUMPDEST PUSH0 PUSH20 0xFFFFFFFFFFFFFFFFFFFFFFFFFFFFFFFFFFFFFFFF AND DUP5 PUSH20 0xFFFFFFFFFFFFFFFFFFFFFFFFFFFFFFFFFFFFFFFF AND SUB PUSH2 0x377 JUMPI PUSH1 0x40 MLOAD PUSH32 0x8C379A000000000000000000000000000000000000000000000000000000000 DUP2 MSTORE PUSH1 0x4 ADD PUSH2 0x36E SWAP1 PUSH2 0x12DC JUMP JUMPDEST PUSH1 0x40 MLOAD DUP1 SWAP2 SUB SWAP1 REVERT JUMPDEST PUSH0 DUP5 SWAP1 POP DUP4 DUP2 PUSH20 0xFFFFFFFFFFFFFFFFFFFFFFFFFFFFFFFFFFFFFFFF AND PUSH4 0x70A08231 ADDRESS PUSH1 0x40 MLOAD DUP3 PUSH4 0xFFFFFFFF AND PUSH1 0xE0 SHL DUP2 MSTORE PUSH1 0x4 ADD PUSH2 0x3B5 SWAP2 SWAP1 PUSH2 0x1203 JUMP JUMPDEST PUSH1 0x20 PUSH1 0x40 MLOAD DUP1 DUP4 SUB DUP2 DUP7 GAS STATICCALL ISZERO DUP1 ISZERO PUSH2 0x3D0 JUMPI RETURNDATASIZE PUSH0 DUP1 RETURNDATACOPY RETURNDATASIZE PUSH0 REVERT JUMPDEST POP POP POP POP PUSH1 0x40 MLOAD RETURNDATASIZE PUSH1 0x1F NOT PUSH1 0x1F DUP3 ADD AND DUP3 ADD DUP1 PUSH1 0x40 MSTORE POP DUP2 ADD SWAP1 PUSH2 0x3F4 SWAP2 SWAP1 PUSH2 0x130E JUMP JUMPDEST LT ISZERO PUSH2 0x435 JUMPI PUSH1 0x40 MLOAD PUSH32 0x8C379A000000000000000000000000000000000000000000000000000000000 DUP2 MSTORE PUSH1 0x4 ADD PUSH2 0x42C SWAP1 PUSH2 0x13A9 JUMP JUMPDEST PUSH1 0x40 MLOAD DUP1 SWAP2 SUB SWAP1 REVERT JUMPDEST DUP4 PUSH1 0x5 PUSH0 DUP8 PUSH20 0xFFFFFFFFFFFFFFFFFFFFFFFFFFFFFFFFFFFFFFFF AND PUSH20 0xFFFFFFFFFFFFFFFFFFFFFFFFFFFFFFFFFFFFFFFF AND DUP2 MSTORE PUSH1 0x20 ADD SWAP1 DUP2 MSTORE PUSH1 0x20 ADD PUSH0 KECCAK256 PUSH0 DUP3 DUP3 SLOAD PUSH2 0x481 SWAP2 SWAP1 PUSH2 0x13F4 JUMP JUMPDEST SWAP3 POP POP DUP2 SWAP1 SSTORE POP PUSH2 0x4DF PUSH0 DUP5 DUP5 DUP1 DUP1 PUSH1 0x1F ADD PUSH1 0x20 DUP1 SWAP2 DIV MUL PUSH1 0x20 ADD PUSH1 0x40 MLOAD SWAP1 DUP2 ADD PUSH1 0x40 MSTORE DUP1 SWAP4 SWAP3 SWAP2 SWAP1 DUP2 DUP2 MSTORE PUSH1 0x20 ADD DUP4 DUP4 DUP1 DUP3 DUP5 CALLDATACOPY PUSH0 DUP2 DUP5 ADD MSTORE PUSH1 0x1F NOT PUSH1 0x1F DUP3 ADD AND SWAP1 POP DUP1 DUP4 ADD SWAP3 POP POP POP POP POP POP POP DUP8 DUP8 PUSH2 0x4DA PUSH2 0x82C JUMP JUMPDEST PUSH2 0xC29 JUMP JUMPDEST DUP1 PUSH20 0xFFFFFFFFFFFFFFFFFFFFFFFFFFFFFFFFFFFFFFFF AND PUSH4 0xA9059CBB PUSH2 0x503 PUSH2 0x82C JUMP JUMPDEST DUP7 PUSH1 0x40 MLOAD DUP4 PUSH4 0xFFFFFFFF AND PUSH1 0xE0 SHL DUP2 MSTORE PUSH1 0x4 ADD PUSH2 0x521 SWAP3 SWAP2 SWAP1 PUSH2 0x1427 JUMP JUMPDEST PUSH1 0x20 PUSH1 0x40 MLOAD DUP1 DUP4 SUB DUP2 PUSH0 DUP8 GAS CALL ISZERO DUP1 ISZERO PUSH2 0x53D JUMPI RETURNDATASIZE PUSH0 DUP1 RETURNDATACOPY RETURNDATASIZE PUSH0 REVERT JUMPDEST POP POP POP POP PUSH1 0x40 MLOAD RETURNDATASIZE PUSH1 0x1F NOT PUSH1 0x1F DUP3 ADD AND DUP3 ADD DUP1 PUSH1 0x40 MSTORE POP DUP2 ADD SWAP1 PUSH2 0x561 SWAP2 SWAP1 PUSH2 0x1478 JUMP JUMPDEST POP POP PUSH2 0x56B PUSH2 0xE0E JUMP JUMPDEST POP POP POP POP JUMP JUMPDEST PUSH0 PUSH1 0x6 DUP1 SLOAD SWAP1 POP SWAP1 POP SWAP1 JUMP JUMPDEST PUSH1 0x6 DUP2 DUP2 SLOAD DUP2 LT PUSH2 0x58C JUMPI PUSH0 DUP1 REVERT JUMPDEST SWAP1 PUSH0 MSTORE PUSH1 0x20 PUSH0 KECCAK256 SWAP1 PUSH1 0x7 MUL ADD PUSH0 SWAP2 POP SWAP1 POP DUP1 PUSH0 ADD SLOAD SWAP1 DUP1 PUSH1 0x1 ADD SLOAD SWAP1 DUP1 PUSH1 0x2 ADD PUSH0 SWAP1 SLOAD SWAP1 PUSH2 0x100 EXP SWAP1 DIV PUSH1 0xFF AND SWAP1 DUP1 PUSH1 0x3 ADD DUP1 SLOAD PUSH2 0x5C9 SWAP1 PUSH2 0x14D0 JUMP JUMPDEST DUP1 PUSH1 0x1F ADD PUSH1 0x20 DUP1 SWAP2 DIV MUL PUSH1 0x20 ADD PUSH1 0x40 MLOAD SWAP1 DUP2 ADD PUSH1 0x40 MSTORE DUP1 SWAP3 SWAP2 SWAP1 DUP2 DUP2 MSTORE PUSH1 0x20 ADD DUP3 DUP1 SLOAD PUSH2 0x5F5 SWAP1 PUSH2 0x14D0 JUMP JUMPDEST DUP1 ISZERO PUSH2 0x640 JUMPI DUP1 PUSH1 0x1F LT PUSH2 0x617 JUMPI PUSH2 0x100 DUP1 DUP4 SLOAD DIV MUL DUP4 MSTORE SWAP2 PUSH1 0x20 ADD SWAP2 PUSH2 0x640 JUMP JUMPDEST DUP3 ADD SWAP2 SWAP1 PUSH0 MSTORE PUSH1 0x20 PUSH0 KECCAK256 SWAP1 JUMPDEST DUP2 SLOAD DUP2 MSTORE SWAP1 PUSH1 0x1 ADD SWAP1 PUSH1 0x20 ADD DUP1 DUP4 GT PUSH2 0x623 JUMPI DUP3 SWAP1 SUB PUSH1 0x1F AND DUP3 ADD SWAP2 JUMPDEST POP POP POP POP POP SWAP1 DUP1 PUSH1 0x4 ADD PUSH0 SWAP1 SLOAD SWAP1 PUSH2 0x100 EXP SWAP1 DIV PUSH20 0xFFFFFFFFFFFFFFFFFFFFFFFFFFFFFFFFFFFFFFFF AND SWAP1 DUP1 PUSH1 0x5 ADD SLOAD SWAP1 DUP1 PUSH1 0x6 ADD PUSH0 SWAP1 SLOAD SWAP1 PUSH2 0x100 EXP SWAP1 DIV PUSH20 0xFFFFFFFFFFFFFFFFFFFFFFFFFFFFFFFFFFFFFFFF AND SWAP1 POP DUP8 JUMP JUMPDEST PUSH2 0x6A2 PUSH2 0xB5C JUMP JUMPDEST PUSH2 0x6AB PUSH0 PUSH2 0xE17 JUMP JUMPDEST JUMP JUMPDEST PUSH2 0x6B5 PUSH2 0xB5C JUMP JUMPDEST PUSH2 0x6BD PUSH2 0xBE3 JUMP JUMPDEST DUP3 SELFBALANCE LT ISZERO PUSH2 0x700 JUMPI PUSH1 0x40 MLOAD PUSH32 0x8C379A000000000000000000000000000000000000000000000000000000000 DUP2 MSTORE PUSH1 0x4 ADD PUSH2 0x6F7 SWAP1 PUSH2 0x1570 JUMP JUMPDEST PUSH1 0x40 MLOAD DUP1 SWAP2 SUB SWAP1 REVERT JUMPDEST DUP3 PUSH1 0x3 PUSH0 DUP3 DUP3 SLOAD PUSH2 0x711 SWAP2 SWAP1 PUSH2 0x13F4 JUMP JUMPDEST SWAP3 POP POP DUP2 SWAP1 SSTORE POP PUSH2 0x76F PUSH0 DUP4 DUP4 DUP1 DUP1 PUSH1 0x1F ADD PUSH1 0x20 DUP1 SWAP2 DIV MUL PUSH1 0x20 ADD PUSH1 0x40 MLOAD SWAP1 DUP2 ADD PUSH1 0x40 MSTORE DUP1 SWAP4 SWAP3 SWAP2 SWAP1 DUP2 DUP2 MSTORE PUSH1 0x20 ADD DUP4 DUP4 DUP1 DUP3 DUP5 CALLDATACOPY PUSH0 DUP2 DUP5 ADD MSTORE PUSH1 0x1F NOT PUSH1 0x1F DUP3 ADD AND SWAP1 POP DUP1 DUP4 ADD SWAP3 POP POP POP POP POP POP POP PUSH0 DUP7 PUSH2 0x76A PUSH2 0x82C JUMP JUMPDEST PUSH2 0xC29 JUMP JUMPDEST PUSH0 PUSH2 0x778 PUSH2 0x82C JUMP JUMPDEST PUSH20 0xFFFFFFFFFFFFFFFFFFFFFFFFFFFFFFFFFFFFFFFF AND DUP5 PUSH1 0x40 MLOAD PUSH2 0x79B SWAP1 PUSH2 0x15BB JUMP JUMPDEST PUSH0 PUSH1 0x40 MLOAD DUP1 DUP4 SUB DUP2 DUP6 DUP8 GAS CALL SWAP3 POP POP POP RETURNDATASIZE DUP1 PUSH0 DUP2 EQ PUSH2 0x7D5 JUMPI PUSH1 0x40 MLOAD SWAP2 POP PUSH1 0x1F NOT PUSH1 0x3F RETURNDATASIZE ADD AND DUP3 ADD PUSH1 0x40 MSTORE RETURNDATASIZE DUP3 MSTORE RETURNDATASIZE PUSH0 PUSH1 0x20 DUP5 ADD RETURNDATACOPY PUSH2 0x7DA JUMP JUMPDEST PUSH1 0x60 SWAP2 POP JUMPDEST POP POP SWAP1 POP DUP1 PUSH2 0x81E JUMPI PUSH1 0x40 MLOAD PUSH32 0x8C379A000000000000000000000000000000000000000000000000000000000 DUP2 MSTORE PUSH1 0x4 ADD PUSH2 0x815 SWAP1 PUSH2 0x1619 JUMP JUMPDEST PUSH1 0x40 MLOAD DUP1 SWAP2 SUB SWAP1 REVERT JUMPDEST POP PUSH2 0x827 PUSH2 0xE0E JUMP JUMPDEST POP POP POP JUMP JUMPDEST PUSH0 DUP1 PUSH0 SWAP1 SLOAD SWAP1 PUSH2 0x100 EXP SWAP1 DIV PUSH20 0xFFFFFFFFFFFFFFFFFFFFFFFFFFFFFFFFFFFFFFFF AND SWAP1 POP SWAP1 JUMP JUMPDEST PUSH0 PUSH20 0xFFFFFFFFFFFFFFFFFFFFFFFFFFFFFFFFFFFFFFFF AND DUP5 PUSH20 0xFFFFFFFFFFFFFFFFFFFFFFFFFFFFFFFFFFFFFFFF AND SUB PUSH2 0x8C1 JUMPI PUSH1 0x40 MLOAD PUSH32 0x8C379A000000000000000000000000000000000000000000000000000000000 DUP2 MSTORE PUSH1 0x4 ADD PUSH2 0x8B8 SWAP1 PUSH2 0x12DC JUMP JUMPDEST PUSH1 0x40 MLOAD DUP1 SWAP2 SUB SWAP1 REVERT JUMPDEST PUSH0 DUP5 SWAP1 POP DUP4 PUSH1 0x4 PUSH0 DUP8 PUSH20 0xFFFFFFFFFFFFFFFFFFFFFFFFFFFFFFFFFFFFFFFF AND PUSH20 0xFFFFFFFFFFFFFFFFFFFFFFFFFFFFFFFFFFFFFFFF AND DUP2 MSTORE PUSH1 0x20 ADD SWAP1 DUP2 MSTORE PUSH1 0x20 ADD PUSH0 KECCAK256 PUSH0 DUP3 DUP3 SLOAD PUSH2 0x911 SWAP2 SWAP1 PUSH2 0x13F4 JUMP JUMPDEST SWAP3 POP POP DUP2 SWAP1 SSTORE POP DUP1 PUSH20 0xFFFFFFFFFFFFFFFFFFFFFFFFFFFFFFFFFFFFFFFF AND PUSH4 0x23B872DD CALLER ADDRESS DUP8 PUSH1 0x40 MLOAD DUP5 PUSH4 0xFFFFFFFF AND PUSH1 0xE0 SHL DUP2 MSTORE PUSH1 0x4 ADD PUSH2 0x955 SWAP4 SWAP3 SWAP2 SWAP1 PUSH2 0x1637 JUMP JUMPDEST PUSH1 0x20 PUSH1 0x40 MLOAD DUP1 DUP4 SUB DUP2 PUSH0 DUP8 GAS CALL ISZERO DUP1 ISZERO PUSH2 0x971 JUMPI RETURNDATASIZE PUSH0 DUP1 RETURNDATACOPY RETURNDATASIZE PUSH0 REVERT JUMPDEST POP POP POP POP PUSH1 0x40 MLOAD RETURNDATASIZE PUSH1 0x1F NOT PUSH1 0x1F DUP3 ADD AND DUP3 ADD DUP1 PUSH1 0x40 MSTORE POP DUP2 ADD SWAP1 PUSH2 0x995 SWAP2 SWAP1 PUSH2 0x1478 JUMP JUMPDEST POP PUSH2 0x9E7 PUSH1 0x1 DUP5 DUP5 DUP1 DUP1 PUSH1 0x1F ADD PUSH1 0x20 DUP1 SWAP2 DIV MUL PUSH1 0x20 ADD PUSH1 0x40 MLOAD SWAP1 DUP2 ADD PUSH1 0x40 MSTORE DUP1 SWAP4 SWAP3 SWAP2 SWAP1 DUP2 DUP2 MSTORE PUSH1 0x20 ADD DUP4 DUP4 DUP1 DUP3 DUP5 CALLDATACOPY PUSH0 DUP2 DUP5 ADD MSTORE PUSH1 0x1F NOT PUSH1 0x1F DUP3 ADD AND SWAP1 POP DUP1 DUP4 ADD SWAP3 POP POP POP POP POP POP POP DUP8 DUP8 CALLER PUSH2 0xC29 JUMP JUMPDEST POP POP POP POP POP JUMP JUMPDEST PUSH1 0x4 PUSH1 0x20 MSTORE DUP1 PUSH0 MSTORE PUSH1 0x40 PUSH0 KECCAK256 PUSH0 SWAP2 POP SWAP1 POP SLOAD DUP2 JUMP JUMPDEST PUSH0 CALLVALUE SWAP1 POP PUSH0 DUP2 GT PUSH2 0xA49 JUMPI PUSH1 0x40 MLOAD PUSH32 0x8C379A000000000000000000000000000000000000000000000000000000000 DUP2 MSTORE PUSH1 0x4 ADD PUSH2 0xA40 SWAP1 PUSH2 0x16B6 JUMP JUMPDEST PUSH1 0x40 MLOAD DUP1 SWAP2 SUB SWAP1 REVERT JUMPDEST DUP1 PUSH1 0x2 PUSH0 DUP3 DUP3 SLOAD PUSH2 0xA5A SWAP2 SWAP1 PUSH2 0x13F4 JUMP JUMPDEST SWAP3 POP POP DUP2 SWAP1 SSTORE POP PUSH2 0xAB2 PUSH1 0x1 DUP5 DUP5 DUP1 DUP1 PUSH1 0x1F ADD PUSH1 0x20 DUP1 SWAP2 DIV MUL PUSH1 0x20 ADD PUSH1 0x40 MLOAD SWAP1 DUP2 ADD PUSH1 0x40 MSTORE DUP1 SWAP4 SWAP3 SWAP2 SWAP1 DUP2 DUP2 MSTORE PUSH1 0x20 ADD DUP4 DUP4 DUP1 DUP3 DUP5 CALLDATACOPY PUSH0 DUP2 DUP5 ADD MSTORE PUSH1 0x1F NOT PUSH1 0x1F DUP3 ADD AND SWAP1 POP DUP1 DUP4 ADD SWAP3 POP POP POP POP POP POP POP PUSH0 DUP5 CALLER PUSH2 0xC29 JUMP JUMPDEST POP POP POP JUMP JUMPDEST PUSH1 0x2 SLOAD DUP2 JUMP JUMPDEST PUSH1 0x3 SLOAD DUP2 JUMP JUMPDEST PUSH1 0x5 PUSH1 0x20 MSTORE DUP1 PUSH0 MSTORE PUSH1 0x40 PUSH0 KECCAK256 PUSH0 SWAP2 POP SWAP1 POP SLOAD DUP2 JUMP JUMPDEST PUSH2 0xAE0 PUSH2 0xB5C JUMP JUMPDEST PUSH0 PUSH20 0xFFFFFFFFFFFFFFFFFFFFFFFFFFFFFFFFFFFFFFFF AND DUP2 PUSH20 0xFFFFFFFFFFFFFFFFFFFFFFFFFFFFFFFFFFFFFFFF AND SUB PUSH2 0xB50 JUMPI PUSH0 PUSH1 0x40 MLOAD PUSH32 0x1E4FBDF700000000000000000000000000000000000000000000000000000000 DUP2 MSTORE PUSH1 0x4 ADD PUSH2 0xB47 SWAP2 SWAP1 PUSH2 0x1203 JUMP JUMPDEST PUSH1 0x40 MLOAD DUP1 SWAP2 SUB SWAP1 REVERT JUMPDEST PUSH2 0xB59 DUP2 PUSH2 0xE17 JUMP JUMPDEST POP JUMP JUMPDEST PUSH2 0xB64 PUSH2 0xED8 JUMP JUMPDEST PUSH20 0xFFFFFFFFFFFFFFFFFFFFFFFFFFFFFFFFFFFFFFFF AND PUSH2 0xB82 PUSH2 0x82C JUMP JUMPDEST PUSH20 0xFFFFFFFFFFFFFFFFFFFFFFFFFFFFFFFFFFFFFFFF AND EQ PUSH2 0xBE1 JUMPI PUSH2 0xBA5 PUSH2 0xED8 JUMP JUMPDEST PUSH1 0x40 MLOAD PUSH32 0x118CDAA700000000000000000000000000000000000000000000000000000000 DUP2 MSTORE PUSH1 0x4 ADD PUSH2 0xBD8 SWAP2 SWAP1 PUSH2 0x1203 JUMP JUMPDEST PUSH1 0x40 MLOAD DUP1 SWAP2 SUB SWAP1 REVERT JUMPDEST JUMP JUMPDEST PUSH1 0x2 PUSH1 0x1 SLOAD SUB PUSH2 0xC1F JUMPI PUSH1 0x40 MLOAD PUSH32 0x3EE5AEB500000000000000000000000000000000000000000000000000000000 DUP2 MSTORE PUSH1 0x4 ADD PUSH1 0x40 MLOAD DUP1 SWAP2 SUB SWAP1 REVERT JUMPDEST PUSH1 0x2 PUSH1 0x1 DUP2 SWAP1 SSTORE POP JUMP JUMPDEST PUSH0 PUSH1 0x6 DUP1 SLOAD SWAP1 POP SWAP1 POP PUSH1 0x6 PUSH1 0x40 MLOAD DUP1 PUSH1 0xE0 ADD PUSH1 0x40 MSTORE DUP1 DUP4 DUP2 MSTORE PUSH1 0x20 ADD TIMESTAMP DUP2 MSTORE PUSH1 0x20 ADD DUP9 ISZERO ISZERO DUP2 MSTORE PUSH1 0x20 ADD DUP8 DUP2 MSTORE PUSH1 0x20 ADD DUP7 PUSH20 0xFFFFFFFFFFFFFFFFFFFFFFFFFFFFFFFFFFFFFFFF AND DUP2 MSTORE PUSH1 0x20 ADD DUP6 DUP2 MSTORE PUSH1 0x20 ADD DUP5 PUSH20 0xFFFFFFFFFFFFFFFFFFFFFFFFFFFFFFFFFFFFFFFF AND DUP2 MSTORE POP SWAP1 DUP1 PUSH1 0x1 DUP2 SLOAD ADD DUP1 DUP3 SSTORE DUP1 SWAP2 POP POP PUSH1 0x1 SWAP1 SUB SWAP1 PUSH0 MSTORE PUSH1 0x20 PUSH0 KECCAK256 SWAP1 PUSH1 0x7 MUL ADD PUSH0 SWAP1 SWAP2 SWAP1 SWAP2 SWAP1 SWAP2 POP PUSH0 DUP3 ADD MLOAD DUP2 PUSH0 ADD SSTORE PUSH1 0x20 DUP3 ADD MLOAD DUP2 PUSH1 0x1 ADD SSTORE PUSH1 0x40 DUP3 ADD MLOAD DUP2 PUSH1 0x2 ADD PUSH0 PUSH2 0x100 EXP DUP2 SLOAD DUP2 PUSH1 0xFF MUL NOT AND SWAP1 DUP4 ISZERO ISZERO MUL OR SWAP1 SSTORE POP PUSH1 0x60 DUP3 ADD MLOAD DUP2 PUSH1 0x3 ADD SWAP1 DUP2 PUSH2 0xD01 SWAP2 SWAP1 PUSH2 0x189E JUMP JUMPDEST POP PUSH1 0x80 DUP3 ADD MLOAD DUP2 PUSH1 0x4 ADD PUSH0 PUSH2 0x100 EXP DUP2 SLOAD DUP2 PUSH20 0xFFFFFFFFFFFFFFFFFFFFFFFFFFFFFFFFFFFFFFFF MUL NOT AND SWAP1 DUP4 PUSH20 0xFFFFFFFFFFFFFFFFFFFFFFFFFFFFFFFFFFFFFFFF AND MUL OR SWAP1 SSTORE POP PUSH1 0xA0 DUP3 ADD MLOAD DUP2 PUSH1 0x5 ADD SSTORE PUSH1 0xC0 DUP3 ADD MLOAD DUP2 PUSH1 0x6 ADD PUSH0 PUSH2 0x100 EXP DUP2 SLOAD DUP2 PUSH20 0xFFFFFFFFFFFFFFFFFFFFFFFFFFFFFFFFFFFFFFFF MUL NOT AND SWAP1 DUP4 PUSH20 0xFFFFFFFFFFFFFFFFFFFFFFFFFFFFFFFFFFFFFFFF AND MUL OR SWAP1 SSTORE POP POP POP DUP2 PUSH20 0xFFFFFFFFFFFFFFFFFFFFFFFFFFFFFFFFFFFFFFFF AND DUP5 PUSH20 0xFFFFFFFFFFFFFFFFFFFFFFFFFFFFFFFFFFFFFFFF AND DUP3 PUSH32 0xB52B838555667685DB79A43C16FE0866BCA183C4B03B64F79E4EEBE9E0CA0C50 TIMESTAMP DUP11 DUP11 DUP10 PUSH1 0x40 MLOAD PUSH2 0xDFE SWAP5 SWAP4 SWAP3 SWAP2 SWAP1 PUSH2 0x196D JUMP JUMPDEST PUSH1 0x40 MLOAD DUP1 SWAP2 SUB SWAP1 LOG4 POP POP POP POP POP POP JUMP JUMPDEST PUSH1 0x1 DUP1 DUP2 SWAP1 SSTORE POP JUMP JUMPDEST PUSH0 DUP1 PUSH0 SWAP1 SLOAD SWAP1 PUSH2 0x100 EXP SWAP1 DIV PUSH20 0xFFFFFFFFFFFFFFFFFFFFFFFFFFFFFFFFFFFFFFFF AND SWAP1 POP DUP2 PUSH0 DUP1 PUSH2 0x100 EXP DUP2 SLOAD DUP2 PUSH20 0xFFFFFFFFFFFFFFFFFFFFFFFFFFFFFFFFFFFFFFFF MUL NOT AND SWAP1 DUP4 PUSH20 0xFFFFFFFFFFFFFFFFFFFFFFFFFFFFFFFFFFFFFFFF AND MUL OR SWAP1 SSTORE POP DUP2 PUSH20 0xFFFFFFFFFFFFFFFFFFFFFFFFFFFFFFFFFFFFFFFF AND DUP2 PUSH20 0xFFFFFFFFFFFFFFFFFFFFFFFFFFFFFFFFFFFFFFFF AND PUSH32 0x8BE0079C531659141344CD1FD0A4F28419497F9722A3DAAFE3B4186F6B6457E0 PUSH1 0x40 MLOAD PUSH1 0x40 MLOAD DUP1 SWAP2 SUB SWAP1 LOG3 POP POP JUMP JUMPDEST PUSH0 CALLER SWAP1 POP SWAP1 JUMP JUMPDEST PUSH0 DUP1 REVERT JUMPDEST PUSH0 DUP1 REVERT JUMPDEST PUSH0 PUSH20 0xFFFFFFFFFFFFFFFFFFFFFFFFFFFFFFFFFFFFFFFF DUP3 AND SWAP1 POP SWAP2 SWAP1 POP JUMP JUMPDEST PUSH0 PUSH2 0xF10 DUP3 PUSH2 0xEE7 JUMP JUMPDEST SWAP1 POP SWAP2 SWAP1 POP JUMP JUMPDEST PUSH2 0xF20 DUP2 PUSH2 0xF06 JUMP JUMPDEST DUP2 EQ PUSH2 0xF2A JUMPI PUSH0 DUP1 REVERT JUMPDEST POP JUMP JUMPDEST PUSH0 DUP2 CALLDATALOAD SWAP1 POP PUSH2 0xF3B DUP2 PUSH2 0xF17 JUMP JUMPDEST SWAP3 SWAP2 POP POP JUMP JUMPDEST PUSH0 DUP2 SWAP1 POP SWAP2 SWAP1 POP JUMP JUMPDEST PUSH2 0xF53 DUP2 PUSH2 0xF41 JUMP JUMPDEST DUP2 EQ PUSH2 0xF5D JUMPI PUSH0 DUP1 REVERT JUMPDEST POP JUMP JUMPDEST PUSH0 DUP2 CALLDATALOAD SWAP1 POP PUSH2 0xF6E DUP2 PUSH2 0xF4A JUMP JUMPDEST SWAP3 SWAP2 POP POP JUMP JUMPDEST PUSH0 DUP1 REVERT JUMPDEST PUSH0 DUP1 REVERT JUMPDEST PUSH0 DUP1 REVERT JUMPDEST PUSH0 DUP1 DUP4 PUSH1 0x1F DUP5 ADD SLT PUSH2 0xF95 JUMPI PUSH2 0xF94 PUSH2 0xF74 JUMP JUMPDEST JUMPDEST DUP3 CALLDATALOAD SWAP1 POP PUSH8 0xFFFFFFFFFFFFFFFF DUP2 GT ISZERO PUSH2 0xFB2 JUMPI PUSH2 0xFB1 PUSH2 0xF78 JUMP JUMPDEST JUMPDEST PUSH1 0x20 DUP4 ADD SWAP2 POP DUP4 PUSH1 0x1 DUP3 MUL DUP4 ADD GT ISZERO PUSH2 0xFCE JUMPI PUSH2 0xFCD PUSH2 0xF7C JUMP JUMPDEST JUMPDEST SWAP3 POP SWAP3 SWAP1 POP JUMP JUMPDEST PUSH0 DUP1 PUSH0 DUP1 PUSH1 0x60 DUP6 DUP8 SUB SLT ISZERO PUSH2 0xFED JUMPI PUSH2 0xFEC PUSH2 0xEDF JUMP JUMPDEST JUMPDEST PUSH0 PUSH2 0xFFA DUP8 DUP3 DUP9 ADD PUSH2 0xF2D JUMP JUMPDEST SWAP5 POP POP PUSH1 0x20 PUSH2 0x100B DUP8 DUP3 DUP9 ADD PUSH2 0xF60 JUMP JUMPDEST SWAP4 POP POP PUSH1 0x40 DUP6 ADD CALLDATALOAD PUSH8 0xFFFFFFFFFFFFFFFF DUP2 GT ISZERO PUSH2 0x102C JUMPI PUSH2 0x102B PUSH2 0xEE3 JUMP JUMPDEST JUMPDEST PUSH2 0x1038 DUP8 DUP3 DUP9 ADD PUSH2 0xF80 JUMP JUMPDEST SWAP3 POP SWAP3 POP POP SWAP3 SWAP6 SWAP2 SWAP5 POP SWAP3 POP JUMP JUMPDEST PUSH2 0x104F DUP2 PUSH2 0xF41 JUMP JUMPDEST DUP3 MSTORE POP POP JUMP JUMPDEST PUSH0 PUSH1 0x20 DUP3 ADD SWAP1 POP PUSH2 0x1068 PUSH0 DUP4 ADD DUP5 PUSH2 0x1046 JUMP JUMPDEST SWAP3 SWAP2 POP POP JUMP JUMPDEST PUSH0 PUSH1 0x20 DUP3 DUP5 SUB SLT ISZERO PUSH2 0x1083 JUMPI PUSH2 0x1082 PUSH2 0xEDF JUMP JUMPDEST JUMPDEST PUSH0 PUSH2 0x1090 DUP5 DUP3 DUP6 ADD PUSH2 0xF60 JUMP JUMPDEST SWAP2 POP POP SWAP3 SWAP2 POP POP JUMP JUMPDEST PUSH0 DUP2 ISZERO ISZERO SWAP1 POP SWAP2 SWAP1 POP JUMP JUMPDEST PUSH2 0x10AD DUP2 PUSH2 0x1099 JUMP JUMPDEST DUP3 MSTORE POP POP JUMP JUMPDEST PUSH0 DUP2 MLOAD SWAP1 POP SWAP2 SWAP1 POP JUMP JUMPDEST PUSH0 DUP3 DUP3 MSTORE PUSH1 0x20 DUP3 ADD SWAP1 POP SWAP3 SWAP2 POP POP JUMP JUMPDEST DUP3 DUP2 DUP4 MCOPY PUSH0 DUP4 DUP4 ADD MSTORE POP POP POP JUMP JUMPDEST PUSH0 PUSH1 0x1F NOT PUSH1 0x1F DUP4 ADD AND SWAP1 POP SWAP2 SWAP1 POP JUMP JUMPDEST PUSH0 PUSH2 0x10F5 DUP3 PUSH2 0x10B3 JUMP JUMPDEST PUSH2 0x10FF DUP2 DUP6 PUSH2 0x10BD JUMP JUMPDEST SWAP4 POP PUSH2 0x110F DUP2 DUP6 PUSH1 0x20 DUP7 ADD PUSH2 0x10CD JUMP JUMPDEST PUSH2 0x1118 DUP2 PUSH2 0x10DB JUMP JUMPDEST DUP5 ADD SWAP2 POP POP SWAP3 SWAP2 POP POP JUMP JUMPDEST PUSH2 0x112C DUP2 PUSH2 0xF06 JUMP JUMPDEST DUP3 MSTORE POP POP JUMP JUMPDEST PUSH0 PUSH1 0xE0 DUP3 ADD SWAP1 POP PUSH2 0x1145 PUSH0 DUP4 ADD DUP11 PUSH2 0x1046 JUMP JUMPDEST PUSH2 0x1152 PUSH1 0x20 DUP4 ADD DUP10 PUSH2 0x1046 JUMP JUMPDEST PUSH2 0x115F PUSH1 0x40 DUP4 ADD DUP9 PUSH2 0x10A4 JUMP JUMPDEST DUP2 DUP2 SUB PUSH1 0x60 DUP4 ADD MSTORE PUSH2 0x1171 DUP2 DUP8 PUSH2 0x10EB JUMP JUMPDEST SWAP1 POP PUSH2 0x1180 PUSH1 0x80 DUP4 ADD DUP7 PUSH2 0x1123 JUMP JUMPDEST PUSH2 0x118D PUSH1 0xA0 DUP4 ADD DUP6 PUSH2 0x1046 JUMP JUMPDEST PUSH2 0x119A PUSH1 0xC0 DUP4 ADD DUP5 PUSH2 0x1123 JUMP JUMPDEST SWAP9 SWAP8 POP POP POP POP POP POP POP POP JUMP JUMPDEST PUSH0 DUP1 PUSH0 PUSH1 0x40 DUP5 DUP7 SUB SLT ISZERO PUSH2 0x11BD JUMPI PUSH2 0x11BC PUSH2 0xEDF JUMP JUMPDEST JUMPDEST PUSH0 PUSH2 0x11CA DUP7 DUP3 DUP8 ADD PUSH2 0xF60 JUMP JUMPDEST SWAP4 POP POP PUSH1 0x20 DUP5 ADD CALLDATALOAD PUSH8 0xFFFFFFFFFFFFFFFF DUP2 GT ISZERO PUSH2 0x11EB JUMPI PUSH2 0x11EA PUSH2 0xEE3 JUMP JUMPDEST JUMPDEST PUSH2 0x11F7 DUP7 DUP3 DUP8 ADD PUSH2 0xF80 JUMP JUMPDEST SWAP3 POP SWAP3 POP POP SWAP3 POP SWAP3 POP SWAP3 JUMP JUMPDEST PUSH0 PUSH1 0x20 DUP3 ADD SWAP1 POP PUSH2 0x1216 PUSH0 DUP4 ADD DUP5 PUSH2 0x1123 JUMP JUMPDEST SWAP3 SWAP2 POP POP JUMP JUMPDEST PUSH0 PUSH1 0x20 DUP3 DUP5 SUB SLT ISZERO PUSH2 0x1231 JUMPI PUSH2 0x1230 PUSH2 0xEDF JUMP JUMPDEST JUMPDEST PUSH0 PUSH2 0x123E DUP5 DUP3 DUP6 ADD PUSH2 0xF2D JUMP JUMPDEST SWAP2 POP POP SWAP3 SWAP2 POP POP JUMP JUMPDEST PUSH0 DUP1 PUSH1 0x20 DUP4 DUP6 SUB SLT ISZERO PUSH2 0x125D JUMPI PUSH2 0x125C PUSH2 0xEDF JUMP JUMPDEST JUMPDEST PUSH0 DUP4 ADD CALLDATALOAD PUSH8 0xFFFFFFFFFFFFFFFF DUP2 GT ISZERO PUSH2 0x127A JUMPI PUSH2 0x1279 PUSH2 0xEE3 JUMP JUMPDEST JUMPDEST PUSH2 0x1286 DUP6 DUP3 DUP7 ADD PUSH2 0xF80 JUMP JUMPDEST SWAP3 POP SWAP3 POP POP SWAP3 POP SWAP3 SWAP1 POP JUMP JUMPDEST PUSH32 0x546F6B656E20616464726573732063616E6E6F74206265207A65726F00000000 PUSH0 DUP3 ADD MSTORE POP JUMP JUMPDEST PUSH0 PUSH2 0x12C6 PUSH1 0x1C DUP4 PUSH2 0x10BD JUMP JUMPDEST SWAP2 POP PUSH2 0x12D1 DUP3 PUSH2 0x1292 JUMP JUMPDEST PUSH1 0x20 DUP3 ADD SWAP1 POP SWAP2 SWAP1 POP JUMP JUMPDEST PUSH0 PUSH1 0x20 DUP3 ADD SWAP1 POP DUP2 DUP2 SUB PUSH0 DUP4 ADD MSTORE PUSH2 0x12F3 DUP2 PUSH2 0x12BA JUMP JUMPDEST SWAP1 POP SWAP2 SWAP1 POP JUMP JUMPDEST PUSH0 DUP2 MLOAD SWAP1 POP PUSH2 0x1308 DUP2 PUSH2 0xF4A JUMP JUMPDEST SWAP3 SWAP2 POP POP JUMP JUMPDEST PUSH0 PUSH1 0x20 DUP3 DUP5 SUB SLT ISZERO PUSH2 0x1323 JUMPI PUSH2 0x1322 PUSH2 0xEDF JUMP JUMPDEST JUMPDEST PUSH0 PUSH2 0x1330 DUP5 DUP3 DUP6 ADD PUSH2 0x12FA JUMP JUMPDEST SWAP2 POP POP SWAP3 SWAP2 POP POP JUMP JUMPDEST PUSH32 0x5661756C743A20496E73756666696369656E7420746F6B656E2062616C616E63 PUSH0 DUP3 ADD MSTORE PUSH32 0x6500000000000000000000000000000000000000000000000000000000000000 PUSH1 0x20 DUP3 ADD MSTORE POP JUMP JUMPDEST PUSH0 PUSH2 0x1393 PUSH1 0x21 DUP4 PUSH2 0x10BD JUMP JUMPDEST SWAP2 POP PUSH2 0x139E DUP3 PUSH2 0x1339 JUMP JUMPDEST PUSH1 0x40 DUP3 ADD SWAP1 POP SWAP2 SWAP1 POP JUMP JUMPDEST PUSH0 PUSH1 0x20 DUP3 ADD SWAP1 POP DUP2 DUP2 SUB PUSH0 DUP4 ADD MSTORE PUSH2 0x13C0 DUP2 PUSH2 0x1387 JUMP JUMPDEST SWAP1 POP SWAP2 SWAP1 POP JUMP JUMPDEST PUSH32 0x4E487B7100000000000000000000000000000000000000000000000000000000 PUSH0 MSTORE PUSH1 0x11 PUSH1 0x4 MSTORE PUSH1 0x24 PUSH0 REVERT JUMPDEST PUSH0 PUSH2 0x13FE DUP3 PUSH2 0xF41 JUMP JUMPDEST SWAP2 POP PUSH2 0x1409 DUP4 PUSH2 0xF41 JUMP JUMPDEST SWAP3 POP DUP3 DUP3 ADD SWAP1 POP DUP1 DUP3 GT ISZERO PUSH2 0x1421 JUMPI PUSH2 0x1420 PUSH2 0x13C7 JUMP JUMPDEST JUMPDEST SWAP3 SWAP2 POP POP JUMP JUMPDEST PUSH0 PUSH1 0x40 DUP3 ADD SWAP1 POP PUSH2 0x143A PUSH0 DUP4 ADD DUP6 PUSH2 0x1123 JUMP JUMPDEST PUSH2 0x1447 PUSH1 0x20 DUP4 ADD DUP5 PUSH2 0x1046 JUMP JUMPDEST SWAP4 SWAP3 POP POP POP JUMP JUMPDEST PUSH2 0x1457 DUP2 PUSH2 0x1099 JUMP JUMPDEST DUP2 EQ PUSH2 0x1461 JUMPI PUSH0 DUP1 REVERT JUMPDEST POP JUMP JUMPDEST PUSH0 DUP2 MLOAD SWAP1 POP PUSH2 0x1472 DUP2 PUSH2 0x144E JUMP JUMPDEST SWAP3 SWAP2 POP POP JUMP JUMPDEST PUSH0 PUSH1 0x20 DUP3 DUP5 SUB SLT ISZERO PUSH2 0x148D JUMPI PUSH2 0x148C PUSH2 0xEDF JUMP JUMPDEST JUMPDEST PUSH0 PUSH2 0x149A DUP5 DUP3 DUP6 ADD PUSH2 0x1464 JUMP JUMPDEST SWAP2 POP POP SWAP3 SWAP2 POP POP JUMP JUMPDEST PUSH32 0x4E487B7100000000000000000000000000000000000000000000000000000000 PUSH0 MSTORE PUSH1 0x22 PUSH1 0x4 MSTORE PUSH1 0x24 PUSH0 REVERT JUMPDEST PUSH0 PUSH1 0x2 DUP3 DIV SWAP1 POP PUSH1 0x1 DUP3 AND DUP1 PUSH2 0x14E7 JUMPI PUSH1 0x7F DUP3 AND SWAP2 POP JUMPDEST PUSH1 0x20 DUP3 LT DUP2 SUB PUSH2 0x14FA JUMPI PUSH2 0x14F9 PUSH2 0x14A3 JUMP JUMPDEST JUMPDEST POP SWAP2 SWAP1 POP JUMP JUMPDEST PUSH32 0x5661756C743A20496E73756666696369656E74206E61746976652062616C616E PUSH0 DUP3 ADD MSTORE PUSH32 0x6365000000000000000000000000000000000000000000000000000000000000 PUSH1 0x20 DUP3 ADD MSTORE POP JUMP JUMPDEST PUSH0 PUSH2 0x155A PUSH1 0x22 DUP4 PUSH2 0x10BD JUMP JUMPDEST SWAP2 POP PUSH2 0x1565 DUP3 PUSH2 0x1500 JUMP JUMPDEST PUSH1 0x40 DUP3 ADD SWAP1 POP SWAP2 SWAP1 POP JUMP JUMPDEST PUSH0 PUSH1 0x20 DUP3 ADD SWAP1 POP DUP2 DUP2 SUB PUSH0 DUP4 ADD MSTORE PUSH2 0x1587 DUP2 PUSH2 0x154E JUMP JUMPDEST SWAP1 POP SWAP2 SWAP1 POP JUMP JUMPDEST PUSH0 DUP2 SWAP1 POP SWAP3 SWAP2 POP POP JUMP JUMPDEST POP JUMP JUMPDEST PUSH0 PUSH2 0x15A6 PUSH0 DUP4 PUSH2 0x158E JUMP JUMPDEST SWAP2 POP PUSH2 0x15B1 DUP3 PUSH2 0x1598 JUMP JUMPDEST PUSH0 DUP3 ADD SWAP1 POP SWAP2 SWAP1 POP JUMP JUMPDEST PUSH0 PUSH2 0x15C5 DUP3 PUSH2 0x159B JUMP JUMPDEST SWAP2 POP DUP2 SWAP1 POP SWAP2 SWAP1 POP JUMP JUMPDEST PUSH32 0x5661756C743A204E6174697665207769746864726177616C206661696C656400 PUSH0 DUP3 ADD MSTORE POP JUMP JUMPDEST PUSH0 PUSH2 0x1603 PUSH1 0x1F DUP4 PUSH2 0x10BD JUMP JUMPDEST SWAP2 POP PUSH2 0x160E DUP3 PUSH2 0x15CF JUMP JUMPDEST PUSH1 0x20 DUP3 ADD SWAP1 POP SWAP2 SWAP1 POP JUMP JUMPDEST PUSH0 PUSH1 0x20 DUP3 ADD SWAP1 POP DUP2 DUP2 SUB PUSH0 DUP4 ADD MSTORE PUSH2 0x1630 DUP2 PUSH2 0x15F7 JUMP JUMPDEST SWAP1 POP SWAP2 SWAP1 POP JUMP JUMPDEST PUSH0 PUSH1 0x60 DUP3 ADD SWAP1 POP PUSH2 0x164A PUSH0 DUP4 ADD DUP7 PUSH2 0x1123 JUMP JUMPDEST PUSH2 0x1657 PUSH1 0x20 DUP4 ADD DUP6 PUSH2 0x1123 JUMP JUMPDEST PUSH2 0x1664 PUSH1 0x40 DUP4 ADD DUP5 PUSH2 0x1046 JUMP JUMPDEST SWAP5 SWAP4 POP POP POP POP JUMP JUMPDEST PUSH32 0x416D6F756E74206D7573742062652067726561746572207468616E207A65726F PUSH0 DUP3 ADD MSTORE POP JUMP JUMPDEST PUSH0 PUSH2 0x16A0 PUSH1 0x20 DUP4 PUSH2 0x10BD JUMP JUMPDEST SWAP2 POP PUSH2 0x16AB DUP3 PUSH2 0x166C JUMP JUMPDEST PUSH1 0x20 DUP3 ADD SWAP1 POP SWAP2 SWAP1 POP JUMP JUMPDEST PUSH0 PUSH1 0x20 DUP3 ADD SWAP1 POP DUP2 DUP2 SUB PUSH0 DUP4 ADD MSTORE PUSH2 0x16CD DUP2 PUSH2 0x1694 JUMP JUMPDEST SWAP1 POP SWAP2 SWAP1 POP JUMP JUMPDEST PUSH32 0x4E487B7100000000000000000000000000000000000000000000000000000000 PUSH0 MSTORE PUSH1 0x41 PUSH1 0x4 MSTORE PUSH1 0x24 PUSH0 REVERT JUMPDEST PUSH0 DUP2 SWAP1 POP DUP2 PUSH0 MSTORE PUSH1 0x20 PUSH0 KECCAK256 SWAP1 POP SWAP2 SWAP1 POP JUMP JUMPDEST PUSH0 PUSH1 0x20 PUSH1 0x1F DUP4 ADD DIV SWAP1 POP SWAP2 SWAP1 POP JUMP JUMPDEST PUSH0 DUP3 DUP3 SHL SWAP1 POP SWAP3 SWAP2 POP POP JUMP JUMPDEST PUSH0 PUSH1 0x8 DUP4 MUL PUSH2 0x175D PUSH32 0xFFFFFFFFFFFFFFFFFFFFFFFFFFFFFFFFFFFFFFFFFFFFFFFFFFFFFFFFFFFFFFFF DUP3 PUSH2 0x1722 JUMP JUMPDEST PUSH2 0x1767 DUP7 DUP4 PUSH2 0x1722 JUMP JUMPDEST SWAP6 POP DUP1 NOT DUP5 AND SWAP4 POP DUP1 DUP7 AND DUP5 OR SWAP3 POP POP POP SWAP4 SWAP3 POP POP POP JUMP JUMPDEST PUSH0 DUP2 SWAP1 POP SWAP2 SWAP1 POP JUMP JUMPDEST PUSH0 PUSH2 0x17A2 PUSH2 0x179D PUSH2 0x1798 DUP5 PUSH2 0xF41 JUMP JUMPDEST PUSH2 0x177F JUMP JUMPDEST PUSH2 0xF41 JUMP JUMPDEST SWAP1 POP SWAP2 SWAP1 POP JUMP JUMPDEST PUSH0 DUP2 SWAP1 POP SWAP2 SWAP1 POP JUMP JUMPDEST PUSH2 0x17BB DUP4 PUSH2 0x1788 JUMP JUMPDEST PUSH2 0x17CF PUSH2 0x17C7 DUP3 PUSH2 0x17A9 JUMP JUMPDEST DUP5 DUP5 SLOAD PUSH2 0x172E JUMP JUMPDEST DUP3 SSTORE POP POP POP POP JUMP JUMPDEST PUSH0 SWAP1 JUMP JUMPDEST PUSH2 0x17E3 PUSH2 0x17D7 JUMP JUMPDEST PUSH2 0x17EE DUP2 DUP5 DUP5 PUSH2 0x17B2 JUMP JUMPDEST POP POP POP JUMP JUMPDEST JUMPDEST DUP2 DUP2 LT ISZERO PUSH2 0x1811 JUMPI PUSH2 0x1806 PUSH0 DUP3 PUSH2 0x17DB JUMP JUMPDEST PUSH1 0x1 DUP2 ADD SWAP1 POP PUSH2 0x17F4 JUMP JUMPDEST POP POP JUMP JUMPDEST PUSH1 0x1F DUP3 GT ISZERO PUSH2 0x1856 JUMPI PUSH2 0x1827 DUP2 PUSH2 0x1701 JUMP JUMPDEST PUSH2 0x1830 DUP5 PUSH2 0x1713 JUMP JUMPDEST DUP2 ADD PUSH1 0x20 DUP6 LT ISZERO PUSH2 0x183F JUMPI DUP2 SWAP1 POP JUMPDEST PUSH2 0x1853 PUSH2 0x184B DUP6 PUSH2 0x1713 JUMP JUMPDEST DUP4 ADD DUP3 PUSH2 0x17F3 JUMP JUMPDEST POP POP JUMPDEST POP POP POP JUMP JUMPDEST PUSH0 DUP3 DUP3 SHR SWAP1 POP SWAP3 SWAP2 POP POP JUMP JUMPDEST PUSH0 PUSH2 0x1876 PUSH0 NOT DUP5 PUSH1 0x8 MUL PUSH2 0x185B JUMP JUMPDEST NOT DUP1 DUP4 AND SWAP2 POP POP SWAP3 SWAP2 POP POP JUMP JUMPDEST PUSH0 PUSH2 0x188E DUP4 DUP4 PUSH2 0x1867 JUMP JUMPDEST SWAP2 POP DUP3 PUSH1 0x2 MUL DUP3 OR SWAP1 POP SWAP3 SWAP2 POP POP JUMP JUMPDEST PUSH2 0x18A7 DUP3 PUSH2 0x10B3 JUMP JUMPDEST PUSH8 0xFFFFFFFFFFFFFFFF DUP2 GT ISZERO PUSH2 0x18C0 JUMPI PUSH2 0x18BF PUSH2 0x16D4 JUMP JUMPDEST JUMPDEST PUSH2 0x18CA DUP3 SLOAD PUSH2 0x14D0 JUMP JUMPDEST PUSH2 0x18D5 DUP3 DUP3 DUP6 PUSH2 0x1815 JUMP JUMPDEST PUSH0 PUSH1 0x20 SWAP1 POP PUSH1 0x1F DUP4 GT PUSH1 0x1 DUP2 EQ PUSH2 0x1906 JUMPI PUSH0 DUP5 ISZERO PUSH2 0x18F4 JUMPI DUP3 DUP8 ADD MLOAD SWAP1 POP JUMPDEST PUSH2 0x18FE DUP6 DUP3 PUSH2 0x1883 JUMP JUMPDEST DUP7 SSTORE POP PUSH2 0x1965 JUMP JUMPDEST PUSH1 0x1F NOT DUP5 AND PUSH2 0x1914 DUP7 PUSH2 0x1701 JUMP JUMPDEST PUSH0 JUMPDEST DUP3 DUP2 LT ISZERO PUSH2 0x193B JUMPI DUP5 DUP10 ADD MLOAD DUP3 SSTORE PUSH1 0x1 DUP3 ADD SWAP2 POP PUSH1 0x20 DUP6 ADD SWAP5 POP PUSH1 0x20 DUP2 ADD SWAP1 POP PUSH2 0x1916 JUMP JUMPDEST DUP7 DUP4 LT ISZERO PUSH2 0x1958 JUMPI DUP5 DUP10 ADD MLOAD PUSH2 0x1954 PUSH1 0x1F DUP10 AND DUP3 PUSH2 0x1867 JUMP JUMPDEST DUP4 SSTORE POP JUMPDEST PUSH1 0x1 PUSH1 0x2 DUP9 MUL ADD DUP9 SSTORE POP POP POP JUMPDEST POP POP POP POP POP POP JUMP JUMPDEST PUSH0 PUSH1 0x80 DUP3 ADD SWAP1 POP PUSH2 0x1980 PUSH0 DUP4 ADD DUP8 PUSH2 0x1046 JUMP JUMPDEST PUSH2 0x198D PUSH1 0x20 DUP4 ADD DUP7 PUSH2 0x10A4 JUMP JUMPDEST DUP2 DUP2 SUB PUSH1 0x40 DUP4 ADD MSTORE PUSH2 0x199F DUP2 DUP6 PUSH2 0x10EB JUMP JUMPDEST SWAP1 POP PUSH2 0x19AE PUSH1 0x60 DUP4 ADD DUP5 PUSH2 0x1046 JUMP JUMPDEST SWAP6 SWAP5 POP POP POP POP POP JUMP INVALID LOG2 PUSH5 0x6970667358 0x22 SLT KECCAK256 0x27 DUP13 PUSH12 0xF9BE4909DFD141C70AD20D74 PUSH9 0xCABB8976F5813BC387 SHL DELEGATECALL PUSH1 0x28 0xF6 0xC5 0xDF PUSH5 0x736F6C6343 STOP ADDMOD BYTE STOP CALLER "
				},
				"gasEstimates": {
					"creation": {
						"codeDepositCost": "1327400",
						"executionCost": "infinite",
						"totalCost": "infinite"
					},
					"external": {
						"depositNative(string)": "infinite",
						"depositToken(address,uint256,string)": "infinite",
						"getTransactionLogCount()": "2463",
						"owner()": "2626",
						"renounceOwnership()": "infinite",
						"totalNativeExpense()": "2469",
						"totalNativeIncome()": "2447",
						"totalTokenExpense(address)": "2868",
						"totalTokenIncome(address)": "2847",
						"transactionLog(uint256)": "infinite",
						"transferOwnership(address)": "infinite",
						"withdrawNative(uint256,string)": "infinite",
						"withdrawToken(address,uint256,string)": "infinite"
					},
					"internal": {
						"_logTransaction(bool,string memory,address,uint256,address)": "infinite"
					}
				},
				"methodIdentifiers": {
					"depositNative(string)": "d51ba8f6",
					"depositToken(address,uint256,string)": "a10d0960",
					"getTransactionLogCount()": "5adcb1c4",
					"owner()": "8da5cb5b",
					"renounceOwnership()": "715018a6",
					"totalNativeExpense()": "e798af88",
					"totalNativeIncome()": "e4e544cf",
					"totalTokenExpense(address)": "f18d0142",
					"totalTokenIncome(address)": "c536e768",
					"transactionLog(uint256)": "69594cfa",
					"transferOwnership(address)": "f2fde38b",
					"withdrawNative(uint256,string)": "79da58fc",
					"withdrawToken(address,uint256,string)": "14eaa43b"
				}
			},
			"storageLayout": {
				"storage": [
					{
						"astId": 8,
						"contract": "contracts/BusinessVault.sol:BusinessVault",
						"label": "_owner",
						"offset": 0,
						"slot": "0",
						"type": "t_address"
					},
					{
						"astId": 266,
						"contract": "contracts/BusinessVault.sol:BusinessVault",
						"label": "_status",
						"offset": 0,
						"slot": "1",
						"type": "t_uint256"
					},
					{
						"astId": 350,
						"contract": "contracts/BusinessVault.sol:BusinessVault",
						"label": "totalNativeIncome",
						"offset": 0,
						"slot": "2",
						"type": "t_uint256"
					},
					{
						"astId": 352,
						"contract": "contracts/BusinessVault.sol:BusinessVault",
						"label": "totalNativeExpense",
						"offset": 0,
						"slot": "3",
						"type": "t_uint256"
					},
					{
						"astId": 356,
						"contract": "contracts/BusinessVault.sol:BusinessVault",
						"label": "totalTokenIncome",
						"offset": 0,
						"slot": "4",
						"type": "t_mapping(t_address,t_uint256)"
					},
					{
						"astId": 360,
						"contract": "contracts/BusinessVault.sol:BusinessVault",
						"label": "totalTokenExpense",
						"offset": 0,
						"slot": "5",
						"type": "t_mapping(t_address,t_uint256)"
					},
					{
						"astId": 364,
						"contract": "contracts/BusinessVault.sol:BusinessVault",
						"label": "transactionLog",
						"offset": 0,
						"slot": "6",
						"type": "t_array(t_struct(Transaction)348_storage)dyn_storage"
					}
				],
				"types": {
					"t_address": {
						"encoding": "inplace",
						"label": "address",
						"numberOfBytes": "20"
					},
					"t_array(t_struct(Transaction)348_storage)dyn_storage": {
						"base": "t_struct(Transaction)348_storage",
						"encoding": "dynamic_array",
						"label": "struct BusinessVault.Transaction[]",
						"numberOfBytes": "32"
					},
					"t_bool": {
						"encoding": "inplace",
						"label": "bool",
						"numberOfBytes": "1"
					},
					"t_mapping(t_address,t_uint256)": {
						"encoding": "mapping",
						"key": "t_address",
						"label": "mapping(address => uint256)",
						"numberOfBytes": "32",
						"value": "t_uint256"
					},
					"t_string_storage": {
						"encoding": "bytes",
						"label": "string",
						"numberOfBytes": "32"
					},
					"t_struct(Transaction)348_storage": {
						"encoding": "inplace",
						"label": "struct BusinessVault.Transaction",
						"members": [
							{
								"astId": 335,
								"contract": "contracts/BusinessVault.sol:BusinessVault",
								"label": "id",
								"offset": 0,
								"slot": "0",
								"type": "t_uint256"
							},
							{
								"astId": 337,
								"contract": "contracts/BusinessVault.sol:BusinessVault",
								"label": "timestamp",
								"offset": 0,
								"slot": "1",
								"type": "t_uint256"
							},
							{
								"astId": 339,
								"contract": "contracts/BusinessVault.sol:BusinessVault",
								"label": "isIncome",
								"offset": 0,
								"slot": "2",
								"type": "t_bool"
							},
							{
								"astId": 341,
								"contract": "contracts/BusinessVault.sol:BusinessVault",
								"label": "category",
								"offset": 0,
								"slot": "3",
								"type": "t_string_storage"
							},
							{
								"astId": 343,
								"contract": "contracts/BusinessVault.sol:BusinessVault",
								"label": "tokenAddress",
								"offset": 0,
								"slot": "4",
								"type": "t_address"
							},
							{
								"astId": 345,
								"contract": "contracts/BusinessVault.sol:BusinessVault",
								"label": "amount",
								"offset": 0,
								"slot": "5",
								"type": "t_uint256"
							},
							{
								"astId": 347,
								"contract": "contracts/BusinessVault.sol:BusinessVault",
								"label": "actor",
								"offset": 0,
								"slot": "6",
								"type": "t_address"
							}
						],
						"numberOfBytes": "224"
					},
					"t_uint256": {
						"encoding": "inplace",
						"label": "uint256",
						"numberOfBytes": "32"
					}
				}
			},
			"userdoc": {
				"kind": "user",
				"methods": {},
				"version": 1
			}
		}
	}
}